{
  "_format": "hh-sol-artifact-1",
  "contractName": "SubjectiveMarketFactory",
  "sourceName": "src/SubjectiveMarketFactory.sol",
  "abi": [
    {
      "inputs": [],
      "stateMutability": "nonpayable",
      "type": "constructor"
    },
    {
      "inputs": [],
      "name": "AccessControlBadConfirmation",
      "type": "error"
    },
    {
      "inputs": [
        {
          "internalType": "address",
          "name": "account",
          "type": "address"
        },
        {
          "internalType": "bytes32",
          "name": "neededRole",
          "type": "bytes32"
        }
      ],
      "name": "AccessControlUnauthorizedAccount",
      "type": "error"
    },
    {
      "inputs": [
        {
          "internalType": "address",
          "name": "owner",
          "type": "address"
        }
      ],
      "name": "OwnableInvalidOwner",
      "type": "error"
    },
    {
      "inputs": [
        {
          "internalType": "address",
          "name": "account",
          "type": "address"
        }
      ],
      "name": "OwnableUnauthorizedAccount",
      "type": "error"
    },
    {
      "anonymous": false,
      "inputs": [
        {
          "indexed": true,
          "internalType": "uint256",
          "name": "marketId",
          "type": "uint256"
        },
        {
          "indexed": true,
          "internalType": "address",
          "name": "verifier",
          "type": "address"
        }
      ],
      "name": "CommitmentSubmitted",
      "type": "event"
    },
    {
      "anonymous": false,
      "inputs": [
        {
          "indexed": true,
          "internalType": "uint256",
          "name": "marketId",
          "type": "uint256"
        },
        {
          "indexed": false,
          "internalType": "uint256",
          "name": "outcome",
          "type": "uint256"
        }
      ],
      "name": "MarketResolved",
      "type": "event"
    },
    {
      "anonymous": false,
      "inputs": [
        {
          "indexed": true,
          "internalType": "uint256",
          "name": "marketId",
          "type": "uint256"
        },
        {
          "indexed": true,
          "internalType": "address",
          "name": "verifier",
          "type": "address"
        },
        {
          "indexed": false,
          "internalType": "uint256",
          "name": "outcome",
          "type": "uint256"
        }
      ],
      "name": "OutcomeRevealed",
      "type": "event"
    },
    {
      "anonymous": false,
      "inputs": [
        {
          "indexed": true,
          "internalType": "address",
          "name": "previousOwner",
          "type": "address"
        },
        {
          "indexed": true,
          "internalType": "address",
          "name": "newOwner",
          "type": "address"
        }
      ],
      "name": "OwnershipTransferred",
      "type": "event"
    },
    {
      "anonymous": false,
      "inputs": [
        {
          "indexed": true,
          "internalType": "uint256",
          "name": "marketId",
          "type": "uint256"
        },
        {
          "indexed": false,
          "internalType": "enum SubjectiveMarketFactory.MarketPhase",
          "name": "newPhase",
          "type": "uint8"
        }
      ],
      "name": "PhaseChanged",
      "type": "event"
    },
    {
      "anonymous": false,
      "inputs": [
        {
          "indexed": true,
          "internalType": "bytes32",
          "name": "role",
          "type": "bytes32"
        },
        {
          "indexed": true,
          "internalType": "bytes32",
          "name": "previousAdminRole",
          "type": "bytes32"
        },
        {
          "indexed": true,
          "internalType": "bytes32",
          "name": "newAdminRole",
          "type": "bytes32"
        }
      ],
      "name": "RoleAdminChanged",
      "type": "event"
    },
    {
      "anonymous": false,
      "inputs": [
        {
          "indexed": true,
          "internalType": "bytes32",
          "name": "role",
          "type": "bytes32"
        },
        {
          "indexed": true,
          "internalType": "address",
          "name": "account",
          "type": "address"
        },
        {
          "indexed": true,
          "internalType": "address",
          "name": "sender",
          "type": "address"
        }
      ],
      "name": "RoleGranted",
      "type": "event"
    },
    {
      "anonymous": false,
      "inputs": [
        {
          "indexed": true,
          "internalType": "bytes32",
          "name": "role",
          "type": "bytes32"
        },
        {
          "indexed": true,
          "internalType": "address",
          "name": "account",
          "type": "address"
        },
        {
          "indexed": true,
          "internalType": "address",
          "name": "sender",
          "type": "address"
        }
      ],
      "name": "RoleRevoked",
      "type": "event"
    },
    {
      "anonymous": false,
      "inputs": [
        {
          "indexed": true,
          "internalType": "uint256",
          "name": "marketId",
          "type": "uint256"
        },
        {
          "indexed": false,
          "internalType": "string",
          "name": "question",
          "type": "string"
        },
        {
          "indexed": false,
          "internalType": "address[]",
          "name": "verifiers",
          "type": "address[]"
        },
        {
          "indexed": false,
          "internalType": "uint256",
          "name": "threshold",
          "type": "uint256"
        }
      ],
      "name": "SubjectiveMarketCreated",
      "type": "event"
    },
    {
      "inputs": [],
      "name": "COMMIT_PERIOD",
      "outputs": [
        {
          "internalType": "uint256",
          "name": "",
          "type": "uint256"
        }
      ],
      "stateMutability": "view",
      "type": "function"
    },
    {
      "inputs": [],
      "name": "DEFAULT_ADMIN_ROLE",
      "outputs": [
        {
          "internalType": "bytes32",
          "name": "",
          "type": "bytes32"
        }
      ],
      "stateMutability": "view",
      "type": "function"
    },
    {
      "inputs": [],
      "name": "REVEAL_PERIOD",
      "outputs": [
        {
          "internalType": "uint256",
          "name": "",
          "type": "uint256"
        }
      ],
      "stateMutability": "view",
      "type": "function"
    },
    {
      "inputs": [
        {
          "internalType": "uint256",
          "name": "marketId",
          "type": "uint256"
        },
        {
          "internalType": "bytes32",
          "name": "commitment",
          "type": "bytes32"
        }
      ],
      "name": "commitOutcome",
      "outputs": [],
      "stateMutability": "nonpayable",
      "type": "function"
    },
    {
      "inputs": [
        {
          "internalType": "uint256",
          "name": "",
          "type": "uint256"
        },
        {
          "internalType": "address",
          "name": "",
          "type": "address"
        }
      ],
      "name": "commitments",
      "outputs": [
        {
          "internalType": "bytes32",
          "name": "",
          "type": "bytes32"
        }
      ],
      "stateMutability": "view",
      "type": "function"
    },
    {
      "inputs": [
        {
          "internalType": "string",
          "name": "question",
          "type": "string"
        },
        {
          "internalType": "address[]",
          "name": "verifiers",
          "type": "address[]"
        },
        {
          "internalType": "uint256",
          "name": "threshold",
          "type": "uint256"
        },
        {
          "internalType": "uint256",
          "name": "resolutionTime",
          "type": "uint256"
        }
      ],
      "name": "createMarket",
      "outputs": [
        {
          "internalType": "uint256",
          "name": "",
          "type": "uint256"
        }
      ],
      "stateMutability": "nonpayable",
      "type": "function"
    },
    {
      "inputs": [
        {
          "internalType": "uint256",
          "name": "marketId",
          "type": "uint256"
        }
      ],
      "name": "forceResolveMarket",
      "outputs": [],
      "stateMutability": "nonpayable",
      "type": "function"
    },
    {
      "inputs": [
        {
          "internalType": "uint256",
          "name": "marketId",
          "type": "uint256"
        },
        {
          "internalType": "address",
          "name": "verifier",
          "type": "address"
        }
      ],
      "name": "getCommitment",
      "outputs": [
        {
          "internalType": "bytes32",
          "name": "",
          "type": "bytes32"
        }
      ],
      "stateMutability": "view",
      "type": "function"
    },
    {
      "inputs": [
        {
          "internalType": "uint256",
          "name": "marketId",
          "type": "uint256"
        }
      ],
      "name": "getMarket",
      "outputs": [
        {
          "internalType": "uint256",
          "name": "id",
          "type": "uint256"
        },
        {
          "internalType": "string",
          "name": "question",
          "type": "string"
        },
        {
          "internalType": "address",
          "name": "creator",
          "type": "address"
        },
        {
          "internalType": "address[]",
          "name": "verifiers",
          "type": "address[]"
        },
        {
          "internalType": "uint256",
          "name": "threshold",
          "type": "uint256"
        },
        {
          "internalType": "uint256",
          "name": "resolutionTime",
          "type": "uint256"
        },
        {
          "internalType": "enum SubjectiveMarketFactory.MarketPhase",
          "name": "phase",
          "type": "uint8"
        },
        {
          "internalType": "uint256",
          "name": "outcome",
          "type": "uint256"
        },
        {
          "internalType": "uint256",
          "name": "revealCount",
          "type": "uint256"
        },
        {
          "internalType": "uint256",
          "name": "createdAt",
          "type": "uint256"
        }
      ],
      "stateMutability": "view",
      "type": "function"
    },
    {
      "inputs": [
        {
          "internalType": "uint256",
          "name": "marketId",
          "type": "uint256"
        },
        {
          "internalType": "address",
          "name": "verifier",
          "type": "address"
        }
      ],
      "name": "getReveal",
      "outputs": [
        {
          "internalType": "uint256",
          "name": "",
          "type": "uint256"
        }
      ],
      "stateMutability": "view",
      "type": "function"
    },
    {
      "inputs": [
        {
          "internalType": "bytes32",
          "name": "role",
          "type": "bytes32"
        }
      ],
      "name": "getRoleAdmin",
      "outputs": [
        {
          "internalType": "bytes32",
          "name": "",
          "type": "bytes32"
        }
      ],
      "stateMutability": "view",
      "type": "function"
    },
    {
      "inputs": [
        {
          "internalType": "uint256",
          "name": "marketId",
          "type": "uint256"
        }
      ],
      "name": "getVerifiers",
      "outputs": [
        {
          "internalType": "address[]",
          "name": "",
          "type": "address[]"
        }
      ],
      "stateMutability": "view",
      "type": "function"
    },
    {
      "inputs": [
        {
          "internalType": "bytes32",
          "name": "role",
          "type": "bytes32"
        },
        {
          "internalType": "address",
          "name": "account",
          "type": "address"
        }
      ],
      "name": "grantRole",
      "outputs": [],
      "stateMutability": "nonpayable",
      "type": "function"
    },
    {
      "inputs": [
        {
          "internalType": "bytes32",
          "name": "role",
          "type": "bytes32"
        },
        {
          "internalType": "address",
          "name": "account",
          "type": "address"
        }
      ],
      "name": "hasRole",
      "outputs": [
        {
          "internalType": "bool",
          "name": "",
          "type": "bool"
        }
      ],
      "stateMutability": "view",
      "type": "function"
    },
    {
      "inputs": [
        {
          "internalType": "uint256",
          "name": "marketId",
          "type": "uint256"
        },
        {
          "internalType": "address",
          "name": "account",
          "type": "address"
        }
      ],
      "name": "isVerifier",
      "outputs": [
        {
          "internalType": "bool",
          "name": "",
          "type": "bool"
        }
      ],
      "stateMutability": "view",
      "type": "function"
    },
    {
      "inputs": [],
      "name": "marketCount",
      "outputs": [
        {
          "internalType": "uint256",
          "name": "",
          "type": "uint256"
        }
      ],
      "stateMutability": "view",
      "type": "function"
    },
    {
      "inputs": [
        {
          "internalType": "uint256",
          "name": "",
          "type": "uint256"
        }
      ],
      "name": "markets",
      "outputs": [
        {
          "internalType": "uint256",
          "name": "id",
          "type": "uint256"
        },
        {
          "internalType": "string",
          "name": "question",
          "type": "string"
        },
        {
          "internalType": "address",
          "name": "creator",
          "type": "address"
        },
        {
          "internalType": "uint256",
          "name": "threshold",
          "type": "uint256"
        },
        {
          "internalType": "uint256",
          "name": "resolutionTime",
          "type": "uint256"
        },
        {
          "internalType": "enum SubjectiveMarketFactory.MarketPhase",
          "name": "phase",
          "type": "uint8"
        },
        {
          "internalType": "uint256",
          "name": "outcome",
          "type": "uint256"
        },
        {
          "internalType": "uint256",
          "name": "revealCount",
          "type": "uint256"
        },
        {
          "internalType": "uint256",
          "name": "createdAt",
          "type": "uint256"
        }
      ],
      "stateMutability": "view",
      "type": "function"
    },
    {
      "inputs": [],
      "name": "owner",
      "outputs": [
        {
          "internalType": "address",
          "name": "",
          "type": "address"
        }
      ],
      "stateMutability": "view",
      "type": "function"
    },
    {
      "inputs": [],
      "name": "renounceOwnership",
      "outputs": [],
      "stateMutability": "nonpayable",
      "type": "function"
    },
    {
      "inputs": [
        {
          "internalType": "bytes32",
          "name": "role",
          "type": "bytes32"
        },
        {
          "internalType": "address",
          "name": "callerConfirmation",
          "type": "address"
        }
      ],
      "name": "renounceRole",
      "outputs": [],
      "stateMutability": "nonpayable",
      "type": "function"
    },
    {
      "inputs": [
        {
          "internalType": "uint256",
          "name": "marketId",
          "type": "uint256"
        },
        {
          "internalType": "uint256",
          "name": "outcome",
          "type": "uint256"
        },
        {
          "internalType": "bytes32",
          "name": "salt",
          "type": "bytes32"
        }
      ],
      "name": "revealOutcome",
      "outputs": [],
      "stateMutability": "nonpayable",
      "type": "function"
    },
    {
      "inputs": [
        {
          "internalType": "uint256",
          "name": "",
          "type": "uint256"
        },
        {
          "internalType": "address",
          "name": "",
          "type": "address"
        }
      ],
      "name": "reveals",
      "outputs": [
        {
          "internalType": "uint256",
          "name": "",
          "type": "uint256"
        }
      ],
      "stateMutability": "view",
      "type": "function"
    },
    {
      "inputs": [
        {
          "internalType": "bytes32",
          "name": "role",
          "type": "bytes32"
        },
        {
          "internalType": "address",
          "name": "account",
          "type": "address"
        }
      ],
      "name": "revokeRole",
      "outputs": [],
      "stateMutability": "nonpayable",
      "type": "function"
    },
    {
      "inputs": [
        {
          "internalType": "uint256",
          "name": "marketId",
          "type": "uint256"
        }
      ],
      "name": "startCommitPhase",
      "outputs": [],
      "stateMutability": "nonpayable",
      "type": "function"
    },
    {
      "inputs": [
        {
          "internalType": "uint256",
          "name": "marketId",
          "type": "uint256"
        }
      ],
      "name": "startRevealPhase",
      "outputs": [],
      "stateMutability": "nonpayable",
      "type": "function"
    },
    {
      "inputs": [
        {
          "internalType": "bytes4",
          "name": "interfaceId",
          "type": "bytes4"
        }
      ],
      "name": "supportsInterface",
      "outputs": [
        {
          "internalType": "bool",
          "name": "",
          "type": "bool"
        }
      ],
      "stateMutability": "view",
      "type": "function"
    },
    {
      "inputs": [
        {
          "internalType": "address",
          "name": "newOwner",
          "type": "address"
        }
      ],
      "name": "transferOwnership",
      "outputs": [],
      "stateMutability": "nonpayable",
      "type": "function"
    }
  ],
  "bytecode": "0x6080806040523461008457331561006e5760008054336001600160a01b0319821681178355916001600160a01b03909116907f8be0079c531659141344cd1fd0a4f28419497f9722a3daafe3b4186f6b6457e09080a361005e33610089565b506040516115dd908161011b8239f35b631e4fbdf760e01b815260006004820152602490fd5b600080fd5b6001600160a01b031660008181527fa6eef7e35abe7026729641147f7915573c7e97b47efa546f5f6e3230263bcb49602052604081205490919060ff166101165781805260016020526040822081835260205260408220600160ff1982541617905533917f2f8788117e7eff1d82e926ec794901d17c78024a50270940304540a733656f0d8180a4600190565b509056fe6080604090808252600436101561001557600080fd5b60003560e01c90816301ffc9a714610fde57508063248a9ca314610fb05780632f2ff15d14610f8657806336568abe14610f405780634ef1488814610821578063715018a614610ee757806372d017cc14610d3557806389fb2682146103135780638da5cb5b14610d0c5780638e9e62f214610bf457806391d1485414610bab578063923abdb214610b095780639a85150214610a55578063a217fddf14610a39578063a3dc85d814610a09578063a8d93dea14610915578063b1283e7714610865578063c3529f3114610357578063cd9ce90e14610821578063d547741f146107e2578063de9734341461035c578063e8881fe514610357578063e90d4c0614610313578063eb44fdd314610245578063ec97908214610226578063f2fde38b146101955763f5aa29c81461014a57600080fd5b346101905760203660031901126101905761018c906004356000526003602052610179600382600020016114ec565b90519182916020835260208301906111b4565b0390f35b600080fd5b5034610190576020366003190112610190576001600160a01b036004358181169290839003610190576101c661132c565b821561020f5750600054826bffffffffffffffffffffffff60a01b821617600055167f8be0079c531659141344cd1fd0a4f28419497f9722a3daafe3b4186f6b6457e0600080a3005b51631e4fbdf760e01b815260006004820152602490fd5b5034610190576000366003190112610190576020906002549051908152f35b503461019057602036600319011261019057600435600052600360205280600020908154908260018060a01b036002820154166004820154926102fe600584015460ff600686015416906102e96007870154946008880154966102bb60036102b4600160098d01549c016110a3565b9d016114ec565b906102d883519d8e9d8e528d610140908160208201520190611149565b928c01528a820360608c01526111b4565b96608089015260a088015260c0870190611189565b60e08501526101008401526101208301520390f35b503461019057806003193601126101905760209061032f611031565b60043560005260048352816000209060018060a01b0316600052825280600020549051908152f35b611196565b50346101905760803660031901126101905760043567ffffffffffffffff811161019057366023820112156101905780600401359167ffffffffffffffff831161060f57805192601f19926103b9601f8301851660200186611081565b8185523660248383010111610190578160009260246020930183880137850101526024359267ffffffffffffffff8411610190573660238501121561019057836004013567ffffffffffffffff811161060f578060051b948351916104216020880184611081565b82526020820190602482978201019036821161019057602401915b8183106107c25750505080511561078f5780516044351161075757805160011c604435111561071f574260643511156106db5761047a600254611358565b9384600255846000526003602052836000209085825583519067ffffffffffffffff821161060f5781906104b16001850154611047565b601f811161069b575b50602090601f83116001146106305750600091610625575b508160011b916000199060031b1c19161760018201555b6002810180546001600160a01b031916331790558151600382019667ffffffffffffffff821161060f5768010000000000000000821161060f5787548289558083106105f1575b509660005260206000209660005b8281106105d45760208888817fa030b703a4228ba41706a99a9e3f6687fd9d538e9becdf3fbddd7ce2a62654926105b78b6105c48c8c604435600482015560643560058201556006810160ff19815416905560006007820155600060088201556009429101558651938493606085526060850190611149565b908382038a8501526111b4565b604435868301520390a251908152f35b81516001600160a01b0316818a015560209091019060010161053e565b61060990896000528360206000209182019101611367565b38610530565b634e487b7160e01b600052604160045260246000fd5b9050840151386104d2565b91506001840160005260206000209160005b818516811061068357509083809392600195161061066a575b5050811b0160018201556104e9565b86015160001960f88460031b161c19169055388061065b565b9192602060018192868b015181550194019201610642565b6106cb90600186016000526020600020601f850160051c810191602086106106d1575b601f0160051c0190611367565b386104ba565b90915081906106be565b825162461bcd60e51b815260206004820152601760248201527f496e76616c6964207265736f6c7574696f6e2074696d650000000000000000006044820152606490fd5b825162461bcd60e51b81526020600482015260116024820152705468726573686f6c6420746f6f206c6f7760781b6044820152606490fd5b825162461bcd60e51b8152602060048201526011602482015270125b9d985b1a59081d1a1c995cda1bdb19607a1b6044820152606490fd5b825162461bcd60e51b815260206004820152600c60248201526b4e6f2076657269666965727360a01b6044820152606490fd5b82356001600160a01b03811681036101905781526020928301920161043c565b503461019057806003193601126101905761081f9060043561081a6001610807611031565b93836000528160205260002001546111f1565b6112b5565b005b503461019057806003193601126101905760209061083d611031565b60043560005260058352816000209060018060a01b0316600052825280600020549051908152f35b50346101905760203660031901126101905760043560005260036020528060002090815490610896600184016110a3565b9260018060a01b03600282015416906004810154610901600583015460ff6006850154169060078501549360096008870154960154966108e989519b8c9b8c5260208c61012091829101528c0190611149565b988a01526060890152608088015260a0870190611189565b60c085015260e08401526101008301520390f35b5034610190576020366003190112610190576004359081600052600360205280600020600681019081549060ff82169060048210156109f35761095c6001600593146113bb565b01546201518081018091116109dd5742106109a8579160209160027f70eca82567b065893a5e6cc590178b6b320855676b6a9a066625933e0c8ebe589460ff19161790555160028152a2005b825162461bcd60e51b815260206004820152600e60248201526d436f6d6d6974206f6e676f696e6760901b6044820152606490fd5b634e487b7160e01b600052601160045260246000fd5b634e487b7160e01b600052602160045260246000fd5b5034610190578060031936011261019057602090610a30610a28611031565b600435611544565b90519015158152f35b5034610190576000366003190112610190576020905160008152f35b5034610190576020366003190112610190576004359081600052600360205280600020600681019081549060ff82169060048210156109f357610a9a600592156113bb565b01544210610ad9579160209160017f70eca82567b065893a5e6cc590178b6b320855676b6a9a066625933e0c8ebe589460ff19161790555160018152a2005b825162461bcd60e51b81526020600482015260096024820152684e6f7420726561647960b81b6044820152606490fd5b503461019057602036600319011261019057600435908160005260036020528060002060ff6006820154169060048210156109f357610b4c6002600593146113bb565b0154620151808101908181116109dd576202a300018091116109dd574210610b775761081f826113f7565b5162461bcd60e51b815260206004820152600e60248201526d52657665616c206f6e676f696e6760901b6044820152606490fd5b5034610190578060031936011261019057602090610bc7611031565b60043560005260018352816000209060018060a01b0316600052825260ff81600020541690519015158152f35b5034610190578060031936011261019057600435908160005260206003815260ff60068360002001541660048110156109f357600103610cd457610c40610c3b3385611544565b61137e565b8260005260048152816000203360005281528160002054610c9e57826000526004815281600020903360005252602435906000205533907f22d30f6da93667100b64d15e5ea70afec217caeab1008706f57bfa4deed12c63600080a3005b606491519062461bcd60e51b825260048201526011602482015270105b1c9958591e4818dbdb5b5a5d1d1959607a1b6044820152fd5b606491519062461bcd60e51b8252600482015260136024820152724e6f7420696e20636f6d6d697420706861736560681b6044820152fd5b50346101905760003660031901126101905760005490516001600160a01b039091168152602090f35b503461019057606036600319011261019057600435602435918160005260209260038452816000209060ff60068301541660048110156109f357600203610ead57610d83610c3b3386611544565b60018111610e775782518581019082825260443585820152848152606081019181831067ffffffffffffffff84111761060f5782865281519020866000526004885285600020336000528852856000205403610e46575050837f20bd37e360c03c1612e978e27ce7593b27edfa30d1e681ae158a6797f43b197481966004959660005260058152866000203360005281528387600020556008850196610e298854611358565b809855519384523393a301541115610e3d57005b61081f906113f7565b906d125b9d985b1a59081c995d99585b60921b60a46064938962461bcd60e51b855285820152600e60848201520152fd5b825162461bcd60e51b815260048101869052600f60248201526e496e76616c6964206f7574636f6d6560881b6044820152606490fd5b825162461bcd60e51b81526004810186905260136024820152724e6f7420696e2072657665616c20706861736560681b6044820152606490fd5b3461019057600036600319011261019057610f0061132c565b600080546001600160a01b0319811682556001600160a01b03167f8be0079c531659141344cd1fd0a4f28419497f9722a3daafe3b4186f6b6457e08280a3005b5034610190578060031936011261019057610f59611031565b90336001600160a01b03831603610f765761081f826004356112b5565b5163334bd91960e11b8152600490fd5b503461019057806003193601126101905761081f90600435610fab6001610807611031565b611235565b5034610190576020366003190112610190576020906004356000526001825260018160002001549051908152f35b34610190576020366003190112610190576004359063ffffffff60e01b821680920361019057602091637965db0b60e01b8114908115611020575b5015158152f35b6301ffc9a760e01b14905083611019565b602435906001600160a01b038216820361019057565b90600182811c92168015611077575b602083101461106157565b634e487b7160e01b600052602260045260246000fd5b91607f1691611056565b90601f8019910116810190811067ffffffffffffffff82111761060f57604052565b90604051918260008254926110b784611047565b90818452600194858116908160001461112657506001146110e3575b50506110e192500383611081565b565b9093915060005260209081600020936000915b81831061110e5750506110e1935082010138806110d3565b855488840185015294850194879450918301916110f6565b9150506110e194506020925060ff191682840152151560051b82010138806110d3565b919082519283825260005b848110611175575050826000602080949584010152601f8019910116010190565b602081830181015184830182015201611154565b9060048210156109f35752565b34610190576000366003190112610190576020604051620151808152f35b90815180825260208080930193019160005b8281106111d4575050505090565b83516001600160a01b0316855293810193928101926001016111c6565b80600052600160205260406000203360005260205260ff60406000205416156112175750565b6044906040519063e2517d3f60e01b82523360048301526024820152fd5b906000918083526001602052604083209160018060a01b03169182845260205260ff604084205416156000146112b05780835260016020526040832082845260205260408320600160ff198254161790557f2f8788117e7eff1d82e926ec794901d17c78024a50270940304540a733656f0d339380a4600190565b505090565b906000918083526001602052604083209160018060a01b03169182845260205260ff6040842054166000146112b0578083526001602052604083208284526020526040832060ff1981541690557ff6391f5c32d9c69d2a47ea670b442974b53935d1edc7fd64eb21e047a839171b339380a4600190565b6000546001600160a01b0316330361134057565b60405163118cdaa760e01b8152336004820152602490fd5b60001981146109dd5760010190565b818110611372575050565b60008155600101611367565b1561138557565b60405162461bcd60e51b815260206004820152600e60248201526d2737ba1030903b32b934b334b2b960911b6044820152606490fd5b156113c257565b60405162461bcd60e51b815260206004820152600d60248201526c496e76616c696420706861736560981b6044820152606490fd5b9060009180835260206003815260408085209085808197600385019889545b8082106114795750507f6dfc24f0f2fb42e49fb4fa3ffa8abb148cab908a1fb8335b3f128a08b2594af1969798501160001461146f5750600660ff60015b169283600782015501600360ff1982541617905551908152a2565b60ff600691611454565b8a8552878520820154898652600589528686206001600160a01b0390911686528852858520549192909160001981016114c557506114b96114bf91611358565b92611358565b90611416565b929092156114d7575b6114bf90611358565b926114e46114bf91611358565b9390506114ce565b9060405191828154918282526020928383019160005283600020936000905b828210611521575050506110e192500383611081565b85546001600160a01b03168452600195860195889550938101939091019061150b565b6000526020906003825261155e60036040600020016114ec565b9160005b835181101561159e57600581901b84018201516001600160a01b038481169116146115955761159090611358565b611562565b50505050600190565b5050505060009056fea2646970667358221220377d3af73cdcabca53cf57417d033f8d6251cdc9de2a2d215c71e61e782ba04764736f6c63430008140033",
  "linkReferences": {},
  "deployedLinkReferences": {}
}