{"src/SubjectiveMarketFactory.sol":{"SubjectiveMarketFactory":{"abi":[{"inputs":[],"stateMutability":"nonpayable","type":"constructor"},{"inputs":[],"name":"AccessControlBadConfirmation","type":"error"},{"inputs":[{"internalType":"address","name":"account","type":"address"},{"internalType":"bytes32","name":"neededRole","type":"bytes32"}],"name":"AccessControlUnauthorizedAccount","type":"error"},{"inputs":[{"internalType":"address","name":"owner","type":"address"}],"name":"OwnableInvalidOwner","type":"error"},{"inputs":[{"internalType":"address","name":"account","type":"address"}],"name":"OwnableUnauthorizedAccount","type":"error"},{"anonymous":false,"inputs":[{"indexed":true,"internalType":"uint256","name":"marketId","type":"uint256"},{"indexed":true,"internalType":"address","name":"verifier","type":"address"}],"name":"CommitmentSubmitted","type":"event"},{"anonymous":false,"inputs":[{"indexed":true,"internalType":"uint256","name":"marketId","type":"uint256"},{"indexed":false,"internalType":"uint256","name":"outcome","type":"uint256"}],"name":"MarketResolved","type":"event"},{"anonymous":false,"inputs":[{"indexed":true,"internalType":"uint256","name":"marketId","type":"uint256"},{"indexed":true,"internalType":"address","name":"verifier","type":"address"},{"indexed":false,"internalType":"uint256","name":"outcome","type":"uint256"}],"name":"OutcomeRevealed","type":"event"},{"anonymous":false,"inputs":[{"indexed":true,"internalType":"address","name":"previousOwner","type":"address"},{"indexed":true,"internalType":"address","name":"newOwner","type":"address"}],"name":"OwnershipTransferred","type":"event"},{"anonymous":false,"inputs":[{"indexed":true,"internalType":"uint256","name":"marketId","type":"uint256"},{"indexed":false,"internalType":"enum SubjectiveMarketFactory.MarketPhase","name":"newPhase","type":"uint8"}],"name":"PhaseChanged","type":"event"},{"anonymous":false,"inputs":[{"indexed":true,"internalType":"bytes32","name":"role","type":"bytes32"},{"indexed":true,"internalType":"bytes32","name":"previousAdminRole","type":"bytes32"},{"indexed":true,"internalType":"bytes32","name":"newAdminRole","type":"bytes32"}],"name":"RoleAdminChanged","type":"event"},{"anonymous":false,"inputs":[{"indexed":true,"internalType":"bytes32","name":"role","type":"bytes32"},{"indexed":true,"internalType":"address","name":"account","type":"address"},{"indexed":true,"internalType":"address","name":"sender","type":"address"}],"name":"RoleGranted","type":"event"},{"anonymous":false,"inputs":[{"indexed":true,"internalType":"bytes32","name":"role","type":"bytes32"},{"indexed":true,"internalType":"address","name":"account","type":"address"},{"indexed":true,"internalType":"address","name":"sender","type":"address"}],"name":"RoleRevoked","type":"event"},{"anonymous":false,"inputs":[{"indexed":true,"internalType":"uint256","name":"marketId","type":"uint256"},{"indexed":false,"internalType":"string","name":"question","type":"string"},{"indexed":false,"internalType":"address[]","name":"verifiers","type":"address[]"},{"indexed":false,"internalType":"uint256","name":"threshold","type":"uint256"}],"name":"SubjectiveMarketCreated","type":"event"},{"inputs":[],"name":"COMMIT_PERIOD","outputs":[{"internalType":"uint256","name":"","type":"uint256"}],"stateMutability":"view","type":"function"},{"inputs":[],"name":"DEFAULT_ADMIN_ROLE","outputs":[{"internalType":"bytes32","name":"","type":"bytes32"}],"stateMutability":"view","type":"function"},{"inputs":[],"name":"REVEAL_PERIOD","outputs":[{"internalType":"uint256","name":"","type":"uint256"}],"stateMutability":"view","type":"function"},{"inputs":[{"internalType":"uint256","name":"marketId","type":"uint256"},{"internalType":"bytes32","name":"commitment","type":"bytes32"}],"name":"commitOutcome","outputs":[],"stateMutability":"nonpayable","type":"function"},{"inputs":[{"internalType":"uint256","name":"","type":"uint256"},{"internalType":"address","name":"","type":"address"}],"name":"commitments","outputs":[{"internalType":"bytes32","name":"","type":"bytes32"}],"stateMutability":"view","type":"function"},{"inputs":[{"internalType":"string","name":"question","type":"string"},{"internalType":"address[]","name":"verifiers","type":"address[]"},{"internalType":"uint256","name":"threshold","type":"uint256"},{"internalType":"uint256","name":"resolutionTime","type":"uint256"}],"name":"createMarket","outputs":[{"internalType":"uint256","name":"","type":"uint256"}],"stateMutability":"nonpayable","type":"function"},{"inputs":[{"internalType":"uint256","name":"marketId","type":"uint256"}],"name":"forceResolveMarket","outputs":[],"stateMutability":"nonpayable","type":"function"},{"inputs":[{"internalType":"uint256","name":"marketId","type":"uint256"},{"internalType":"address","name":"verifier","type":"address"}],"name":"getCommitment","outputs":[{"internalType":"bytes32","name":"","type":"bytes32"}],"stateMutability":"view","type":"function"},{"inputs":[{"internalType":"uint256","name":"marketId","type":"uint256"}],"name":"getMarket","outputs":[{"internalType":"uint256","name":"id","type":"uint256"},{"internalType":"string","name":"question","type":"string"},{"internalType":"address","name":"creator","type":"address"},{"internalType":"address[]","name":"verifiers","type":"address[]"},{"internalType":"uint256","name":"threshold","type":"uint256"},{"internalType":"uint256","name":"resolutionTime","type":"uint256"},{"internalType":"enum SubjectiveMarketFactory.MarketPhase","name":"phase","type":"uint8"},{"internalType":"uint256","name":"outcome","type":"uint256"},{"internalType":"uint256","name":"revealCount","type":"uint256"},{"internalType":"uint256","name":"createdAt","type":"uint256"}],"stateMutability":"view","type":"function"},{"inputs":[{"internalType":"uint256","name":"marketId","type":"uint256"},{"internalType":"address","name":"verifier","type":"address"}],"name":"getReveal","outputs":[{"internalType":"uint256","name":"","type":"uint256"}],"stateMutability":"view","type":"function"},{"inputs":[{"internalType":"bytes32","name":"role","type":"bytes32"}],"name":"getRoleAdmin","outputs":[{"internalType":"bytes32","name":"","type":"bytes32"}],"stateMutability":"view","type":"function"},{"inputs":[{"internalType":"uint256","name":"marketId","type":"uint256"}],"name":"getVerifiers","outputs":[{"internalType":"address[]","name":"","type":"address[]"}],"stateMutability":"view","type":"function"},{"inputs":[{"internalType":"bytes32","name":"role","type":"bytes32"},{"internalType":"address","name":"account","type":"address"}],"name":"grantRole","outputs":[],"stateMutability":"nonpayable","type":"function"},{"inputs":[{"internalType":"bytes32","name":"role","type":"bytes32"},{"internalType":"address","name":"account","type":"address"}],"name":"hasRole","outputs":[{"internalType":"bool","name":"","type":"bool"}],"stateMutability":"view","type":"function"},{"inputs":[{"internalType":"uint256","name":"marketId","type":"uint256"},{"internalType":"address","name":"account","type":"address"}],"name":"isVerifier","outputs":[{"internalType":"bool","name":"","type":"bool"}],"stateMutability":"view","type":"function"},{"inputs":[],"name":"marketCount","outputs":[{"internalType":"uint256","name":"","type":"uint256"}],"stateMutability":"view","type":"function"},{"inputs":[{"internalType":"uint256","name":"","type":"uint256"}],"name":"markets","outputs":[{"internalType":"uint256","name":"id","type":"uint256"},{"internalType":"string","name":"question","type":"string"},{"internalType":"address","name":"creator","type":"address"},{"internalType":"uint256","name":"threshold","type":"uint256"},{"internalType":"uint256","name":"resolutionTime","type":"uint256"},{"internalType":"enum SubjectiveMarketFactory.MarketPhase","name":"phase","type":"uint8"},{"internalType":"uint256","name":"outcome","type":"uint256"},{"internalType":"uint256","name":"revealCount","type":"uint256"},{"internalType":"uint256","name":"createdAt","type":"uint256"}],"stateMutability":"view","type":"function"},{"inputs":[],"name":"owner","outputs":[{"internalType":"address","name":"","type":"address"}],"stateMutability":"view","type":"function"},{"inputs":[],"name":"renounceOwnership","outputs":[],"stateMutability":"nonpayable","type":"function"},{"inputs":[{"internalType":"bytes32","name":"role","type":"bytes32"},{"internalType":"address","name":"callerConfirmation","type":"address"}],"name":"renounceRole","outputs":[],"stateMutability":"nonpayable","type":"function"},{"inputs":[{"internalType":"uint256","name":"marketId","type":"uint256"},{"internalType":"uint256","name":"outcome","type":"uint256"},{"internalType":"bytes32","name":"salt","type":"bytes32"}],"name":"revealOutcome","outputs":[],"stateMutability":"nonpayable","type":"function"},{"inputs":[{"internalType":"uint256","name":"","type":"uint256"},{"internalType":"address","name":"","type":"address"}],"name":"reveals","outputs":[{"internalType":"uint256","name":"","type":"uint256"}],"stateMutability":"view","type":"function"},{"inputs":[{"internalType":"bytes32","name":"role","type":"bytes32"},{"internalType":"address","name":"account","type":"address"}],"name":"revokeRole","outputs":[],"stateMutability":"nonpayable","type":"function"},{"inputs":[{"internalType":"uint256","name":"marketId","type":"uint256"}],"name":"startCommitPhase","outputs":[],"stateMutability":"nonpayable","type":"function"},{"inputs":[{"internalType":"uint256","name":"marketId","type":"uint256"}],"name":"startRevealPhase","outputs":[],"stateMutability":"nonpayable","type":"function"},{"inputs":[{"internalType":"bytes4","name":"interfaceId","type":"bytes4"}],"name":"supportsInterface","outputs":[{"internalType":"bool","name":"","type":"bool"}],"stateMutability":"view","type":"function"},{"inputs":[{"internalType":"address","name":"newOwner","type":"address"}],"name":"transferOwnership","outputs":[],"stateMutability":"nonpayable","type":"function"}],"evm":{"bytecode":{"linkReferences":{},"object":"6080806040523461008457331561006e5760008054336001600160a01b0319821681178355916001600160a01b03909116907f8be0079c531659141344cd1fd0a4f28419497f9722a3daafe3b4186f6b6457e09080a361005e33610089565b506040516115dd908161011b8239f35b631e4fbdf760e01b815260006004820152602490fd5b600080fd5b6001600160a01b031660008181527fa6eef7e35abe7026729641147f7915573c7e97b47efa546f5f6e3230263bcb49602052604081205490919060ff166101165781805260016020526040822081835260205260408220600160ff1982541617905533917f2f8788117e7eff1d82e926ec794901d17c78024a50270940304540a733656f0d8180a4600190565b509056fe6080604090808252600436101561001557600080fd5b60003560e01c90816301ffc9a714610fde57508063248a9ca314610fb05780632f2ff15d14610f8657806336568abe14610f405780634ef1488814610821578063715018a614610ee757806372d017cc14610d3557806389fb2682146103135780638da5cb5b14610d0c5780638e9e62f214610bf457806391d1485414610bab578063923abdb214610b095780639a85150214610a55578063a217fddf14610a39578063a3dc85d814610a09578063a8d93dea14610915578063b1283e7714610865578063c3529f3114610357578063cd9ce90e14610821578063d547741f146107e2578063de9734341461035c578063e8881fe514610357578063e90d4c0614610313578063eb44fdd314610245578063ec97908214610226578063f2fde38b146101955763f5aa29c81461014a57600080fd5b346101905760203660031901126101905761018c906004356000526003602052610179600382600020016114ec565b90519182916020835260208301906111b4565b0390f35b600080fd5b5034610190576020366003190112610190576001600160a01b036004358181169290839003610190576101c661132c565b821561020f5750600054826bffffffffffffffffffffffff60a01b821617600055167f8be0079c531659141344cd1fd0a4f28419497f9722a3daafe3b4186f6b6457e0600080a3005b51631e4fbdf760e01b815260006004820152602490fd5b5034610190576000366003190112610190576020906002549051908152f35b503461019057602036600319011261019057600435600052600360205280600020908154908260018060a01b036002820154166004820154926102fe600584015460ff600686015416906102e96007870154946008880154966102bb60036102b4600160098d01549c016110a3565b9d016114ec565b906102d883519d8e9d8e528d610140908160208201520190611149565b928c01528a820360608c01526111b4565b96608089015260a088015260c0870190611189565b60e08501526101008401526101208301520390f35b503461019057806003193601126101905760209061032f611031565b60043560005260048352816000209060018060a01b0316600052825280600020549051908152f35b611196565b50346101905760803660031901126101905760043567ffffffffffffffff811161019057366023820112156101905780600401359167ffffffffffffffff831161060f57805192601f19926103b9601f8301851660200186611081565b8185523660248383010111610190578160009260246020930183880137850101526024359267ffffffffffffffff8411610190573660238501121561019057836004013567ffffffffffffffff811161060f578060051b948351916104216020880184611081565b82526020820190602482978201019036821161019057602401915b8183106107c25750505080511561078f5780516044351161075757805160011c604435111561071f574260643511156106db5761047a600254611358565b9384600255846000526003602052836000209085825583519067ffffffffffffffff821161060f5781906104b16001850154611047565b601f811161069b575b50602090601f83116001146106305750600091610625575b508160011b916000199060031b1c19161760018201555b6002810180546001600160a01b031916331790558151600382019667ffffffffffffffff821161060f5768010000000000000000821161060f5787548289558083106105f1575b509660005260206000209660005b8281106105d45760208888817fa030b703a4228ba41706a99a9e3f6687fd9d538e9becdf3fbddd7ce2a62654926105b78b6105c48c8c604435600482015560643560058201556006810160ff19815416905560006007820155600060088201556009429101558651938493606085526060850190611149565b908382038a8501526111b4565b604435868301520390a251908152f35b81516001600160a01b0316818a015560209091019060010161053e565b61060990896000528360206000209182019101611367565b38610530565b634e487b7160e01b600052604160045260246000fd5b9050840151386104d2565b91506001840160005260206000209160005b818516811061068357509083809392600195161061066a575b5050811b0160018201556104e9565b86015160001960f88460031b161c19169055388061065b565b9192602060018192868b015181550194019201610642565b6106cb90600186016000526020600020601f850160051c810191602086106106d1575b601f0160051c0190611367565b386104ba565b90915081906106be565b825162461bcd60e51b815260206004820152601760248201527f496e76616c6964207265736f6c7574696f6e2074696d650000000000000000006044820152606490fd5b825162461bcd60e51b81526020600482015260116024820152705468726573686f6c6420746f6f206c6f7760781b6044820152606490fd5b825162461bcd60e51b8152602060048201526011602482015270125b9d985b1a59081d1a1c995cda1bdb19607a1b6044820152606490fd5b825162461bcd60e51b815260206004820152600c60248201526b4e6f2076657269666965727360a01b6044820152606490fd5b82356001600160a01b03811681036101905781526020928301920161043c565b503461019057806003193601126101905761081f9060043561081a6001610807611031565b93836000528160205260002001546111f1565b6112b5565b005b503461019057806003193601126101905760209061083d611031565b60043560005260058352816000209060018060a01b0316600052825280600020549051908152f35b50346101905760203660031901126101905760043560005260036020528060002090815490610896600184016110a3565b9260018060a01b03600282015416906004810154610901600583015460ff6006850154169060078501549360096008870154960154966108e989519b8c9b8c5260208c61012091829101528c0190611149565b988a01526060890152608088015260a0870190611189565b60c085015260e08401526101008301520390f35b5034610190576020366003190112610190576004359081600052600360205280600020600681019081549060ff82169060048210156109f35761095c6001600593146113bb565b01546201518081018091116109dd5742106109a8579160209160027f70eca82567b065893a5e6cc590178b6b320855676b6a9a066625933e0c8ebe589460ff19161790555160028152a2005b825162461bcd60e51b815260206004820152600e60248201526d436f6d6d6974206f6e676f696e6760901b6044820152606490fd5b634e487b7160e01b600052601160045260246000fd5b634e487b7160e01b600052602160045260246000fd5b5034610190578060031936011261019057602090610a30610a28611031565b600435611544565b90519015158152f35b5034610190576000366003190112610190576020905160008152f35b5034610190576020366003190112610190576004359081600052600360205280600020600681019081549060ff82169060048210156109f357610a9a600592156113bb565b01544210610ad9579160209160017f70eca82567b065893a5e6cc590178b6b320855676b6a9a066625933e0c8ebe589460ff19161790555160018152a2005b825162461bcd60e51b81526020600482015260096024820152684e6f7420726561647960b81b6044820152606490fd5b503461019057602036600319011261019057600435908160005260036020528060002060ff6006820154169060048210156109f357610b4c6002600593146113bb565b0154620151808101908181116109dd576202a300018091116109dd574210610b775761081f826113f7565b5162461bcd60e51b815260206004820152600e60248201526d52657665616c206f6e676f696e6760901b6044820152606490fd5b5034610190578060031936011261019057602090610bc7611031565b60043560005260018352816000209060018060a01b0316600052825260ff81600020541690519015158152f35b5034610190578060031936011261019057600435908160005260206003815260ff60068360002001541660048110156109f357600103610cd457610c40610c3b3385611544565b61137e565b8260005260048152816000203360005281528160002054610c9e57826000526004815281600020903360005252602435906000205533907f22d30f6da93667100b64d15e5ea70afec217caeab1008706f57bfa4deed12c63600080a3005b606491519062461bcd60e51b825260048201526011602482015270105b1c9958591e4818dbdb5b5a5d1d1959607a1b6044820152fd5b606491519062461bcd60e51b8252600482015260136024820152724e6f7420696e20636f6d6d697420706861736560681b6044820152fd5b50346101905760003660031901126101905760005490516001600160a01b039091168152602090f35b503461019057606036600319011261019057600435602435918160005260209260038452816000209060ff60068301541660048110156109f357600203610ead57610d83610c3b3386611544565b60018111610e775782518581019082825260443585820152848152606081019181831067ffffffffffffffff84111761060f5782865281519020866000526004885285600020336000528852856000205403610e46575050837f20bd37e360c03c1612e978e27ce7593b27edfa30d1e681ae158a6797f43b197481966004959660005260058152866000203360005281528387600020556008850196610e298854611358565b809855519384523393a301541115610e3d57005b61081f906113f7565b906d125b9d985b1a59081c995d99585b60921b60a46064938962461bcd60e51b855285820152600e60848201520152fd5b825162461bcd60e51b815260048101869052600f60248201526e496e76616c6964206f7574636f6d6560881b6044820152606490fd5b825162461bcd60e51b81526004810186905260136024820152724e6f7420696e2072657665616c20706861736560681b6044820152606490fd5b3461019057600036600319011261019057610f0061132c565b600080546001600160a01b0319811682556001600160a01b03167f8be0079c531659141344cd1fd0a4f28419497f9722a3daafe3b4186f6b6457e08280a3005b5034610190578060031936011261019057610f59611031565b90336001600160a01b03831603610f765761081f826004356112b5565b5163334bd91960e11b8152600490fd5b503461019057806003193601126101905761081f90600435610fab6001610807611031565b611235565b5034610190576020366003190112610190576020906004356000526001825260018160002001549051908152f35b34610190576020366003190112610190576004359063ffffffff60e01b821680920361019057602091637965db0b60e01b8114908115611020575b5015158152f35b6301ffc9a760e01b14905083611019565b602435906001600160a01b038216820361019057565b90600182811c92168015611077575b602083101461106157565b634e487b7160e01b600052602260045260246000fd5b91607f1691611056565b90601f8019910116810190811067ffffffffffffffff82111761060f57604052565b90604051918260008254926110b784611047565b90818452600194858116908160001461112657506001146110e3575b50506110e192500383611081565b565b9093915060005260209081600020936000915b81831061110e5750506110e1935082010138806110d3565b855488840185015294850194879450918301916110f6565b9150506110e194506020925060ff191682840152151560051b82010138806110d3565b919082519283825260005b848110611175575050826000602080949584010152601f8019910116010190565b602081830181015184830182015201611154565b9060048210156109f35752565b34610190576000366003190112610190576020604051620151808152f35b90815180825260208080930193019160005b8281106111d4575050505090565b83516001600160a01b0316855293810193928101926001016111c6565b80600052600160205260406000203360005260205260ff60406000205416156112175750565b6044906040519063e2517d3f60e01b82523360048301526024820152fd5b906000918083526001602052604083209160018060a01b03169182845260205260ff604084205416156000146112b05780835260016020526040832082845260205260408320600160ff198254161790557f2f8788117e7eff1d82e926ec794901d17c78024a50270940304540a733656f0d339380a4600190565b505090565b906000918083526001602052604083209160018060a01b03169182845260205260ff6040842054166000146112b0578083526001602052604083208284526020526040832060ff1981541690557ff6391f5c32d9c69d2a47ea670b442974b53935d1edc7fd64eb21e047a839171b339380a4600190565b6000546001600160a01b0316330361134057565b60405163118cdaa760e01b8152336004820152602490fd5b60001981146109dd5760010190565b818110611372575050565b60008155600101611367565b1561138557565b60405162461bcd60e51b815260206004820152600e60248201526d2737ba1030903b32b934b334b2b960911b6044820152606490fd5b156113c257565b60405162461bcd60e51b815260206004820152600d60248201526c496e76616c696420706861736560981b6044820152606490fd5b9060009180835260206003815260408085209085808197600385019889545b8082106114795750507f6dfc24f0f2fb42e49fb4fa3ffa8abb148cab908a1fb8335b3f128a08b2594af1969798501160001461146f5750600660ff60015b169283600782015501600360ff1982541617905551908152a2565b60ff600691611454565b8a8552878520820154898652600589528686206001600160a01b0390911686528852858520549192909160001981016114c557506114b96114bf91611358565b92611358565b90611416565b929092156114d7575b6114bf90611358565b926114e46114bf91611358565b9390506114ce565b9060405191828154918282526020928383019160005283600020936000905b828210611521575050506110e192500383611081565b85546001600160a01b03168452600195860195889550938101939091019061150b565b6000526020906003825261155e60036040600020016114ec565b9160005b835181101561159e57600581901b84018201516001600160a01b038481169116146115955761159090611358565b611562565b50505050600190565b5050505060009056fea2646970667358221220377d3af73cdcabca53cf57417d033f8d6251cdc9de2a2d215c71e61e782ba04764736f6c63430008140033","opcodes":"PUSH1 0x80 DUP1 PUSH1 0x40 MSTORE CALLVALUE PUSH2 0x84 JUMPI CALLER ISZERO PUSH2 0x6E JUMPI PUSH1 0x0 DUP1 SLOAD CALLER PUSH1 0x1 PUSH1 0x1 PUSH1 0xA0 SHL SUB NOT DUP3 AND DUP2 OR DUP4 SSTORE SWAP2 PUSH1 0x1 PUSH1 0x1 PUSH1 0xA0 SHL SUB SWAP1 SWAP2 AND SWAP1 PUSH32 0x8BE0079C531659141344CD1FD0A4F28419497F9722A3DAAFE3B4186F6B6457E0 SWAP1 DUP1 LOG3 PUSH2 0x5E CALLER PUSH2 0x89 JUMP JUMPDEST POP PUSH1 0x40 MLOAD PUSH2 0x15DD SWAP1 DUP2 PUSH2 0x11B DUP3 CODECOPY RETURN JUMPDEST PUSH4 0x1E4FBDF7 PUSH1 0xE0 SHL DUP2 MSTORE PUSH1 0x0 PUSH1 0x4 DUP3 ADD MSTORE PUSH1 0x24 SWAP1 REVERT JUMPDEST PUSH1 0x0 DUP1 REVERT JUMPDEST PUSH1 0x1 PUSH1 0x1 PUSH1 0xA0 SHL SUB AND PUSH1 0x0 DUP2 DUP2 MSTORE PUSH32 0xA6EEF7E35ABE7026729641147F7915573C7E97B47EFA546F5F6E3230263BCB49 PUSH1 0x20 MSTORE PUSH1 0x40 DUP2 KECCAK256 SLOAD SWAP1 SWAP2 SWAP1 PUSH1 0xFF AND PUSH2 0x116 JUMPI DUP2 DUP1 MSTORE PUSH1 0x1 PUSH1 0x20 MSTORE PUSH1 0x40 DUP3 KECCAK256 DUP2 DUP4 MSTORE PUSH1 0x20 MSTORE PUSH1 0x40 DUP3 KECCAK256 PUSH1 0x1 PUSH1 0xFF NOT DUP3 SLOAD AND OR SWAP1 SSTORE CALLER SWAP2 PUSH32 0x2F8788117E7EFF1D82E926EC794901D17C78024A50270940304540A733656F0D DUP2 DUP1 LOG4 PUSH1 0x1 SWAP1 JUMP JUMPDEST POP SWAP1 JUMP INVALID PUSH1 0x80 PUSH1 0x40 SWAP1 DUP1 DUP3 MSTORE PUSH1 0x4 CALLDATASIZE LT ISZERO PUSH2 0x15 JUMPI PUSH1 0x0 DUP1 REVERT JUMPDEST PUSH1 0x0 CALLDATALOAD PUSH1 0xE0 SHR SWAP1 DUP2 PUSH4 0x1FFC9A7 EQ PUSH2 0xFDE JUMPI POP DUP1 PUSH4 0x248A9CA3 EQ PUSH2 0xFB0 JUMPI DUP1 PUSH4 0x2F2FF15D EQ PUSH2 0xF86 JUMPI DUP1 PUSH4 0x36568ABE EQ PUSH2 0xF40 JUMPI DUP1 PUSH4 0x4EF14888 EQ PUSH2 0x821 JUMPI DUP1 PUSH4 0x715018A6 EQ PUSH2 0xEE7 JUMPI DUP1 PUSH4 0x72D017CC EQ PUSH2 0xD35 JUMPI DUP1 PUSH4 0x89FB2682 EQ PUSH2 0x313 JUMPI DUP1 PUSH4 0x8DA5CB5B EQ PUSH2 0xD0C JUMPI DUP1 PUSH4 0x8E9E62F2 EQ PUSH2 0xBF4 JUMPI DUP1 PUSH4 0x91D14854 EQ PUSH2 0xBAB JUMPI DUP1 PUSH4 0x923ABDB2 EQ PUSH2 0xB09 JUMPI DUP1 PUSH4 0x9A851502 EQ PUSH2 0xA55 JUMPI DUP1 PUSH4 0xA217FDDF EQ PUSH2 0xA39 JUMPI DUP1 PUSH4 0xA3DC85D8 EQ PUSH2 0xA09 JUMPI DUP1 PUSH4 0xA8D93DEA EQ PUSH2 0x915 JUMPI DUP1 PUSH4 0xB1283E77 EQ PUSH2 0x865 JUMPI DUP1 PUSH4 0xC3529F31 EQ PUSH2 0x357 JUMPI DUP1 PUSH4 0xCD9CE90E EQ PUSH2 0x821 JUMPI DUP1 PUSH4 0xD547741F EQ PUSH2 0x7E2 JUMPI DUP1 PUSH4 0xDE973434 EQ PUSH2 0x35C JUMPI DUP1 PUSH4 0xE8881FE5 EQ PUSH2 0x357 JUMPI DUP1 PUSH4 0xE90D4C06 EQ PUSH2 0x313 JUMPI DUP1 PUSH4 0xEB44FDD3 EQ PUSH2 0x245 JUMPI DUP1 PUSH4 0xEC979082 EQ PUSH2 0x226 JUMPI DUP1 PUSH4 0xF2FDE38B EQ PUSH2 0x195 JUMPI PUSH4 0xF5AA29C8 EQ PUSH2 0x14A JUMPI PUSH1 0x0 DUP1 REVERT JUMPDEST CALLVALUE PUSH2 0x190 JUMPI PUSH1 0x20 CALLDATASIZE PUSH1 0x3 NOT ADD SLT PUSH2 0x190 JUMPI PUSH2 0x18C SWAP1 PUSH1 0x4 CALLDATALOAD PUSH1 0x0 MSTORE PUSH1 0x3 PUSH1 0x20 MSTORE PUSH2 0x179 PUSH1 0x3 DUP3 PUSH1 0x0 KECCAK256 ADD PUSH2 0x14EC JUMP JUMPDEST SWAP1 MLOAD SWAP2 DUP3 SWAP2 PUSH1 0x20 DUP4 MSTORE PUSH1 0x20 DUP4 ADD SWAP1 PUSH2 0x11B4 JUMP JUMPDEST SUB SWAP1 RETURN JUMPDEST PUSH1 0x0 DUP1 REVERT JUMPDEST POP CALLVALUE PUSH2 0x190 JUMPI PUSH1 0x20 CALLDATASIZE PUSH1 0x3 NOT ADD SLT PUSH2 0x190 JUMPI PUSH1 0x1 PUSH1 0x1 PUSH1 0xA0 SHL SUB PUSH1 0x4 CALLDATALOAD DUP2 DUP2 AND SWAP3 SWAP1 DUP4 SWAP1 SUB PUSH2 0x190 JUMPI PUSH2 0x1C6 PUSH2 0x132C JUMP JUMPDEST DUP3 ISZERO PUSH2 0x20F JUMPI POP PUSH1 0x0 SLOAD DUP3 PUSH12 0xFFFFFFFFFFFFFFFFFFFFFFFF PUSH1 0xA0 SHL DUP3 AND OR PUSH1 0x0 SSTORE AND PUSH32 0x8BE0079C531659141344CD1FD0A4F28419497F9722A3DAAFE3B4186F6B6457E0 PUSH1 0x0 DUP1 LOG3 STOP JUMPDEST MLOAD PUSH4 0x1E4FBDF7 PUSH1 0xE0 SHL DUP2 MSTORE PUSH1 0x0 PUSH1 0x4 DUP3 ADD MSTORE PUSH1 0x24 SWAP1 REVERT JUMPDEST POP CALLVALUE PUSH2 0x190 JUMPI PUSH1 0x0 CALLDATASIZE PUSH1 0x3 NOT ADD SLT PUSH2 0x190 JUMPI PUSH1 0x20 SWAP1 PUSH1 0x2 SLOAD SWAP1 MLOAD SWAP1 DUP2 MSTORE RETURN JUMPDEST POP CALLVALUE PUSH2 0x190 JUMPI PUSH1 0x20 CALLDATASIZE PUSH1 0x3 NOT ADD SLT PUSH2 0x190 JUMPI PUSH1 0x4 CALLDATALOAD PUSH1 0x0 MSTORE PUSH1 0x3 PUSH1 0x20 MSTORE DUP1 PUSH1 0x0 KECCAK256 SWAP1 DUP2 SLOAD SWAP1 DUP3 PUSH1 0x1 DUP1 PUSH1 0xA0 SHL SUB PUSH1 0x2 DUP3 ADD SLOAD AND PUSH1 0x4 DUP3 ADD SLOAD SWAP3 PUSH2 0x2FE PUSH1 0x5 DUP5 ADD SLOAD PUSH1 0xFF PUSH1 0x6 DUP7 ADD SLOAD AND SWAP1 PUSH2 0x2E9 PUSH1 0x7 DUP8 ADD SLOAD SWAP5 PUSH1 0x8 DUP9 ADD SLOAD SWAP7 PUSH2 0x2BB PUSH1 0x3 PUSH2 0x2B4 PUSH1 0x1 PUSH1 0x9 DUP14 ADD SLOAD SWAP13 ADD PUSH2 0x10A3 JUMP JUMPDEST SWAP14 ADD PUSH2 0x14EC JUMP JUMPDEST SWAP1 PUSH2 0x2D8 DUP4 MLOAD SWAP14 DUP15 SWAP14 DUP15 MSTORE DUP14 PUSH2 0x140 SWAP1 DUP2 PUSH1 0x20 DUP3 ADD MSTORE ADD SWAP1 PUSH2 0x1149 JUMP JUMPDEST SWAP3 DUP13 ADD MSTORE DUP11 DUP3 SUB PUSH1 0x60 DUP13 ADD MSTORE PUSH2 0x11B4 JUMP JUMPDEST SWAP7 PUSH1 0x80 DUP10 ADD MSTORE PUSH1 0xA0 DUP9 ADD MSTORE PUSH1 0xC0 DUP8 ADD SWAP1 PUSH2 0x1189 JUMP JUMPDEST PUSH1 0xE0 DUP6 ADD MSTORE PUSH2 0x100 DUP5 ADD MSTORE PUSH2 0x120 DUP4 ADD MSTORE SUB SWAP1 RETURN JUMPDEST POP CALLVALUE PUSH2 0x190 JUMPI DUP1 PUSH1 0x3 NOT CALLDATASIZE ADD SLT PUSH2 0x190 JUMPI PUSH1 0x20 SWAP1 PUSH2 0x32F PUSH2 0x1031 JUMP JUMPDEST PUSH1 0x4 CALLDATALOAD PUSH1 0x0 MSTORE PUSH1 0x4 DUP4 MSTORE DUP2 PUSH1 0x0 KECCAK256 SWAP1 PUSH1 0x1 DUP1 PUSH1 0xA0 SHL SUB AND PUSH1 0x0 MSTORE DUP3 MSTORE DUP1 PUSH1 0x0 KECCAK256 SLOAD SWAP1 MLOAD SWAP1 DUP2 MSTORE RETURN JUMPDEST PUSH2 0x1196 JUMP JUMPDEST POP CALLVALUE PUSH2 0x190 JUMPI PUSH1 0x80 CALLDATASIZE PUSH1 0x3 NOT ADD SLT PUSH2 0x190 JUMPI PUSH1 0x4 CALLDATALOAD PUSH8 0xFFFFFFFFFFFFFFFF DUP2 GT PUSH2 0x190 JUMPI CALLDATASIZE PUSH1 0x23 DUP3 ADD SLT ISZERO PUSH2 0x190 JUMPI DUP1 PUSH1 0x4 ADD CALLDATALOAD SWAP2 PUSH8 0xFFFFFFFFFFFFFFFF DUP4 GT PUSH2 0x60F JUMPI DUP1 MLOAD SWAP3 PUSH1 0x1F NOT SWAP3 PUSH2 0x3B9 PUSH1 0x1F DUP4 ADD DUP6 AND PUSH1 0x20 ADD DUP7 PUSH2 0x1081 JUMP JUMPDEST DUP2 DUP6 MSTORE CALLDATASIZE PUSH1 0x24 DUP4 DUP4 ADD ADD GT PUSH2 0x190 JUMPI DUP2 PUSH1 0x0 SWAP3 PUSH1 0x24 PUSH1 0x20 SWAP4 ADD DUP4 DUP9 ADD CALLDATACOPY DUP6 ADD ADD MSTORE PUSH1 0x24 CALLDATALOAD SWAP3 PUSH8 0xFFFFFFFFFFFFFFFF DUP5 GT PUSH2 0x190 JUMPI CALLDATASIZE PUSH1 0x23 DUP6 ADD SLT ISZERO PUSH2 0x190 JUMPI DUP4 PUSH1 0x4 ADD CALLDATALOAD PUSH8 0xFFFFFFFFFFFFFFFF DUP2 GT PUSH2 0x60F JUMPI DUP1 PUSH1 0x5 SHL SWAP5 DUP4 MLOAD SWAP2 PUSH2 0x421 PUSH1 0x20 DUP9 ADD DUP5 PUSH2 0x1081 JUMP JUMPDEST DUP3 MSTORE PUSH1 0x20 DUP3 ADD SWAP1 PUSH1 0x24 DUP3 SWAP8 DUP3 ADD ADD SWAP1 CALLDATASIZE DUP3 GT PUSH2 0x190 JUMPI PUSH1 0x24 ADD SWAP2 JUMPDEST DUP2 DUP4 LT PUSH2 0x7C2 JUMPI POP POP POP DUP1 MLOAD ISZERO PUSH2 0x78F JUMPI DUP1 MLOAD PUSH1 0x44 CALLDATALOAD GT PUSH2 0x757 JUMPI DUP1 MLOAD PUSH1 0x1 SHR PUSH1 0x44 CALLDATALOAD GT ISZERO PUSH2 0x71F JUMPI TIMESTAMP PUSH1 0x64 CALLDATALOAD GT ISZERO PUSH2 0x6DB JUMPI PUSH2 0x47A PUSH1 0x2 SLOAD PUSH2 0x1358 JUMP JUMPDEST SWAP4 DUP5 PUSH1 0x2 SSTORE DUP5 PUSH1 0x0 MSTORE PUSH1 0x3 PUSH1 0x20 MSTORE DUP4 PUSH1 0x0 KECCAK256 SWAP1 DUP6 DUP3 SSTORE DUP4 MLOAD SWAP1 PUSH8 0xFFFFFFFFFFFFFFFF DUP3 GT PUSH2 0x60F JUMPI DUP2 SWAP1 PUSH2 0x4B1 PUSH1 0x1 DUP6 ADD SLOAD PUSH2 0x1047 JUMP JUMPDEST PUSH1 0x1F DUP2 GT PUSH2 0x69B JUMPI JUMPDEST POP PUSH1 0x20 SWAP1 PUSH1 0x1F DUP4 GT PUSH1 0x1 EQ PUSH2 0x630 JUMPI POP PUSH1 0x0 SWAP2 PUSH2 0x625 JUMPI JUMPDEST POP DUP2 PUSH1 0x1 SHL SWAP2 PUSH1 0x0 NOT SWAP1 PUSH1 0x3 SHL SHR NOT AND OR PUSH1 0x1 DUP3 ADD SSTORE JUMPDEST PUSH1 0x2 DUP2 ADD DUP1 SLOAD PUSH1 0x1 PUSH1 0x1 PUSH1 0xA0 SHL SUB NOT AND CALLER OR SWAP1 SSTORE DUP2 MLOAD PUSH1 0x3 DUP3 ADD SWAP7 PUSH8 0xFFFFFFFFFFFFFFFF DUP3 GT PUSH2 0x60F JUMPI PUSH9 0x10000000000000000 DUP3 GT PUSH2 0x60F JUMPI DUP8 SLOAD DUP3 DUP10 SSTORE DUP1 DUP4 LT PUSH2 0x5F1 JUMPI JUMPDEST POP SWAP7 PUSH1 0x0 MSTORE PUSH1 0x20 PUSH1 0x0 KECCAK256 SWAP7 PUSH1 0x0 JUMPDEST DUP3 DUP2 LT PUSH2 0x5D4 JUMPI PUSH1 0x20 DUP9 DUP9 DUP2 PUSH32 0xA030B703A4228BA41706A99A9E3F6687FD9D538E9BECDF3FBDDD7CE2A6265492 PUSH2 0x5B7 DUP12 PUSH2 0x5C4 DUP13 DUP13 PUSH1 0x44 CALLDATALOAD PUSH1 0x4 DUP3 ADD SSTORE PUSH1 0x64 CALLDATALOAD PUSH1 0x5 DUP3 ADD SSTORE PUSH1 0x6 DUP2 ADD PUSH1 0xFF NOT DUP2 SLOAD AND SWAP1 SSTORE PUSH1 0x0 PUSH1 0x7 DUP3 ADD SSTORE PUSH1 0x0 PUSH1 0x8 DUP3 ADD SSTORE PUSH1 0x9 TIMESTAMP SWAP2 ADD SSTORE DUP7 MLOAD SWAP4 DUP5 SWAP4 PUSH1 0x60 DUP6 MSTORE PUSH1 0x60 DUP6 ADD SWAP1 PUSH2 0x1149 JUMP JUMPDEST SWAP1 DUP4 DUP3 SUB DUP11 DUP6 ADD MSTORE PUSH2 0x11B4 JUMP JUMPDEST PUSH1 0x44 CALLDATALOAD DUP7 DUP4 ADD MSTORE SUB SWAP1 LOG2 MLOAD SWAP1 DUP2 MSTORE RETURN JUMPDEST DUP2 MLOAD PUSH1 0x1 PUSH1 0x1 PUSH1 0xA0 SHL SUB AND DUP2 DUP11 ADD SSTORE PUSH1 0x20 SWAP1 SWAP2 ADD SWAP1 PUSH1 0x1 ADD PUSH2 0x53E JUMP JUMPDEST PUSH2 0x609 SWAP1 DUP10 PUSH1 0x0 MSTORE DUP4 PUSH1 0x20 PUSH1 0x0 KECCAK256 SWAP2 DUP3 ADD SWAP2 ADD PUSH2 0x1367 JUMP JUMPDEST CODESIZE PUSH2 0x530 JUMP JUMPDEST PUSH4 0x4E487B71 PUSH1 0xE0 SHL PUSH1 0x0 MSTORE PUSH1 0x41 PUSH1 0x4 MSTORE PUSH1 0x24 PUSH1 0x0 REVERT JUMPDEST SWAP1 POP DUP5 ADD MLOAD CODESIZE PUSH2 0x4D2 JUMP JUMPDEST SWAP2 POP PUSH1 0x1 DUP5 ADD PUSH1 0x0 MSTORE PUSH1 0x20 PUSH1 0x0 KECCAK256 SWAP2 PUSH1 0x0 JUMPDEST DUP2 DUP6 AND DUP2 LT PUSH2 0x683 JUMPI POP SWAP1 DUP4 DUP1 SWAP4 SWAP3 PUSH1 0x1 SWAP6 AND LT PUSH2 0x66A JUMPI JUMPDEST POP POP DUP2 SHL ADD PUSH1 0x1 DUP3 ADD SSTORE PUSH2 0x4E9 JUMP JUMPDEST DUP7 ADD MLOAD PUSH1 0x0 NOT PUSH1 0xF8 DUP5 PUSH1 0x3 SHL AND SHR NOT AND SWAP1 SSTORE CODESIZE DUP1 PUSH2 0x65B JUMP JUMPDEST SWAP2 SWAP3 PUSH1 0x20 PUSH1 0x1 DUP2 SWAP3 DUP7 DUP12 ADD MLOAD DUP2 SSTORE ADD SWAP5 ADD SWAP3 ADD PUSH2 0x642 JUMP JUMPDEST PUSH2 0x6CB SWAP1 PUSH1 0x1 DUP7 ADD PUSH1 0x0 MSTORE PUSH1 0x20 PUSH1 0x0 KECCAK256 PUSH1 0x1F DUP6 ADD PUSH1 0x5 SHR DUP2 ADD SWAP2 PUSH1 0x20 DUP7 LT PUSH2 0x6D1 JUMPI JUMPDEST PUSH1 0x1F ADD PUSH1 0x5 SHR ADD SWAP1 PUSH2 0x1367 JUMP JUMPDEST CODESIZE PUSH2 0x4BA JUMP JUMPDEST SWAP1 SWAP2 POP DUP2 SWAP1 PUSH2 0x6BE JUMP JUMPDEST DUP3 MLOAD PUSH3 0x461BCD PUSH1 0xE5 SHL DUP2 MSTORE PUSH1 0x20 PUSH1 0x4 DUP3 ADD MSTORE PUSH1 0x17 PUSH1 0x24 DUP3 ADD MSTORE PUSH32 0x496E76616C6964207265736F6C7574696F6E2074696D65000000000000000000 PUSH1 0x44 DUP3 ADD MSTORE PUSH1 0x64 SWAP1 REVERT JUMPDEST DUP3 MLOAD PUSH3 0x461BCD PUSH1 0xE5 SHL DUP2 MSTORE PUSH1 0x20 PUSH1 0x4 DUP3 ADD MSTORE PUSH1 0x11 PUSH1 0x24 DUP3 ADD MSTORE PUSH17 0x5468726573686F6C6420746F6F206C6F77 PUSH1 0x78 SHL PUSH1 0x44 DUP3 ADD MSTORE PUSH1 0x64 SWAP1 REVERT JUMPDEST DUP3 MLOAD PUSH3 0x461BCD PUSH1 0xE5 SHL DUP2 MSTORE PUSH1 0x20 PUSH1 0x4 DUP3 ADD MSTORE PUSH1 0x11 PUSH1 0x24 DUP3 ADD MSTORE PUSH17 0x125B9D985B1A59081D1A1C995CDA1BDB19 PUSH1 0x7A SHL PUSH1 0x44 DUP3 ADD MSTORE PUSH1 0x64 SWAP1 REVERT JUMPDEST DUP3 MLOAD PUSH3 0x461BCD PUSH1 0xE5 SHL DUP2 MSTORE PUSH1 0x20 PUSH1 0x4 DUP3 ADD MSTORE PUSH1 0xC PUSH1 0x24 DUP3 ADD MSTORE PUSH12 0x4E6F20766572696669657273 PUSH1 0xA0 SHL PUSH1 0x44 DUP3 ADD MSTORE PUSH1 0x64 SWAP1 REVERT JUMPDEST DUP3 CALLDATALOAD PUSH1 0x1 PUSH1 0x1 PUSH1 0xA0 SHL SUB DUP2 AND DUP2 SUB PUSH2 0x190 JUMPI DUP2 MSTORE PUSH1 0x20 SWAP3 DUP4 ADD SWAP3 ADD PUSH2 0x43C JUMP JUMPDEST POP CALLVALUE PUSH2 0x190 JUMPI DUP1 PUSH1 0x3 NOT CALLDATASIZE ADD SLT PUSH2 0x190 JUMPI PUSH2 0x81F SWAP1 PUSH1 0x4 CALLDATALOAD PUSH2 0x81A PUSH1 0x1 PUSH2 0x807 PUSH2 0x1031 JUMP JUMPDEST SWAP4 DUP4 PUSH1 0x0 MSTORE DUP2 PUSH1 0x20 MSTORE PUSH1 0x0 KECCAK256 ADD SLOAD PUSH2 0x11F1 JUMP JUMPDEST PUSH2 0x12B5 JUMP JUMPDEST STOP JUMPDEST POP CALLVALUE PUSH2 0x190 JUMPI DUP1 PUSH1 0x3 NOT CALLDATASIZE ADD SLT PUSH2 0x190 JUMPI PUSH1 0x20 SWAP1 PUSH2 0x83D PUSH2 0x1031 JUMP JUMPDEST PUSH1 0x4 CALLDATALOAD PUSH1 0x0 MSTORE PUSH1 0x5 DUP4 MSTORE DUP2 PUSH1 0x0 KECCAK256 SWAP1 PUSH1 0x1 DUP1 PUSH1 0xA0 SHL SUB AND PUSH1 0x0 MSTORE DUP3 MSTORE DUP1 PUSH1 0x0 KECCAK256 SLOAD SWAP1 MLOAD SWAP1 DUP2 MSTORE RETURN JUMPDEST POP CALLVALUE PUSH2 0x190 JUMPI PUSH1 0x20 CALLDATASIZE PUSH1 0x3 NOT ADD SLT PUSH2 0x190 JUMPI PUSH1 0x4 CALLDATALOAD PUSH1 0x0 MSTORE PUSH1 0x3 PUSH1 0x20 MSTORE DUP1 PUSH1 0x0 KECCAK256 SWAP1 DUP2 SLOAD SWAP1 PUSH2 0x896 PUSH1 0x1 DUP5 ADD PUSH2 0x10A3 JUMP JUMPDEST SWAP3 PUSH1 0x1 DUP1 PUSH1 0xA0 SHL SUB PUSH1 0x2 DUP3 ADD SLOAD AND SWAP1 PUSH1 0x4 DUP2 ADD SLOAD PUSH2 0x901 PUSH1 0x5 DUP4 ADD SLOAD PUSH1 0xFF PUSH1 0x6 DUP6 ADD SLOAD AND SWAP1 PUSH1 0x7 DUP6 ADD SLOAD SWAP4 PUSH1 0x9 PUSH1 0x8 DUP8 ADD SLOAD SWAP7 ADD SLOAD SWAP7 PUSH2 0x8E9 DUP10 MLOAD SWAP12 DUP13 SWAP12 DUP13 MSTORE PUSH1 0x20 DUP13 PUSH2 0x120 SWAP2 DUP3 SWAP2 ADD MSTORE DUP13 ADD SWAP1 PUSH2 0x1149 JUMP JUMPDEST SWAP9 DUP11 ADD MSTORE PUSH1 0x60 DUP10 ADD MSTORE PUSH1 0x80 DUP9 ADD MSTORE PUSH1 0xA0 DUP8 ADD SWAP1 PUSH2 0x1189 JUMP JUMPDEST PUSH1 0xC0 DUP6 ADD MSTORE PUSH1 0xE0 DUP5 ADD MSTORE PUSH2 0x100 DUP4 ADD MSTORE SUB SWAP1 RETURN JUMPDEST POP CALLVALUE PUSH2 0x190 JUMPI PUSH1 0x20 CALLDATASIZE PUSH1 0x3 NOT ADD SLT PUSH2 0x190 JUMPI PUSH1 0x4 CALLDATALOAD SWAP1 DUP2 PUSH1 0x0 MSTORE PUSH1 0x3 PUSH1 0x20 MSTORE DUP1 PUSH1 0x0 KECCAK256 PUSH1 0x6 DUP2 ADD SWAP1 DUP2 SLOAD SWAP1 PUSH1 0xFF DUP3 AND SWAP1 PUSH1 0x4 DUP3 LT ISZERO PUSH2 0x9F3 JUMPI PUSH2 0x95C PUSH1 0x1 PUSH1 0x5 SWAP4 EQ PUSH2 0x13BB JUMP JUMPDEST ADD SLOAD PUSH3 0x15180 DUP2 ADD DUP1 SWAP2 GT PUSH2 0x9DD JUMPI TIMESTAMP LT PUSH2 0x9A8 JUMPI SWAP2 PUSH1 0x20 SWAP2 PUSH1 0x2 PUSH32 0x70ECA82567B065893A5E6CC590178B6B320855676B6A9A066625933E0C8EBE58 SWAP5 PUSH1 0xFF NOT AND OR SWAP1 SSTORE MLOAD PUSH1 0x2 DUP2 MSTORE LOG2 STOP JUMPDEST DUP3 MLOAD PUSH3 0x461BCD PUSH1 0xE5 SHL DUP2 MSTORE PUSH1 0x20 PUSH1 0x4 DUP3 ADD MSTORE PUSH1 0xE PUSH1 0x24 DUP3 ADD MSTORE PUSH14 0x436F6D6D6974206F6E676F696E67 PUSH1 0x90 SHL PUSH1 0x44 DUP3 ADD MSTORE PUSH1 0x64 SWAP1 REVERT JUMPDEST PUSH4 0x4E487B71 PUSH1 0xE0 SHL PUSH1 0x0 MSTORE PUSH1 0x11 PUSH1 0x4 MSTORE PUSH1 0x24 PUSH1 0x0 REVERT JUMPDEST PUSH4 0x4E487B71 PUSH1 0xE0 SHL PUSH1 0x0 MSTORE PUSH1 0x21 PUSH1 0x4 MSTORE PUSH1 0x24 PUSH1 0x0 REVERT JUMPDEST POP CALLVALUE PUSH2 0x190 JUMPI DUP1 PUSH1 0x3 NOT CALLDATASIZE ADD SLT PUSH2 0x190 JUMPI PUSH1 0x20 SWAP1 PUSH2 0xA30 PUSH2 0xA28 PUSH2 0x1031 JUMP JUMPDEST PUSH1 0x4 CALLDATALOAD PUSH2 0x1544 JUMP JUMPDEST SWAP1 MLOAD SWAP1 ISZERO ISZERO DUP2 MSTORE RETURN JUMPDEST POP CALLVALUE PUSH2 0x190 JUMPI PUSH1 0x0 CALLDATASIZE PUSH1 0x3 NOT ADD SLT PUSH2 0x190 JUMPI PUSH1 0x20 SWAP1 MLOAD PUSH1 0x0 DUP2 MSTORE RETURN JUMPDEST POP CALLVALUE PUSH2 0x190 JUMPI PUSH1 0x20 CALLDATASIZE PUSH1 0x3 NOT ADD SLT PUSH2 0x190 JUMPI PUSH1 0x4 CALLDATALOAD SWAP1 DUP2 PUSH1 0x0 MSTORE PUSH1 0x3 PUSH1 0x20 MSTORE DUP1 PUSH1 0x0 KECCAK256 PUSH1 0x6 DUP2 ADD SWAP1 DUP2 SLOAD SWAP1 PUSH1 0xFF DUP3 AND SWAP1 PUSH1 0x4 DUP3 LT ISZERO PUSH2 0x9F3 JUMPI PUSH2 0xA9A PUSH1 0x5 SWAP3 ISZERO PUSH2 0x13BB JUMP JUMPDEST ADD SLOAD TIMESTAMP LT PUSH2 0xAD9 JUMPI SWAP2 PUSH1 0x20 SWAP2 PUSH1 0x1 PUSH32 0x70ECA82567B065893A5E6CC590178B6B320855676B6A9A066625933E0C8EBE58 SWAP5 PUSH1 0xFF NOT AND OR SWAP1 SSTORE MLOAD PUSH1 0x1 DUP2 MSTORE LOG2 STOP JUMPDEST DUP3 MLOAD PUSH3 0x461BCD PUSH1 0xE5 SHL DUP2 MSTORE PUSH1 0x20 PUSH1 0x4 DUP3 ADD MSTORE PUSH1 0x9 PUSH1 0x24 DUP3 ADD MSTORE PUSH9 0x4E6F74207265616479 PUSH1 0xB8 SHL PUSH1 0x44 DUP3 ADD MSTORE PUSH1 0x64 SWAP1 REVERT JUMPDEST POP CALLVALUE PUSH2 0x190 JUMPI PUSH1 0x20 CALLDATASIZE PUSH1 0x3 NOT ADD SLT PUSH2 0x190 JUMPI PUSH1 0x4 CALLDATALOAD SWAP1 DUP2 PUSH1 0x0 MSTORE PUSH1 0x3 PUSH1 0x20 MSTORE DUP1 PUSH1 0x0 KECCAK256 PUSH1 0xFF PUSH1 0x6 DUP3 ADD SLOAD AND SWAP1 PUSH1 0x4 DUP3 LT ISZERO PUSH2 0x9F3 JUMPI PUSH2 0xB4C PUSH1 0x2 PUSH1 0x5 SWAP4 EQ PUSH2 0x13BB JUMP JUMPDEST ADD SLOAD PUSH3 0x15180 DUP2 ADD SWAP1 DUP2 DUP2 GT PUSH2 0x9DD JUMPI PUSH3 0x2A300 ADD DUP1 SWAP2 GT PUSH2 0x9DD JUMPI TIMESTAMP LT PUSH2 0xB77 JUMPI PUSH2 0x81F DUP3 PUSH2 0x13F7 JUMP JUMPDEST MLOAD PUSH3 0x461BCD PUSH1 0xE5 SHL DUP2 MSTORE PUSH1 0x20 PUSH1 0x4 DUP3 ADD MSTORE PUSH1 0xE PUSH1 0x24 DUP3 ADD MSTORE PUSH14 0x52657665616C206F6E676F696E67 PUSH1 0x90 SHL PUSH1 0x44 DUP3 ADD MSTORE PUSH1 0x64 SWAP1 REVERT JUMPDEST POP CALLVALUE PUSH2 0x190 JUMPI DUP1 PUSH1 0x3 NOT CALLDATASIZE ADD SLT PUSH2 0x190 JUMPI PUSH1 0x20 SWAP1 PUSH2 0xBC7 PUSH2 0x1031 JUMP JUMPDEST PUSH1 0x4 CALLDATALOAD PUSH1 0x0 MSTORE PUSH1 0x1 DUP4 MSTORE DUP2 PUSH1 0x0 KECCAK256 SWAP1 PUSH1 0x1 DUP1 PUSH1 0xA0 SHL SUB AND PUSH1 0x0 MSTORE DUP3 MSTORE PUSH1 0xFF DUP2 PUSH1 0x0 KECCAK256 SLOAD AND SWAP1 MLOAD SWAP1 ISZERO ISZERO DUP2 MSTORE RETURN JUMPDEST POP CALLVALUE PUSH2 0x190 JUMPI DUP1 PUSH1 0x3 NOT CALLDATASIZE ADD SLT PUSH2 0x190 JUMPI PUSH1 0x4 CALLDATALOAD SWAP1 DUP2 PUSH1 0x0 MSTORE PUSH1 0x20 PUSH1 0x3 DUP2 MSTORE PUSH1 0xFF PUSH1 0x6 DUP4 PUSH1 0x0 KECCAK256 ADD SLOAD AND PUSH1 0x4 DUP2 LT ISZERO PUSH2 0x9F3 JUMPI PUSH1 0x1 SUB PUSH2 0xCD4 JUMPI PUSH2 0xC40 PUSH2 0xC3B CALLER DUP6 PUSH2 0x1544 JUMP JUMPDEST PUSH2 0x137E JUMP JUMPDEST DUP3 PUSH1 0x0 MSTORE PUSH1 0x4 DUP2 MSTORE DUP2 PUSH1 0x0 KECCAK256 CALLER PUSH1 0x0 MSTORE DUP2 MSTORE DUP2 PUSH1 0x0 KECCAK256 SLOAD PUSH2 0xC9E JUMPI DUP3 PUSH1 0x0 MSTORE PUSH1 0x4 DUP2 MSTORE DUP2 PUSH1 0x0 KECCAK256 SWAP1 CALLER PUSH1 0x0 MSTORE MSTORE PUSH1 0x24 CALLDATALOAD SWAP1 PUSH1 0x0 KECCAK256 SSTORE CALLER SWAP1 PUSH32 0x22D30F6DA93667100B64D15E5EA70AFEC217CAEAB1008706F57BFA4DEED12C63 PUSH1 0x0 DUP1 LOG3 STOP JUMPDEST PUSH1 0x64 SWAP2 MLOAD SWAP1 PUSH3 0x461BCD PUSH1 0xE5 SHL DUP3 MSTORE PUSH1 0x4 DUP3 ADD MSTORE PUSH1 0x11 PUSH1 0x24 DUP3 ADD MSTORE PUSH17 0x105B1C9958591E4818DBDB5B5A5D1D1959 PUSH1 0x7A SHL PUSH1 0x44 DUP3 ADD MSTORE REVERT JUMPDEST PUSH1 0x64 SWAP2 MLOAD SWAP1 PUSH3 0x461BCD PUSH1 0xE5 SHL DUP3 MSTORE PUSH1 0x4 DUP3 ADD MSTORE PUSH1 0x13 PUSH1 0x24 DUP3 ADD MSTORE PUSH19 0x4E6F7420696E20636F6D6D6974207068617365 PUSH1 0x68 SHL PUSH1 0x44 DUP3 ADD MSTORE REVERT JUMPDEST POP CALLVALUE PUSH2 0x190 JUMPI PUSH1 0x0 CALLDATASIZE PUSH1 0x3 NOT ADD SLT PUSH2 0x190 JUMPI PUSH1 0x0 SLOAD SWAP1 MLOAD PUSH1 0x1 PUSH1 0x1 PUSH1 0xA0 SHL SUB SWAP1 SWAP2 AND DUP2 MSTORE PUSH1 0x20 SWAP1 RETURN JUMPDEST POP CALLVALUE PUSH2 0x190 JUMPI PUSH1 0x60 CALLDATASIZE PUSH1 0x3 NOT ADD SLT PUSH2 0x190 JUMPI PUSH1 0x4 CALLDATALOAD PUSH1 0x24 CALLDATALOAD SWAP2 DUP2 PUSH1 0x0 MSTORE PUSH1 0x20 SWAP3 PUSH1 0x3 DUP5 MSTORE DUP2 PUSH1 0x0 KECCAK256 SWAP1 PUSH1 0xFF PUSH1 0x6 DUP4 ADD SLOAD AND PUSH1 0x4 DUP2 LT ISZERO PUSH2 0x9F3 JUMPI PUSH1 0x2 SUB PUSH2 0xEAD JUMPI PUSH2 0xD83 PUSH2 0xC3B CALLER DUP7 PUSH2 0x1544 JUMP JUMPDEST PUSH1 0x1 DUP2 GT PUSH2 0xE77 JUMPI DUP3 MLOAD DUP6 DUP2 ADD SWAP1 DUP3 DUP3 MSTORE PUSH1 0x44 CALLDATALOAD DUP6 DUP3 ADD MSTORE DUP5 DUP2 MSTORE PUSH1 0x60 DUP2 ADD SWAP2 DUP2 DUP4 LT PUSH8 0xFFFFFFFFFFFFFFFF DUP5 GT OR PUSH2 0x60F JUMPI DUP3 DUP7 MSTORE DUP2 MLOAD SWAP1 KECCAK256 DUP7 PUSH1 0x0 MSTORE PUSH1 0x4 DUP9 MSTORE DUP6 PUSH1 0x0 KECCAK256 CALLER PUSH1 0x0 MSTORE DUP9 MSTORE DUP6 PUSH1 0x0 KECCAK256 SLOAD SUB PUSH2 0xE46 JUMPI POP POP DUP4 PUSH32 0x20BD37E360C03C1612E978E27CE7593B27EDFA30D1E681AE158A6797F43B1974 DUP2 SWAP7 PUSH1 0x4 SWAP6 SWAP7 PUSH1 0x0 MSTORE PUSH1 0x5 DUP2 MSTORE DUP7 PUSH1 0x0 KECCAK256 CALLER PUSH1 0x0 MSTORE DUP2 MSTORE DUP4 DUP8 PUSH1 0x0 KECCAK256 SSTORE PUSH1 0x8 DUP6 ADD SWAP7 PUSH2 0xE29 DUP9 SLOAD PUSH2 0x1358 JUMP JUMPDEST DUP1 SWAP9 SSTORE MLOAD SWAP4 DUP5 MSTORE CALLER SWAP4 LOG3 ADD SLOAD GT ISZERO PUSH2 0xE3D JUMPI STOP JUMPDEST PUSH2 0x81F SWAP1 PUSH2 0x13F7 JUMP JUMPDEST SWAP1 PUSH14 0x125B9D985B1A59081C995D99585B PUSH1 0x92 SHL PUSH1 0xA4 PUSH1 0x64 SWAP4 DUP10 PUSH3 0x461BCD PUSH1 0xE5 SHL DUP6 MSTORE DUP6 DUP3 ADD MSTORE PUSH1 0xE PUSH1 0x84 DUP3 ADD MSTORE ADD MSTORE REVERT JUMPDEST DUP3 MLOAD PUSH3 0x461BCD PUSH1 0xE5 SHL DUP2 MSTORE PUSH1 0x4 DUP2 ADD DUP7 SWAP1 MSTORE PUSH1 0xF PUSH1 0x24 DUP3 ADD MSTORE PUSH15 0x496E76616C6964206F7574636F6D65 PUSH1 0x88 SHL PUSH1 0x44 DUP3 ADD MSTORE PUSH1 0x64 SWAP1 REVERT JUMPDEST DUP3 MLOAD PUSH3 0x461BCD PUSH1 0xE5 SHL DUP2 MSTORE PUSH1 0x4 DUP2 ADD DUP7 SWAP1 MSTORE PUSH1 0x13 PUSH1 0x24 DUP3 ADD MSTORE PUSH19 0x4E6F7420696E2072657665616C207068617365 PUSH1 0x68 SHL PUSH1 0x44 DUP3 ADD MSTORE PUSH1 0x64 SWAP1 REVERT JUMPDEST CALLVALUE PUSH2 0x190 JUMPI PUSH1 0x0 CALLDATASIZE PUSH1 0x3 NOT ADD SLT PUSH2 0x190 JUMPI PUSH2 0xF00 PUSH2 0x132C JUMP JUMPDEST PUSH1 0x0 DUP1 SLOAD PUSH1 0x1 PUSH1 0x1 PUSH1 0xA0 SHL SUB NOT DUP2 AND DUP3 SSTORE PUSH1 0x1 PUSH1 0x1 PUSH1 0xA0 SHL SUB AND PUSH32 0x8BE0079C531659141344CD1FD0A4F28419497F9722A3DAAFE3B4186F6B6457E0 DUP3 DUP1 LOG3 STOP JUMPDEST POP CALLVALUE PUSH2 0x190 JUMPI DUP1 PUSH1 0x3 NOT CALLDATASIZE ADD SLT PUSH2 0x190 JUMPI PUSH2 0xF59 PUSH2 0x1031 JUMP JUMPDEST SWAP1 CALLER PUSH1 0x1 PUSH1 0x1 PUSH1 0xA0 SHL SUB DUP4 AND SUB PUSH2 0xF76 JUMPI PUSH2 0x81F DUP3 PUSH1 0x4 CALLDATALOAD PUSH2 0x12B5 JUMP JUMPDEST MLOAD PUSH4 0x334BD919 PUSH1 0xE1 SHL DUP2 MSTORE PUSH1 0x4 SWAP1 REVERT JUMPDEST POP CALLVALUE PUSH2 0x190 JUMPI DUP1 PUSH1 0x3 NOT CALLDATASIZE ADD SLT PUSH2 0x190 JUMPI PUSH2 0x81F SWAP1 PUSH1 0x4 CALLDATALOAD PUSH2 0xFAB PUSH1 0x1 PUSH2 0x807 PUSH2 0x1031 JUMP JUMPDEST PUSH2 0x1235 JUMP JUMPDEST POP CALLVALUE PUSH2 0x190 JUMPI PUSH1 0x20 CALLDATASIZE PUSH1 0x3 NOT ADD SLT PUSH2 0x190 JUMPI PUSH1 0x20 SWAP1 PUSH1 0x4 CALLDATALOAD PUSH1 0x0 MSTORE PUSH1 0x1 DUP3 MSTORE PUSH1 0x1 DUP2 PUSH1 0x0 KECCAK256 ADD SLOAD SWAP1 MLOAD SWAP1 DUP2 MSTORE RETURN JUMPDEST CALLVALUE PUSH2 0x190 JUMPI PUSH1 0x20 CALLDATASIZE PUSH1 0x3 NOT ADD SLT PUSH2 0x190 JUMPI PUSH1 0x4 CALLDATALOAD SWAP1 PUSH4 0xFFFFFFFF PUSH1 0xE0 SHL DUP3 AND DUP1 SWAP3 SUB PUSH2 0x190 JUMPI PUSH1 0x20 SWAP2 PUSH4 0x7965DB0B PUSH1 0xE0 SHL DUP2 EQ SWAP1 DUP2 ISZERO PUSH2 0x1020 JUMPI JUMPDEST POP ISZERO ISZERO DUP2 MSTORE RETURN JUMPDEST PUSH4 0x1FFC9A7 PUSH1 0xE0 SHL EQ SWAP1 POP DUP4 PUSH2 0x1019 JUMP JUMPDEST PUSH1 0x24 CALLDATALOAD SWAP1 PUSH1 0x1 PUSH1 0x1 PUSH1 0xA0 SHL SUB DUP3 AND DUP3 SUB PUSH2 0x190 JUMPI JUMP JUMPDEST SWAP1 PUSH1 0x1 DUP3 DUP2 SHR SWAP3 AND DUP1 ISZERO PUSH2 0x1077 JUMPI JUMPDEST PUSH1 0x20 DUP4 LT EQ PUSH2 0x1061 JUMPI JUMP JUMPDEST PUSH4 0x4E487B71 PUSH1 0xE0 SHL PUSH1 0x0 MSTORE PUSH1 0x22 PUSH1 0x4 MSTORE PUSH1 0x24 PUSH1 0x0 REVERT JUMPDEST SWAP2 PUSH1 0x7F AND SWAP2 PUSH2 0x1056 JUMP JUMPDEST SWAP1 PUSH1 0x1F DUP1 NOT SWAP2 ADD AND DUP2 ADD SWAP1 DUP2 LT PUSH8 0xFFFFFFFFFFFFFFFF DUP3 GT OR PUSH2 0x60F JUMPI PUSH1 0x40 MSTORE JUMP JUMPDEST SWAP1 PUSH1 0x40 MLOAD SWAP2 DUP3 PUSH1 0x0 DUP3 SLOAD SWAP3 PUSH2 0x10B7 DUP5 PUSH2 0x1047 JUMP JUMPDEST SWAP1 DUP2 DUP5 MSTORE PUSH1 0x1 SWAP5 DUP6 DUP2 AND SWAP1 DUP2 PUSH1 0x0 EQ PUSH2 0x1126 JUMPI POP PUSH1 0x1 EQ PUSH2 0x10E3 JUMPI JUMPDEST POP POP PUSH2 0x10E1 SWAP3 POP SUB DUP4 PUSH2 0x1081 JUMP JUMPDEST JUMP JUMPDEST SWAP1 SWAP4 SWAP2 POP PUSH1 0x0 MSTORE PUSH1 0x20 SWAP1 DUP2 PUSH1 0x0 KECCAK256 SWAP4 PUSH1 0x0 SWAP2 JUMPDEST DUP2 DUP4 LT PUSH2 0x110E JUMPI POP POP PUSH2 0x10E1 SWAP4 POP DUP3 ADD ADD CODESIZE DUP1 PUSH2 0x10D3 JUMP JUMPDEST DUP6 SLOAD DUP9 DUP5 ADD DUP6 ADD MSTORE SWAP5 DUP6 ADD SWAP5 DUP8 SWAP5 POP SWAP2 DUP4 ADD SWAP2 PUSH2 0x10F6 JUMP JUMPDEST SWAP2 POP POP PUSH2 0x10E1 SWAP5 POP PUSH1 0x20 SWAP3 POP PUSH1 0xFF NOT AND DUP3 DUP5 ADD MSTORE ISZERO ISZERO PUSH1 0x5 SHL DUP3 ADD ADD CODESIZE DUP1 PUSH2 0x10D3 JUMP JUMPDEST SWAP2 SWAP1 DUP3 MLOAD SWAP3 DUP4 DUP3 MSTORE PUSH1 0x0 JUMPDEST DUP5 DUP2 LT PUSH2 0x1175 JUMPI POP POP DUP3 PUSH1 0x0 PUSH1 0x20 DUP1 SWAP5 SWAP6 DUP5 ADD ADD MSTORE PUSH1 0x1F DUP1 NOT SWAP2 ADD AND ADD ADD SWAP1 JUMP JUMPDEST PUSH1 0x20 DUP2 DUP4 ADD DUP2 ADD MLOAD DUP5 DUP4 ADD DUP3 ADD MSTORE ADD PUSH2 0x1154 JUMP JUMPDEST SWAP1 PUSH1 0x4 DUP3 LT ISZERO PUSH2 0x9F3 JUMPI MSTORE JUMP JUMPDEST CALLVALUE PUSH2 0x190 JUMPI PUSH1 0x0 CALLDATASIZE PUSH1 0x3 NOT ADD SLT PUSH2 0x190 JUMPI PUSH1 0x20 PUSH1 0x40 MLOAD PUSH3 0x15180 DUP2 MSTORE RETURN JUMPDEST SWAP1 DUP2 MLOAD DUP1 DUP3 MSTORE PUSH1 0x20 DUP1 DUP1 SWAP4 ADD SWAP4 ADD SWAP2 PUSH1 0x0 JUMPDEST DUP3 DUP2 LT PUSH2 0x11D4 JUMPI POP POP POP POP SWAP1 JUMP JUMPDEST DUP4 MLOAD PUSH1 0x1 PUSH1 0x1 PUSH1 0xA0 SHL SUB AND DUP6 MSTORE SWAP4 DUP2 ADD SWAP4 SWAP3 DUP2 ADD SWAP3 PUSH1 0x1 ADD PUSH2 0x11C6 JUMP JUMPDEST DUP1 PUSH1 0x0 MSTORE PUSH1 0x1 PUSH1 0x20 MSTORE PUSH1 0x40 PUSH1 0x0 KECCAK256 CALLER PUSH1 0x0 MSTORE PUSH1 0x20 MSTORE PUSH1 0xFF PUSH1 0x40 PUSH1 0x0 KECCAK256 SLOAD AND ISZERO PUSH2 0x1217 JUMPI POP JUMP JUMPDEST PUSH1 0x44 SWAP1 PUSH1 0x40 MLOAD SWAP1 PUSH4 0xE2517D3F PUSH1 0xE0 SHL DUP3 MSTORE CALLER PUSH1 0x4 DUP4 ADD MSTORE PUSH1 0x24 DUP3 ADD MSTORE REVERT JUMPDEST SWAP1 PUSH1 0x0 SWAP2 DUP1 DUP4 MSTORE PUSH1 0x1 PUSH1 0x20 MSTORE PUSH1 0x40 DUP4 KECCAK256 SWAP2 PUSH1 0x1 DUP1 PUSH1 0xA0 SHL SUB AND SWAP2 DUP3 DUP5 MSTORE PUSH1 0x20 MSTORE PUSH1 0xFF PUSH1 0x40 DUP5 KECCAK256 SLOAD AND ISZERO PUSH1 0x0 EQ PUSH2 0x12B0 JUMPI DUP1 DUP4 MSTORE PUSH1 0x1 PUSH1 0x20 MSTORE PUSH1 0x40 DUP4 KECCAK256 DUP3 DUP5 MSTORE PUSH1 0x20 MSTORE PUSH1 0x40 DUP4 KECCAK256 PUSH1 0x1 PUSH1 0xFF NOT DUP3 SLOAD AND OR SWAP1 SSTORE PUSH32 0x2F8788117E7EFF1D82E926EC794901D17C78024A50270940304540A733656F0D CALLER SWAP4 DUP1 LOG4 PUSH1 0x1 SWAP1 JUMP JUMPDEST POP POP SWAP1 JUMP JUMPDEST SWAP1 PUSH1 0x0 SWAP2 DUP1 DUP4 MSTORE PUSH1 0x1 PUSH1 0x20 MSTORE PUSH1 0x40 DUP4 KECCAK256 SWAP2 PUSH1 0x1 DUP1 PUSH1 0xA0 SHL SUB AND SWAP2 DUP3 DUP5 MSTORE PUSH1 0x20 MSTORE PUSH1 0xFF PUSH1 0x40 DUP5 KECCAK256 SLOAD AND PUSH1 0x0 EQ PUSH2 0x12B0 JUMPI DUP1 DUP4 MSTORE PUSH1 0x1 PUSH1 0x20 MSTORE PUSH1 0x40 DUP4 KECCAK256 DUP3 DUP5 MSTORE PUSH1 0x20 MSTORE PUSH1 0x40 DUP4 KECCAK256 PUSH1 0xFF NOT DUP2 SLOAD AND SWAP1 SSTORE PUSH32 0xF6391F5C32D9C69D2A47EA670B442974B53935D1EDC7FD64EB21E047A839171B CALLER SWAP4 DUP1 LOG4 PUSH1 0x1 SWAP1 JUMP JUMPDEST PUSH1 0x0 SLOAD PUSH1 0x1 PUSH1 0x1 PUSH1 0xA0 SHL SUB AND CALLER SUB PUSH2 0x1340 JUMPI JUMP JUMPDEST PUSH1 0x40 MLOAD PUSH4 0x118CDAA7 PUSH1 0xE0 SHL DUP2 MSTORE CALLER PUSH1 0x4 DUP3 ADD MSTORE PUSH1 0x24 SWAP1 REVERT JUMPDEST PUSH1 0x0 NOT DUP2 EQ PUSH2 0x9DD JUMPI PUSH1 0x1 ADD SWAP1 JUMP JUMPDEST DUP2 DUP2 LT PUSH2 0x1372 JUMPI POP POP JUMP JUMPDEST PUSH1 0x0 DUP2 SSTORE PUSH1 0x1 ADD PUSH2 0x1367 JUMP JUMPDEST ISZERO PUSH2 0x1385 JUMPI JUMP JUMPDEST PUSH1 0x40 MLOAD PUSH3 0x461BCD PUSH1 0xE5 SHL DUP2 MSTORE PUSH1 0x20 PUSH1 0x4 DUP3 ADD MSTORE PUSH1 0xE PUSH1 0x24 DUP3 ADD MSTORE PUSH14 0x2737BA1030903B32B934B334B2B9 PUSH1 0x91 SHL PUSH1 0x44 DUP3 ADD MSTORE PUSH1 0x64 SWAP1 REVERT JUMPDEST ISZERO PUSH2 0x13C2 JUMPI JUMP JUMPDEST PUSH1 0x40 MLOAD PUSH3 0x461BCD PUSH1 0xE5 SHL DUP2 MSTORE PUSH1 0x20 PUSH1 0x4 DUP3 ADD MSTORE PUSH1 0xD PUSH1 0x24 DUP3 ADD MSTORE PUSH13 0x496E76616C6964207068617365 PUSH1 0x98 SHL PUSH1 0x44 DUP3 ADD MSTORE PUSH1 0x64 SWAP1 REVERT JUMPDEST SWAP1 PUSH1 0x0 SWAP2 DUP1 DUP4 MSTORE PUSH1 0x20 PUSH1 0x3 DUP2 MSTORE PUSH1 0x40 DUP1 DUP6 KECCAK256 SWAP1 DUP6 DUP1 DUP2 SWAP8 PUSH1 0x3 DUP6 ADD SWAP9 DUP10 SLOAD JUMPDEST DUP1 DUP3 LT PUSH2 0x1479 JUMPI POP POP PUSH32 0x6DFC24F0F2FB42E49FB4FA3FFA8ABB148CAB908A1FB8335B3F128A08B2594AF1 SWAP7 SWAP8 SWAP9 POP GT PUSH1 0x0 EQ PUSH2 0x146F JUMPI POP PUSH1 0x6 PUSH1 0xFF PUSH1 0x1 JUMPDEST AND SWAP3 DUP4 PUSH1 0x7 DUP3 ADD SSTORE ADD PUSH1 0x3 PUSH1 0xFF NOT DUP3 SLOAD AND OR SWAP1 SSTORE MLOAD SWAP1 DUP2 MSTORE LOG2 JUMP JUMPDEST PUSH1 0xFF PUSH1 0x6 SWAP2 PUSH2 0x1454 JUMP JUMPDEST DUP11 DUP6 MSTORE DUP8 DUP6 KECCAK256 DUP3 ADD SLOAD DUP10 DUP7 MSTORE PUSH1 0x5 DUP10 MSTORE DUP7 DUP7 KECCAK256 PUSH1 0x1 PUSH1 0x1 PUSH1 0xA0 SHL SUB SWAP1 SWAP2 AND DUP7 MSTORE DUP9 MSTORE DUP6 DUP6 KECCAK256 SLOAD SWAP2 SWAP3 SWAP1 SWAP2 PUSH1 0x0 NOT DUP2 ADD PUSH2 0x14C5 JUMPI POP PUSH2 0x14B9 PUSH2 0x14BF SWAP2 PUSH2 0x1358 JUMP JUMPDEST SWAP3 PUSH2 0x1358 JUMP JUMPDEST SWAP1 PUSH2 0x1416 JUMP JUMPDEST SWAP3 SWAP1 SWAP3 ISZERO PUSH2 0x14D7 JUMPI JUMPDEST PUSH2 0x14BF SWAP1 PUSH2 0x1358 JUMP JUMPDEST SWAP3 PUSH2 0x14E4 PUSH2 0x14BF SWAP2 PUSH2 0x1358 JUMP JUMPDEST SWAP4 SWAP1 POP PUSH2 0x14CE JUMP JUMPDEST SWAP1 PUSH1 0x40 MLOAD SWAP2 DUP3 DUP2 SLOAD SWAP2 DUP3 DUP3 MSTORE PUSH1 0x20 SWAP3 DUP4 DUP4 ADD SWAP2 PUSH1 0x0 MSTORE DUP4 PUSH1 0x0 KECCAK256 SWAP4 PUSH1 0x0 SWAP1 JUMPDEST DUP3 DUP3 LT PUSH2 0x1521 JUMPI POP POP POP PUSH2 0x10E1 SWAP3 POP SUB DUP4 PUSH2 0x1081 JUMP JUMPDEST DUP6 SLOAD PUSH1 0x1 PUSH1 0x1 PUSH1 0xA0 SHL SUB AND DUP5 MSTORE PUSH1 0x1 SWAP6 DUP7 ADD SWAP6 DUP9 SWAP6 POP SWAP4 DUP2 ADD SWAP4 SWAP1 SWAP2 ADD SWAP1 PUSH2 0x150B JUMP JUMPDEST PUSH1 0x0 MSTORE PUSH1 0x20 SWAP1 PUSH1 0x3 DUP3 MSTORE PUSH2 0x155E PUSH1 0x3 PUSH1 0x40 PUSH1 0x0 KECCAK256 ADD PUSH2 0x14EC JUMP JUMPDEST SWAP2 PUSH1 0x0 JUMPDEST DUP4 MLOAD DUP2 LT ISZERO PUSH2 0x159E JUMPI PUSH1 0x5 DUP2 SWAP1 SHL DUP5 ADD DUP3 ADD MLOAD PUSH1 0x1 PUSH1 0x1 PUSH1 0xA0 SHL SUB DUP5 DUP2 AND SWAP2 AND EQ PUSH2 0x1595 JUMPI PUSH2 0x1590 SWAP1 PUSH2 0x1358 JUMP JUMPDEST PUSH2 0x1562 JUMP JUMPDEST POP POP POP POP PUSH1 0x1 SWAP1 JUMP JUMPDEST POP POP POP POP PUSH1 0x0 SWAP1 JUMP INVALID LOG2 PUSH5 0x6970667358 0x22 SLT KECCAK256 CALLDATACOPY PUSH30 0x3AF73CDCABCA53CF57417D033F8D6251CDC9DE2A2D215C71E61E782BA047 PUSH5 0x736F6C6343 STOP ADDMOD EQ STOP CALLER "},"methodIdentifiers":{"COMMIT_PERIOD()":"e8881fe5","DEFAULT_ADMIN_ROLE()":"a217fddf","REVEAL_PERIOD()":"c3529f31","commitOutcome(uint256,bytes32)":"8e9e62f2","commitments(uint256,address)":"e90d4c06","createMarket(string,address[],uint256,uint256)":"de973434","forceResolveMarket(uint256)":"923abdb2","getCommitment(uint256,address)":"89fb2682","getMarket(uint256)":"eb44fdd3","getReveal(uint256,address)":"cd9ce90e","getRoleAdmin(bytes32)":"248a9ca3","getVerifiers(uint256)":"f5aa29c8","grantRole(bytes32,address)":"2f2ff15d","hasRole(bytes32,address)":"91d14854","isVerifier(uint256,address)":"a3dc85d8","marketCount()":"ec979082","markets(uint256)":"b1283e77","owner()":"8da5cb5b","renounceOwnership()":"715018a6","renounceRole(bytes32,address)":"36568abe","revealOutcome(uint256,uint256,bytes32)":"72d017cc","reveals(uint256,address)":"4ef14888","revokeRole(bytes32,address)":"d547741f","startCommitPhase(uint256)":"9a851502","startRevealPhase(uint256)":"a8d93dea","supportsInterface(bytes4)":"01ffc9a7","transferOwnership(address)":"f2fde38b"}}}}}