{"src/AIOracleDispute.sol":{"AIOracleDispute":{"abi":[{"inputs":[],"stateMutability":"nonpayable","type":"constructor"},{"inputs":[],"name":"AccessControlBadConfirmation","type":"error"},{"inputs":[{"internalType":"address","name":"account","type":"address"},{"internalType":"bytes32","name":"neededRole","type":"bytes32"}],"name":"AccessControlUnauthorizedAccount","type":"error"},{"inputs":[],"name":"ReentrancyGuardReentrantCall","type":"error"},{"anonymous":false,"inputs":[{"indexed":true,"internalType":"uint256","name":"marketId","type":"uint256"},{"indexed":false,"internalType":"bytes32","name":"evidenceHash","type":"bytes32"},{"indexed":false,"internalType":"uint256","name":"confidence","type":"uint256"}],"name":"AISuggestion","type":"event"},{"anonymous":false,"inputs":[{"indexed":true,"internalType":"uint256","name":"disputeId","type":"uint256"},{"indexed":false,"internalType":"bool","name":"accepted","type":"bool"},{"indexed":false,"internalType":"uint256","name":"outcome","type":"uint256"}],"name":"DisputeResolved","type":"event"},{"anonymous":false,"inputs":[{"indexed":true,"internalType":"uint256","name":"disputeId","type":"uint256"},{"indexed":true,"internalType":"uint256","name":"marketId","type":"uint256"},{"indexed":true,"internalType":"address","name":"submitter","type":"address"},{"indexed":false,"internalType":"bytes32","name":"evidenceHash","type":"bytes32"},{"indexed":false,"internalType":"uint256","name":"proposedOutcome","type":"uint256"}],"name":"DisputeSubmitted","type":"event"},{"anonymous":false,"inputs":[{"indexed":true,"internalType":"uint256","name":"disputeId","type":"uint256"},{"indexed":true,"internalType":"address","name":"voter","type":"address"},{"indexed":false,"internalType":"bool","name":"support","type":"bool"},{"indexed":false,"internalType":"uint256","name":"weight","type":"uint256"}],"name":"DisputeVoted","type":"event"},{"anonymous":false,"inputs":[{"indexed":true,"internalType":"uint256","name":"disputeId","type":"uint256"},{"indexed":true,"internalType":"address","name":"claimer","type":"address"},{"indexed":false,"internalType":"uint256","name":"amount","type":"uint256"}],"name":"RewardClaimed","type":"event"},{"anonymous":false,"inputs":[{"indexed":true,"internalType":"bytes32","name":"role","type":"bytes32"},{"indexed":true,"internalType":"bytes32","name":"previousAdminRole","type":"bytes32"},{"indexed":true,"internalType":"bytes32","name":"newAdminRole","type":"bytes32"}],"name":"RoleAdminChanged","type":"event"},{"anonymous":false,"inputs":[{"indexed":true,"internalType":"bytes32","name":"role","type":"bytes32"},{"indexed":true,"internalType":"address","name":"account","type":"address"},{"indexed":true,"internalType":"address","name":"sender","type":"address"}],"name":"RoleGranted","type":"event"},{"anonymous":false,"inputs":[{"indexed":true,"internalType":"bytes32","name":"role","type":"bytes32"},{"indexed":true,"internalType":"address","name":"account","type":"address"},{"indexed":true,"internalType":"address","name":"sender","type":"address"}],"name":"RoleRevoked","type":"event"},{"inputs":[],"name":"AI_ORACLE_ROLE","outputs":[{"internalType":"bytes32","name":"","type":"bytes32"}],"stateMutability":"view","type":"function"},{"inputs":[],"name":"DEFAULT_ADMIN_ROLE","outputs":[{"internalType":"bytes32","name":"","type":"bytes32"}],"stateMutability":"view","type":"function"},{"inputs":[],"name":"MIN_STAKE","outputs":[{"internalType":"uint256","name":"","type":"uint256"}],"stateMutability":"view","type":"function"},{"inputs":[],"name":"QUORUM","outputs":[{"internalType":"uint256","name":"","type":"uint256"}],"stateMutability":"view","type":"function"},{"inputs":[],"name":"RESOLVER_ROLE","outputs":[{"internalType":"bytes32","name":"","type":"bytes32"}],"stateMutability":"view","type":"function"},{"inputs":[],"name":"VOTING_PERIOD","outputs":[{"internalType":"uint256","name":"","type":"uint256"}],"stateMutability":"view","type":"function"},{"inputs":[{"internalType":"uint256","name":"disputeId","type":"uint256"}],"name":"claimReward","outputs":[],"stateMutability":"nonpayable","type":"function"},{"inputs":[],"name":"disputeCount","outputs":[{"internalType":"uint256","name":"","type":"uint256"}],"stateMutability":"view","type":"function"},{"inputs":[{"internalType":"uint256","name":"","type":"uint256"},{"internalType":"uint256","name":"","type":"uint256"}],"name":"disputeVotes","outputs":[{"internalType":"address","name":"voter","type":"address"},{"internalType":"bool","name":"support","type":"bool"},{"internalType":"uint256","name":"weight","type":"uint256"},{"internalType":"uint256","name":"timestamp","type":"uint256"}],"stateMutability":"view","type":"function"},{"inputs":[{"internalType":"uint256","name":"","type":"uint256"}],"name":"disputes","outputs":[{"internalType":"uint256","name":"id","type":"uint256"},{"internalType":"uint256","name":"marketId","type":"uint256"},{"internalType":"address","name":"submitter","type":"address"},{"internalType":"bytes32","name":"evidenceHash","type":"bytes32"},{"internalType":"uint256","name":"stake","type":"uint256"},{"internalType":"uint256","name":"submittedAt","type":"uint256"},{"internalType":"enum AIOracleDispute.DisputeStatus","name":"status","type":"uint8"},{"internalType":"uint256","name":"votesFor","type":"uint256"},{"internalType":"uint256","name":"votesAgainst","type":"uint256"},{"internalType":"uint256","name":"proposedOutcome","type":"uint256"},{"internalType":"uint256","name":"aiConfidence","type":"uint256"}],"stateMutability":"view","type":"function"},{"inputs":[{"internalType":"uint256","name":"disputeId","type":"uint256"}],"name":"getDispute","outputs":[{"components":[{"internalType":"uint256","name":"id","type":"uint256"},{"internalType":"uint256","name":"marketId","type":"uint256"},{"internalType":"address","name":"submitter","type":"address"},{"internalType":"bytes32","name":"evidenceHash","type":"bytes32"},{"internalType":"uint256","name":"stake","type":"uint256"},{"internalType":"uint256","name":"submittedAt","type":"uint256"},{"internalType":"enum AIOracleDispute.DisputeStatus","name":"status","type":"uint8"},{"internalType":"uint256","name":"votesFor","type":"uint256"},{"internalType":"uint256","name":"votesAgainst","type":"uint256"},{"internalType":"uint256","name":"proposedOutcome","type":"uint256"},{"internalType":"uint256","name":"aiConfidence","type":"uint256"}],"internalType":"struct AIOracleDispute.Dispute","name":"","type":"tuple"}],"stateMutability":"view","type":"function"},{"inputs":[{"internalType":"uint256","name":"disputeId","type":"uint256"}],"name":"getDisputeVotes","outputs":[{"components":[{"internalType":"address","name":"voter","type":"address"},{"internalType":"bool","name":"support","type":"bool"},{"internalType":"uint256","name":"weight","type":"uint256"},{"internalType":"uint256","name":"timestamp","type":"uint256"}],"internalType":"struct AIOracleDispute.Vote[]","name":"","type":"tuple[]"}],"stateMutability":"view","type":"function"},{"inputs":[{"internalType":"address","name":"user","type":"address"}],"name":"getReputationScore","outputs":[{"internalType":"uint256","name":"","type":"uint256"}],"stateMutability":"view","type":"function"},{"inputs":[{"internalType":"bytes32","name":"role","type":"bytes32"}],"name":"getRoleAdmin","outputs":[{"internalType":"bytes32","name":"","type":"bytes32"}],"stateMutability":"view","type":"function"},{"inputs":[{"internalType":"bytes32","name":"role","type":"bytes32"},{"internalType":"address","name":"account","type":"address"}],"name":"grantRole","outputs":[],"stateMutability":"nonpayable","type":"function"},{"inputs":[{"internalType":"bytes32","name":"role","type":"bytes32"},{"internalType":"address","name":"account","type":"address"}],"name":"hasRole","outputs":[{"internalType":"bool","name":"","type":"bool"}],"stateMutability":"view","type":"function"},{"inputs":[{"internalType":"uint256","name":"","type":"uint256"},{"internalType":"address","name":"","type":"address"}],"name":"hasVoted","outputs":[{"internalType":"bool","name":"","type":"bool"}],"stateMutability":"view","type":"function"},{"inputs":[{"internalType":"bytes32","name":"role","type":"bytes32"},{"internalType":"address","name":"callerConfirmation","type":"address"}],"name":"renounceRole","outputs":[],"stateMutability":"nonpayable","type":"function"},{"inputs":[{"internalType":"address","name":"","type":"address"}],"name":"reputationScore","outputs":[{"internalType":"uint256","name":"","type":"uint256"}],"stateMutability":"view","type":"function"},{"inputs":[{"internalType":"uint256","name":"disputeId","type":"uint256"}],"name":"resolveDispute","outputs":[],"stateMutability":"nonpayable","type":"function"},{"inputs":[{"internalType":"bytes32","name":"role","type":"bytes32"},{"internalType":"address","name":"account","type":"address"}],"name":"revokeRole","outputs":[],"stateMutability":"nonpayable","type":"function"},{"inputs":[{"internalType":"uint256","name":"marketId","type":"uint256"},{"internalType":"bytes32","name":"evidenceHash","type":"bytes32"},{"internalType":"uint256","name":"proposedOutcome","type":"uint256"}],"name":"submitDispute","outputs":[{"internalType":"uint256","name":"","type":"uint256"}],"stateMutability":"payable","type":"function"},{"inputs":[{"internalType":"uint256","name":"marketId","type":"uint256"},{"internalType":"bytes32","name":"evidenceHash","type":"bytes32"},{"internalType":"uint256","name":"confidence","type":"uint256"}],"name":"suggestDispute","outputs":[],"stateMutability":"nonpayable","type":"function"},{"inputs":[{"internalType":"bytes4","name":"interfaceId","type":"bytes4"}],"name":"supportsInterface","outputs":[{"internalType":"bool","name":"","type":"bool"}],"stateMutability":"view","type":"function"},{"inputs":[{"internalType":"uint256","name":"disputeId","type":"uint256"},{"internalType":"uint256","name":"confidence","type":"uint256"}],"name":"updateAIConfidence","outputs":[],"stateMutability":"nonpayable","type":"function"},{"inputs":[{"internalType":"uint256","name":"disputeId","type":"uint256"},{"internalType":"bool","name":"support","type":"bool"}],"name":"voteOnDispute","outputs":[],"stateMutability":"nonpayable","type":"function"},{"inputs":[],"name":"withdrawRewardsPool","outputs":[],"stateMutability":"nonpayable","type":"function"},{"stateMutability":"payable","type":"receive"}],"evm":{"bytecode":{"linkReferences":{},"object":"60806040523461002657600180556100163361002b565b5060405161183c90816100bc8239f35b600080fd5b6001600160a01b031660008181527fad3228b676f7d3cd4284a5443f17f1962b36e491b30a40b2405849e597ba5fb5602052604081205490919060ff166100b757818052816020526040822081835260205260408220600160ff1982541617905533917f2f8788117e7eff1d82e926ec794901d17c78024a50270940304540a733656f0d8180a4600190565b509056fe60808060405260049081361015610020575b5050361561001e57600080fd5b005b600090813560e01c90816301ffc9a7146110de5750806301ffdb011461107757806302b16c1814610fda578063248a9ca314610fae5780632e80d9b614610f8a5780632f2ff15d14610f4d57806336568abe14610f075780634385963214610ebd57806350d061cb14610dd6578063564a565d14610e0f57806375a67d5c14610dd657806378fab26014610d9b57806387ff3ec214610d6457806391d1485414610d1b57806394984ed314610cc35780639fb0cd5f14610ae0578063a217fddf14610ac4578063a28889e114610aa6578063a4f5df1214610817578063ae169a50146104f1578063b1610d7e146104d3578063c2b7b868146104a7578063c473609214610381578063c601f7af14610346578063cb1c2b5c14610323578063d547741f146102de5763e3a96cbd0361001157346102db5760203660031901126102db578061014061016f6113a0565b8281528260208201528260408201528260608201528260808201528260a08201528260c08201528260e082015282610100820152826101208201520152813581526003602052604081206101c16113a0565b91815483526001820154602084015260018060a01b03600283015416604084015260038201546060840152838201546080840152600582015460a084015260ff60068301541690848210156102c85761016084600a858560c0840152600781015460e084015260088101546101008401526009810154610120840152015461014082015261014060405191805183526020810151602084015260018060a01b036040820151166040840152606081015160608401526080810151608084015260a081015160a084015261029c60c082015160c08501906111ab565b60e081015160e08401526101008101516101008401526101208101516101208401520151610140820152f35b634e487b7160e01b815260218552602490fd5b80fd5b50903461031f57604036600319011261031f5761031b90356102fe61117f565b90808452836020526103166001604086200154611262565b611306565b5080f35b5080fd5b50346102db57806003193601126102db57602060405167016345785d8a00008152f35b50346102db57806003193601126102db5760206040517f482648e7878e9fa54c0a2f67ffd22d00ebc37cf7a03e060e428d2ab0cd6735cc8152f35b50346102db576020918260031936011261031f5780358252808352604082209283549167ffffffffffffffff831161049457509192906103c5838260051b016113f7565b908082528382018093865284862086915b83831061044357505050506040519280840191818552518092526040840192945b8281106104045784840385f35b855180516001600160a01b03168552808301511515858401526040808201519086015260609081015190850152948101946080909301926001016103f7565b6003876001926104569a9997989a6113d7565b60ff8654868060a01b038116835260a01c161515838201528486015460408201526002860154606082015281520192019201919096949395966103d6565b634e487b7160e01b845260419052602483fd5b50903461031f57602036600319011261031f576104cc906104c661141d565b356114ca565b6001805580f35b50346102db57806003193601126102db5760206040516203f4808152f35b50903461031f576020908160031936011261081357803561051061141d565b80845260038352604084209260ff80600686015416948486101595866106875760019687821491828015610806575b156107cb57868a526005865260408a20338b5286528460408b2054161561079857868a5287865260408a20948a918b968c928154935b8481106106d2575b50505050501561069a57610687571561067b57846007820154915b0154861c828102908082048414901517156106685781156106555704938680808088335af16105c561148e565b50156106185750907f24b5efa61dd1cfc659205a97fb8ed868f3cb8c81922bab2b96423e5de1de2cb79133875260068252610608600a6040892092048254611481565b90556040519384523393a3805580f35b60405162461bcd60e51b8152908101839052601660248201527514995dd85c99081d1c985b9cd9995c8819985a5b195960521b6044820152606490fd5b634e487b7160e01b885260128652602488fd5b634e487b7160e01b885260118652602488fd5b84600882015491610598565b634e487b7160e01b885260218652602488fd5b60405162461bcd60e51b81528088018690526011602482015270566f74656420696e636f72726563746c7960781b6044820152606490fd5b6106dc818461114d565b50546001600160a01b031633146106fb576106f69061137b565b610575565b9091929493508598508c61070f828561114d565b5001549861078557868061076e575b15610734575050505050875b388080808061057d565b8d9550929360021492909183610754575b5050501561072a57508761072a565b61075f92935061114d565b505460a01c1615388080610745565b508161077a828561114d565b505460a01c1661071e565b634e487b7160e01b8e5260218c5260248efd5b60405162461bcd60e51b8152808901879052600c60248201526b446964206e6f7420766f746560a01b6044820152606490fd5b60405162461bcd60e51b81528089018790526014602482015273111a5cdc1d5d19481b9bdd081c995cdbdb1d995960621b6044820152606490fd5b508991506002811461053f565b8280fd5b50903461031f57604036600319011261031f578035602480359283151590818503610aa25761084461141d565b83865260209060038252604087209260ff60068501541682811015610a905761086d9015611440565b8588526005835260408820338952835260ff604089205416610a5e5760058401546203f4808101809111610a4c57421015610a1b57670de0b6b3a76400009433895260068452604089205480610a13575b5086895282845260408920916108d26113d7565b3381528581019182526040810192888452606082019442865280549068010000000000000000821015610a01579061090f9160018201815561114d565b9690966109f157505051845491516001600160a81b03199092166001600160a01b03919091161790151560a01b60ff60a01b16178355516001808401919091559051600290920191909155848752600582526040808820338952909252908620805460ff191690911790557f5753e24191300af98a7ca433046c4a8bc06046ea882686b2918e3d6bdd156d81916109d29185156109dc576007016109b4828254611481565b90555b60408051951515865260208601919091523394918291820190565b0390a36001805580f35b6008016109ea828254611481565b90556109b7565b634e487b7160e01b8d528c90528bfd5b634e487b7160e01b8e5260418852828efd5b9550386108be565b50600c846064936040519362461bcd60e51b85528401528201526b159bdd1a5b99c8195b99195960a21b6044820152fd5b634e487b7160e01b8952601183528589fd5b50600d846064936040519362461bcd60e51b85528401528201526c105b1c9958591e481d9bdd1959609a1b6044820152fd5b634e487b7160e01b8952602183528589fd5b8580fd5b50346102db57806003193601126102db576020600254604051908152f35b50346102db57806003193601126102db57602090604051908152f35b50610aea366111ce565b610af592919261141d565b67016345785d8a00003410610c8a5760028111610c5457610b1760025461137b565b938460025584610b256113a0565b91818352602083019085825260408401903382526060850190888252608086019034825260a0870142815260c088019282845260e08901948386526101008a01968488526101208b01988c8a526101408c019a868c5286526003602052604086209b518c555160018c015560028b019060018060a01b039051166bffffffffffffffffffffffff60a01b8254161790555160038a0155518d890155516005880155600687019151908c821015610c41575060209b5090600a959493929160ff801983541691161790555160078601555160088501555160098401555191015560405192835284830152827f42ae8d08b9f07e7cb7020ca4efbdef0f351554acc44886c84ad24feb7775f4f960403394a460018055604051908152f35b634e487b7160e01b815260218d52602490fd5b60405162461bcd60e51b8152602081870152600f60248201526e496e76616c6964206f7574636f6d6560881b6044820152606490fd5b60405162461bcd60e51b81526020818701526012602482015271496e73756666696369656e74207374616b6560701b6044820152606490fd5b50346102db5760407f04382f7c4582b8a59980b11002bcca4af8783f48686b3b71731d79ad40503376610cf5366111ce565b610d009492946111e8565b610d0d60648211156117a5565b82519182526020820152a280f35b50903461031f57604036600319011261031f57604060209260ff92610d3e61117f565b903582528185528282206001600160a01b03909116825284522054604051911615158152f35b50346102db57610d7336611132565b90610d7c6111e8565b610d8960648311156117a5565b82526003602052600a60408320015580f35b50346102db57806003193601126102db5760206040517f92a19c77d2ea87c7f81d50c74403cb2f401780f3ad919571121efe2bdb427eb18152f35b50346102db5760203660031901126102db576020906040906001600160a01b03610dfe611195565b168152600683522054604051908152f35b50903461031f57602036600319011261031f57604061016092823581526003602052209081549160018101549160018060a01b0360028301541690610ea4600384015491840154600585015460ff60068701541691600787015494600888015496600a60098a0154990154996040519b8c5260208c015260408b015260608a0152608089015260a088015260c08701906111ab565b60e0850152610100840152610120830152610140820152f35b50903461031f57604036600319011261031f57604060209260ff92610ee061117f565b90358252600585528282206001600160a01b03909116825284522054604051911615158152f35b50346102db5760403660031901126102db57610f2161117f565b336001600160a01b03821603610f3c5761031b919235611306565b60405163334bd91960e11b81528390fd5b50903461031f57604036600319011261031f5761031b9035610f6d61117f565b9080845283602052610f856001604086200154611262565b611288565b50346102db57806003193601126102db57602060405168056bc75e2d631000008152f35b50903461031f57602036600319011261031f576040602092600192358152808452200154604051908152f35b50903461031f578160031936011261031f57818052816020526040822033835260205260ff6040832054161561105a578180808047335af161101a61148e565b5015611024575080f35b60649060206040519162461bcd60e51b8352820152600f60248201526e15da5d1a191c985dc819985a5b1959608a1b6044820152fd5b6044916040519163e2517d3f60e01b835233908301526024820152fd5b50346102db5761108636611132565b92908252602052604081209081548310156102db5760806110a7848461114d565b50805490600260018201549101549060ff6040519360018060a01b038116855260a01c161515602084015260408301526060820152f35b90508234610813576020366003190112610813573563ffffffff60e01b81168091036108135760209250637965db0b60e01b8114908115611121575b5015158152f35b6301ffc9a760e01b1490508361111a565b6040906003190112611148576004359060243590565b600080fd5b8054821015611169576000526003602060002091020190600090565b634e487b7160e01b600052603260045260246000fd5b602435906001600160a01b038216820361114857565b600435906001600160a01b038216820361114857565b9060048210156111b85752565b634e487b7160e01b600052602160045260246000fd5b606090600319011261114857600435906024359060443590565b3360009081527fc1c604b5add75b59252bca1e4e4ec4ab21f3921b1ddcf7a43abe69724bce555d60205260409020547f482648e7878e9fa54c0a2f67ffd22d00ebc37cf7a03e060e428d2ab0cd6735cc9060ff16156112445750565b6044906040519063e2517d3f60e01b82523360048301526024820152fd5b80600052600060205260406000203360005260205260ff60406000205416156112445750565b9060009180835282602052604083209160018060a01b03169182845260205260ff6040842054161560001461130157808352826020526040832082845260205260408320600160ff198254161790557f2f8788117e7eff1d82e926ec794901d17c78024a50270940304540a733656f0d339380a4600190565b505090565b9060009180835282602052604083209160018060a01b03169182845260205260ff6040842054166000146113015780835282602052604083208284526020526040832060ff1981541690557ff6391f5c32d9c69d2a47ea670b442974b53935d1edc7fd64eb21e047a839171b339380a4600190565b600019811461138a5760010190565b634e487b7160e01b600052601160045260246000fd5b60405190610160820182811067ffffffffffffffff8211176113c157604052565b634e487b7160e01b600052604160045260246000fd5b604051906080820182811067ffffffffffffffff8211176113c157604052565b6040519190601f01601f1916820167ffffffffffffffff8111838210176113c157604052565b60026001541461142e576002600155565b604051633ee5aeb560e01b8152600490fd5b1561144757565b60405162461bcd60e51b815260206004820152601260248201527144697370757465206e6f742061637469766560701b6044820152606490fd5b9190820180921161138a57565b3d156114c5573d9067ffffffffffffffff82116113c1576114b8601f8301601f19166020016113f7565b9182523d6000602084013e565b606090565b9060009180835260209260038452604090818120600681019182549660ff88169760049889811015611792576115009015611440565b60058401546203f480810180911161177f57421061174b576007840180549168056bc75e2d631000006115396008880194855490611481565b106116b957505490541093841561162e57600160ff19825416179055611566888401548060011c90611481565b600284018380808060018060a01b0395868654165af161158461148e565b50156115fb5754168252600690528381208054670de0b6b3a76400008101929083106115e857506000805160206117e783398151915295969750916009916115e393555b01549251911515825260208201929092529081906040820190565b0390a2565b634e487b7160e01b815260118952602490fd5b865162461bcd60e51b8152808b01849052600d60248201526c14995dd85c990819985a5b1959609a1b6044820152606490fd5b805460ff191660029081179091558301546001600160a01b0316825260069052838120805491670de0b6b3a7640000831015611686575b5050506000805160206117e78339815191529394955060096115e3916115c8565b670de0b6b3a763ffff1983019283116115e8575055939450849360096115e36000805160206117e7833981519152611665565b60ff19166003179095555060028301549288015496979596949590949193509183918291829182916001600160a01b03165af16116f461148e565b501561171857508251818152918201526000805160206117e78339815191529190a2565b835162461bcd60e51b8152908101839052600d60248201526c1499599d5b990819985a5b1959609a1b6044820152606490fd5b855162461bcd60e51b8152808a01839052600e60248201526d566f74696e67206f6e676f696e6760901b6044820152606490fd5b634e487b7160e01b845260118a52602484fd5b634e487b7160e01b845260218a52602484fd5b156117ac57565b60405162461bcd60e51b8152602060048201526012602482015271496e76616c696420636f6e666964656e636560701b6044820152606490fdfe5add0b1fc2a3dfd95be33d1d5feb6709087e50213b7a73c3c3b2c387001221e7a2646970667358221220a7cba8e25897a0e0bda4c28dcd9ddeaa9a86e5d1b11210f83f1c8788f1f453ae64736f6c63430008140033","opcodes":"PUSH1 0x80 PUSH1 0x40 MSTORE CALLVALUE PUSH2 0x26 JUMPI PUSH1 0x1 DUP1 SSTORE PUSH2 0x16 CALLER PUSH2 0x2B JUMP JUMPDEST POP PUSH1 0x40 MLOAD PUSH2 0x183C SWAP1 DUP2 PUSH2 0xBC DUP3 CODECOPY RETURN JUMPDEST PUSH1 0x0 DUP1 REVERT JUMPDEST PUSH1 0x1 PUSH1 0x1 PUSH1 0xA0 SHL SUB AND PUSH1 0x0 DUP2 DUP2 MSTORE PUSH32 0xAD3228B676F7D3CD4284A5443F17F1962B36E491B30A40B2405849E597BA5FB5 PUSH1 0x20 MSTORE PUSH1 0x40 DUP2 KECCAK256 SLOAD SWAP1 SWAP2 SWAP1 PUSH1 0xFF AND PUSH2 0xB7 JUMPI DUP2 DUP1 MSTORE DUP2 PUSH1 0x20 MSTORE PUSH1 0x40 DUP3 KECCAK256 DUP2 DUP4 MSTORE PUSH1 0x20 MSTORE PUSH1 0x40 DUP3 KECCAK256 PUSH1 0x1 PUSH1 0xFF NOT DUP3 SLOAD AND OR SWAP1 SSTORE CALLER SWAP2 PUSH32 0x2F8788117E7EFF1D82E926EC794901D17C78024A50270940304540A733656F0D DUP2 DUP1 LOG4 PUSH1 0x1 SWAP1 JUMP JUMPDEST POP SWAP1 JUMP INVALID PUSH1 0x80 DUP1 PUSH1 0x40 MSTORE PUSH1 0x4 SWAP1 DUP2 CALLDATASIZE LT ISZERO PUSH2 0x20 JUMPI JUMPDEST POP POP CALLDATASIZE ISZERO PUSH2 0x1E JUMPI PUSH1 0x0 DUP1 REVERT JUMPDEST STOP JUMPDEST PUSH1 0x0 SWAP1 DUP2 CALLDATALOAD PUSH1 0xE0 SHR SWAP1 DUP2 PUSH4 0x1FFC9A7 EQ PUSH2 0x10DE JUMPI POP DUP1 PUSH4 0x1FFDB01 EQ PUSH2 0x1077 JUMPI DUP1 PUSH4 0x2B16C18 EQ PUSH2 0xFDA JUMPI DUP1 PUSH4 0x248A9CA3 EQ PUSH2 0xFAE JUMPI DUP1 PUSH4 0x2E80D9B6 EQ PUSH2 0xF8A JUMPI DUP1 PUSH4 0x2F2FF15D EQ PUSH2 0xF4D JUMPI DUP1 PUSH4 0x36568ABE EQ PUSH2 0xF07 JUMPI DUP1 PUSH4 0x43859632 EQ PUSH2 0xEBD JUMPI DUP1 PUSH4 0x50D061CB EQ PUSH2 0xDD6 JUMPI DUP1 PUSH4 0x564A565D EQ PUSH2 0xE0F JUMPI DUP1 PUSH4 0x75A67D5C EQ PUSH2 0xDD6 JUMPI DUP1 PUSH4 0x78FAB260 EQ PUSH2 0xD9B JUMPI DUP1 PUSH4 0x87FF3EC2 EQ PUSH2 0xD64 JUMPI DUP1 PUSH4 0x91D14854 EQ PUSH2 0xD1B JUMPI DUP1 PUSH4 0x94984ED3 EQ PUSH2 0xCC3 JUMPI DUP1 PUSH4 0x9FB0CD5F EQ PUSH2 0xAE0 JUMPI DUP1 PUSH4 0xA217FDDF EQ PUSH2 0xAC4 JUMPI DUP1 PUSH4 0xA28889E1 EQ PUSH2 0xAA6 JUMPI DUP1 PUSH4 0xA4F5DF12 EQ PUSH2 0x817 JUMPI DUP1 PUSH4 0xAE169A50 EQ PUSH2 0x4F1 JUMPI DUP1 PUSH4 0xB1610D7E EQ PUSH2 0x4D3 JUMPI DUP1 PUSH4 0xC2B7B868 EQ PUSH2 0x4A7 JUMPI DUP1 PUSH4 0xC4736092 EQ PUSH2 0x381 JUMPI DUP1 PUSH4 0xC601F7AF EQ PUSH2 0x346 JUMPI DUP1 PUSH4 0xCB1C2B5C EQ PUSH2 0x323 JUMPI DUP1 PUSH4 0xD547741F EQ PUSH2 0x2DE JUMPI PUSH4 0xE3A96CBD SUB PUSH2 0x11 JUMPI CALLVALUE PUSH2 0x2DB JUMPI PUSH1 0x20 CALLDATASIZE PUSH1 0x3 NOT ADD SLT PUSH2 0x2DB JUMPI DUP1 PUSH2 0x140 PUSH2 0x16F PUSH2 0x13A0 JUMP JUMPDEST DUP3 DUP2 MSTORE DUP3 PUSH1 0x20 DUP3 ADD MSTORE DUP3 PUSH1 0x40 DUP3 ADD MSTORE DUP3 PUSH1 0x60 DUP3 ADD MSTORE DUP3 PUSH1 0x80 DUP3 ADD MSTORE DUP3 PUSH1 0xA0 DUP3 ADD MSTORE DUP3 PUSH1 0xC0 DUP3 ADD MSTORE DUP3 PUSH1 0xE0 DUP3 ADD MSTORE DUP3 PUSH2 0x100 DUP3 ADD MSTORE DUP3 PUSH2 0x120 DUP3 ADD MSTORE ADD MSTORE DUP2 CALLDATALOAD DUP2 MSTORE PUSH1 0x3 PUSH1 0x20 MSTORE PUSH1 0x40 DUP2 KECCAK256 PUSH2 0x1C1 PUSH2 0x13A0 JUMP JUMPDEST SWAP2 DUP2 SLOAD DUP4 MSTORE PUSH1 0x1 DUP3 ADD SLOAD PUSH1 0x20 DUP5 ADD MSTORE PUSH1 0x1 DUP1 PUSH1 0xA0 SHL SUB PUSH1 0x2 DUP4 ADD SLOAD AND PUSH1 0x40 DUP5 ADD MSTORE PUSH1 0x3 DUP3 ADD SLOAD PUSH1 0x60 DUP5 ADD MSTORE DUP4 DUP3 ADD SLOAD PUSH1 0x80 DUP5 ADD MSTORE PUSH1 0x5 DUP3 ADD SLOAD PUSH1 0xA0 DUP5 ADD MSTORE PUSH1 0xFF PUSH1 0x6 DUP4 ADD SLOAD AND SWAP1 DUP5 DUP3 LT ISZERO PUSH2 0x2C8 JUMPI PUSH2 0x160 DUP5 PUSH1 0xA DUP6 DUP6 PUSH1 0xC0 DUP5 ADD MSTORE PUSH1 0x7 DUP2 ADD SLOAD PUSH1 0xE0 DUP5 ADD MSTORE PUSH1 0x8 DUP2 ADD SLOAD PUSH2 0x100 DUP5 ADD MSTORE PUSH1 0x9 DUP2 ADD SLOAD PUSH2 0x120 DUP5 ADD MSTORE ADD SLOAD PUSH2 0x140 DUP3 ADD MSTORE PUSH2 0x140 PUSH1 0x40 MLOAD SWAP2 DUP1 MLOAD DUP4 MSTORE PUSH1 0x20 DUP2 ADD MLOAD PUSH1 0x20 DUP5 ADD MSTORE PUSH1 0x1 DUP1 PUSH1 0xA0 SHL SUB PUSH1 0x40 DUP3 ADD MLOAD AND PUSH1 0x40 DUP5 ADD MSTORE PUSH1 0x60 DUP2 ADD MLOAD PUSH1 0x60 DUP5 ADD MSTORE PUSH1 0x80 DUP2 ADD MLOAD PUSH1 0x80 DUP5 ADD MSTORE PUSH1 0xA0 DUP2 ADD MLOAD PUSH1 0xA0 DUP5 ADD MSTORE PUSH2 0x29C PUSH1 0xC0 DUP3 ADD MLOAD PUSH1 0xC0 DUP6 ADD SWAP1 PUSH2 0x11AB JUMP JUMPDEST PUSH1 0xE0 DUP2 ADD MLOAD PUSH1 0xE0 DUP5 ADD MSTORE PUSH2 0x100 DUP2 ADD MLOAD PUSH2 0x100 DUP5 ADD MSTORE PUSH2 0x120 DUP2 ADD MLOAD PUSH2 0x120 DUP5 ADD MSTORE ADD MLOAD PUSH2 0x140 DUP3 ADD MSTORE RETURN JUMPDEST PUSH4 0x4E487B71 PUSH1 0xE0 SHL DUP2 MSTORE PUSH1 0x21 DUP6 MSTORE PUSH1 0x24 SWAP1 REVERT JUMPDEST DUP1 REVERT JUMPDEST POP SWAP1 CALLVALUE PUSH2 0x31F JUMPI PUSH1 0x40 CALLDATASIZE PUSH1 0x3 NOT ADD SLT PUSH2 0x31F JUMPI PUSH2 0x31B SWAP1 CALLDATALOAD PUSH2 0x2FE PUSH2 0x117F JUMP JUMPDEST SWAP1 DUP1 DUP5 MSTORE DUP4 PUSH1 0x20 MSTORE PUSH2 0x316 PUSH1 0x1 PUSH1 0x40 DUP7 KECCAK256 ADD SLOAD PUSH2 0x1262 JUMP JUMPDEST PUSH2 0x1306 JUMP JUMPDEST POP DUP1 RETURN JUMPDEST POP DUP1 REVERT JUMPDEST POP CALLVALUE PUSH2 0x2DB JUMPI DUP1 PUSH1 0x3 NOT CALLDATASIZE ADD SLT PUSH2 0x2DB JUMPI PUSH1 0x20 PUSH1 0x40 MLOAD PUSH8 0x16345785D8A0000 DUP2 MSTORE RETURN JUMPDEST POP CALLVALUE PUSH2 0x2DB JUMPI DUP1 PUSH1 0x3 NOT CALLDATASIZE ADD SLT PUSH2 0x2DB JUMPI PUSH1 0x20 PUSH1 0x40 MLOAD PUSH32 0x482648E7878E9FA54C0A2F67FFD22D00EBC37CF7A03E060E428D2AB0CD6735CC DUP2 MSTORE RETURN JUMPDEST POP CALLVALUE PUSH2 0x2DB JUMPI PUSH1 0x20 SWAP2 DUP3 PUSH1 0x3 NOT CALLDATASIZE ADD SLT PUSH2 0x31F JUMPI DUP1 CALLDATALOAD DUP3 MSTORE DUP1 DUP4 MSTORE PUSH1 0x40 DUP3 KECCAK256 SWAP3 DUP4 SLOAD SWAP2 PUSH8 0xFFFFFFFFFFFFFFFF DUP4 GT PUSH2 0x494 JUMPI POP SWAP2 SWAP3 SWAP1 PUSH2 0x3C5 DUP4 DUP3 PUSH1 0x5 SHL ADD PUSH2 0x13F7 JUMP JUMPDEST SWAP1 DUP1 DUP3 MSTORE DUP4 DUP3 ADD DUP1 SWAP4 DUP7 MSTORE DUP5 DUP7 KECCAK256 DUP7 SWAP2 JUMPDEST DUP4 DUP4 LT PUSH2 0x443 JUMPI POP POP POP POP PUSH1 0x40 MLOAD SWAP3 DUP1 DUP5 ADD SWAP2 DUP2 DUP6 MSTORE MLOAD DUP1 SWAP3 MSTORE PUSH1 0x40 DUP5 ADD SWAP3 SWAP5 JUMPDEST DUP3 DUP2 LT PUSH2 0x404 JUMPI DUP5 DUP5 SUB DUP6 RETURN JUMPDEST DUP6 MLOAD DUP1 MLOAD PUSH1 0x1 PUSH1 0x1 PUSH1 0xA0 SHL SUB AND DUP6 MSTORE DUP1 DUP4 ADD MLOAD ISZERO ISZERO DUP6 DUP5 ADD MSTORE PUSH1 0x40 DUP1 DUP3 ADD MLOAD SWAP1 DUP7 ADD MSTORE PUSH1 0x60 SWAP1 DUP2 ADD MLOAD SWAP1 DUP6 ADD MSTORE SWAP5 DUP2 ADD SWAP5 PUSH1 0x80 SWAP1 SWAP4 ADD SWAP3 PUSH1 0x1 ADD PUSH2 0x3F7 JUMP JUMPDEST PUSH1 0x3 DUP8 PUSH1 0x1 SWAP3 PUSH2 0x456 SWAP11 SWAP10 SWAP8 SWAP9 SWAP11 PUSH2 0x13D7 JUMP JUMPDEST PUSH1 0xFF DUP7 SLOAD DUP7 DUP1 PUSH1 0xA0 SHL SUB DUP2 AND DUP4 MSTORE PUSH1 0xA0 SHR AND ISZERO ISZERO DUP4 DUP3 ADD MSTORE DUP5 DUP7 ADD SLOAD PUSH1 0x40 DUP3 ADD MSTORE PUSH1 0x2 DUP7 ADD SLOAD PUSH1 0x60 DUP3 ADD MSTORE DUP2 MSTORE ADD SWAP3 ADD SWAP3 ADD SWAP2 SWAP1 SWAP7 SWAP5 SWAP4 SWAP6 SWAP7 PUSH2 0x3D6 JUMP JUMPDEST PUSH4 0x4E487B71 PUSH1 0xE0 SHL DUP5 MSTORE PUSH1 0x41 SWAP1 MSTORE PUSH1 0x24 DUP4 REVERT JUMPDEST POP SWAP1 CALLVALUE PUSH2 0x31F JUMPI PUSH1 0x20 CALLDATASIZE PUSH1 0x3 NOT ADD SLT PUSH2 0x31F JUMPI PUSH2 0x4CC SWAP1 PUSH2 0x4C6 PUSH2 0x141D JUMP JUMPDEST CALLDATALOAD PUSH2 0x14CA JUMP JUMPDEST PUSH1 0x1 DUP1 SSTORE DUP1 RETURN JUMPDEST POP CALLVALUE PUSH2 0x2DB JUMPI DUP1 PUSH1 0x3 NOT CALLDATASIZE ADD SLT PUSH2 0x2DB JUMPI PUSH1 0x20 PUSH1 0x40 MLOAD PUSH3 0x3F480 DUP2 MSTORE RETURN JUMPDEST POP SWAP1 CALLVALUE PUSH2 0x31F JUMPI PUSH1 0x20 SWAP1 DUP2 PUSH1 0x3 NOT CALLDATASIZE ADD SLT PUSH2 0x813 JUMPI DUP1 CALLDATALOAD PUSH2 0x510 PUSH2 0x141D JUMP JUMPDEST DUP1 DUP5 MSTORE PUSH1 0x3 DUP4 MSTORE PUSH1 0x40 DUP5 KECCAK256 SWAP3 PUSH1 0xFF DUP1 PUSH1 0x6 DUP7 ADD SLOAD AND SWAP5 DUP5 DUP7 LT ISZERO SWAP6 DUP7 PUSH2 0x687 JUMPI PUSH1 0x1 SWAP7 DUP8 DUP3 EQ SWAP2 DUP3 DUP1 ISZERO PUSH2 0x806 JUMPI JUMPDEST ISZERO PUSH2 0x7CB JUMPI DUP7 DUP11 MSTORE PUSH1 0x5 DUP7 MSTORE PUSH1 0x40 DUP11 KECCAK256 CALLER DUP12 MSTORE DUP7 MSTORE DUP5 PUSH1 0x40 DUP12 KECCAK256 SLOAD AND ISZERO PUSH2 0x798 JUMPI DUP7 DUP11 MSTORE DUP8 DUP7 MSTORE PUSH1 0x40 DUP11 KECCAK256 SWAP5 DUP11 SWAP2 DUP12 SWAP7 DUP13 SWAP3 DUP2 SLOAD SWAP4 JUMPDEST DUP5 DUP2 LT PUSH2 0x6D2 JUMPI JUMPDEST POP POP POP POP POP ISZERO PUSH2 0x69A JUMPI PUSH2 0x687 JUMPI ISZERO PUSH2 0x67B JUMPI DUP5 PUSH1 0x7 DUP3 ADD SLOAD SWAP2 JUMPDEST ADD SLOAD DUP7 SHR DUP3 DUP2 MUL SWAP1 DUP1 DUP3 DIV DUP5 EQ SWAP1 ISZERO OR ISZERO PUSH2 0x668 JUMPI DUP2 ISZERO PUSH2 0x655 JUMPI DIV SWAP4 DUP7 DUP1 DUP1 DUP1 DUP9 CALLER GAS CALL PUSH2 0x5C5 PUSH2 0x148E JUMP JUMPDEST POP ISZERO PUSH2 0x618 JUMPI POP SWAP1 PUSH32 0x24B5EFA61DD1CFC659205A97FB8ED868F3CB8C81922BAB2B96423E5DE1DE2CB7 SWAP2 CALLER DUP8 MSTORE PUSH1 0x6 DUP3 MSTORE PUSH2 0x608 PUSH1 0xA PUSH1 0x40 DUP10 KECCAK256 SWAP3 DIV DUP3 SLOAD PUSH2 0x1481 JUMP JUMPDEST SWAP1 SSTORE PUSH1 0x40 MLOAD SWAP4 DUP5 MSTORE CALLER SWAP4 LOG3 DUP1 SSTORE DUP1 RETURN JUMPDEST PUSH1 0x40 MLOAD PUSH3 0x461BCD PUSH1 0xE5 SHL DUP2 MSTORE SWAP1 DUP2 ADD DUP4 SWAP1 MSTORE PUSH1 0x16 PUSH1 0x24 DUP3 ADD MSTORE PUSH22 0x14995DD85C99081D1C985B9CD9995C8819985A5B1959 PUSH1 0x52 SHL PUSH1 0x44 DUP3 ADD MSTORE PUSH1 0x64 SWAP1 REVERT JUMPDEST PUSH4 0x4E487B71 PUSH1 0xE0 SHL DUP9 MSTORE PUSH1 0x12 DUP7 MSTORE PUSH1 0x24 DUP9 REVERT JUMPDEST PUSH4 0x4E487B71 PUSH1 0xE0 SHL DUP9 MSTORE PUSH1 0x11 DUP7 MSTORE PUSH1 0x24 DUP9 REVERT JUMPDEST DUP5 PUSH1 0x8 DUP3 ADD SLOAD SWAP2 PUSH2 0x598 JUMP JUMPDEST PUSH4 0x4E487B71 PUSH1 0xE0 SHL DUP9 MSTORE PUSH1 0x21 DUP7 MSTORE PUSH1 0x24 DUP9 REVERT JUMPDEST PUSH1 0x40 MLOAD PUSH3 0x461BCD PUSH1 0xE5 SHL DUP2 MSTORE DUP1 DUP9 ADD DUP7 SWAP1 MSTORE PUSH1 0x11 PUSH1 0x24 DUP3 ADD MSTORE PUSH17 0x566F74656420696E636F72726563746C79 PUSH1 0x78 SHL PUSH1 0x44 DUP3 ADD MSTORE PUSH1 0x64 SWAP1 REVERT JUMPDEST PUSH2 0x6DC DUP2 DUP5 PUSH2 0x114D JUMP JUMPDEST POP SLOAD PUSH1 0x1 PUSH1 0x1 PUSH1 0xA0 SHL SUB AND CALLER EQ PUSH2 0x6FB JUMPI PUSH2 0x6F6 SWAP1 PUSH2 0x137B JUMP JUMPDEST PUSH2 0x575 JUMP JUMPDEST SWAP1 SWAP2 SWAP3 SWAP5 SWAP4 POP DUP6 SWAP9 POP DUP13 PUSH2 0x70F DUP3 DUP6 PUSH2 0x114D JUMP JUMPDEST POP ADD SLOAD SWAP9 PUSH2 0x785 JUMPI DUP7 DUP1 PUSH2 0x76E JUMPI JUMPDEST ISZERO PUSH2 0x734 JUMPI POP POP POP POP POP DUP8 JUMPDEST CODESIZE DUP1 DUP1 DUP1 DUP1 PUSH2 0x57D JUMP JUMPDEST DUP14 SWAP6 POP SWAP3 SWAP4 PUSH1 0x2 EQ SWAP3 SWAP1 SWAP2 DUP4 PUSH2 0x754 JUMPI JUMPDEST POP POP POP ISZERO PUSH2 0x72A JUMPI POP DUP8 PUSH2 0x72A JUMP JUMPDEST PUSH2 0x75F SWAP3 SWAP4 POP PUSH2 0x114D JUMP JUMPDEST POP SLOAD PUSH1 0xA0 SHR AND ISZERO CODESIZE DUP1 DUP1 PUSH2 0x745 JUMP JUMPDEST POP DUP2 PUSH2 0x77A DUP3 DUP6 PUSH2 0x114D JUMP JUMPDEST POP SLOAD PUSH1 0xA0 SHR AND PUSH2 0x71E JUMP JUMPDEST PUSH4 0x4E487B71 PUSH1 0xE0 SHL DUP15 MSTORE PUSH1 0x21 DUP13 MSTORE PUSH1 0x24 DUP15 REVERT JUMPDEST PUSH1 0x40 MLOAD PUSH3 0x461BCD PUSH1 0xE5 SHL DUP2 MSTORE DUP1 DUP10 ADD DUP8 SWAP1 MSTORE PUSH1 0xC PUSH1 0x24 DUP3 ADD MSTORE PUSH12 0x446964206E6F7420766F7465 PUSH1 0xA0 SHL PUSH1 0x44 DUP3 ADD MSTORE PUSH1 0x64 SWAP1 REVERT JUMPDEST PUSH1 0x40 MLOAD PUSH3 0x461BCD PUSH1 0xE5 SHL DUP2 MSTORE DUP1 DUP10 ADD DUP8 SWAP1 MSTORE PUSH1 0x14 PUSH1 0x24 DUP3 ADD MSTORE PUSH20 0x111A5CDC1D5D19481B9BDD081C995CDBDB1D9959 PUSH1 0x62 SHL PUSH1 0x44 DUP3 ADD MSTORE PUSH1 0x64 SWAP1 REVERT JUMPDEST POP DUP10 SWAP2 POP PUSH1 0x2 DUP2 EQ PUSH2 0x53F JUMP JUMPDEST DUP3 DUP1 REVERT JUMPDEST POP SWAP1 CALLVALUE PUSH2 0x31F JUMPI PUSH1 0x40 CALLDATASIZE PUSH1 0x3 NOT ADD SLT PUSH2 0x31F JUMPI DUP1 CALLDATALOAD PUSH1 0x24 DUP1 CALLDATALOAD SWAP3 DUP4 ISZERO ISZERO SWAP1 DUP2 DUP6 SUB PUSH2 0xAA2 JUMPI PUSH2 0x844 PUSH2 0x141D JUMP JUMPDEST DUP4 DUP7 MSTORE PUSH1 0x20 SWAP1 PUSH1 0x3 DUP3 MSTORE PUSH1 0x40 DUP8 KECCAK256 SWAP3 PUSH1 0xFF PUSH1 0x6 DUP6 ADD SLOAD AND DUP3 DUP2 LT ISZERO PUSH2 0xA90 JUMPI PUSH2 0x86D SWAP1 ISZERO PUSH2 0x1440 JUMP JUMPDEST DUP6 DUP9 MSTORE PUSH1 0x5 DUP4 MSTORE PUSH1 0x40 DUP9 KECCAK256 CALLER DUP10 MSTORE DUP4 MSTORE PUSH1 0xFF PUSH1 0x40 DUP10 KECCAK256 SLOAD AND PUSH2 0xA5E JUMPI PUSH1 0x5 DUP5 ADD SLOAD PUSH3 0x3F480 DUP2 ADD DUP1 SWAP2 GT PUSH2 0xA4C JUMPI TIMESTAMP LT ISZERO PUSH2 0xA1B JUMPI PUSH8 0xDE0B6B3A7640000 SWAP5 CALLER DUP10 MSTORE PUSH1 0x6 DUP5 MSTORE PUSH1 0x40 DUP10 KECCAK256 SLOAD DUP1 PUSH2 0xA13 JUMPI JUMPDEST POP DUP7 DUP10 MSTORE DUP3 DUP5 MSTORE PUSH1 0x40 DUP10 KECCAK256 SWAP2 PUSH2 0x8D2 PUSH2 0x13D7 JUMP JUMPDEST CALLER DUP2 MSTORE DUP6 DUP2 ADD SWAP2 DUP3 MSTORE PUSH1 0x40 DUP2 ADD SWAP3 DUP9 DUP5 MSTORE PUSH1 0x60 DUP3 ADD SWAP5 TIMESTAMP DUP7 MSTORE DUP1 SLOAD SWAP1 PUSH9 0x10000000000000000 DUP3 LT ISZERO PUSH2 0xA01 JUMPI SWAP1 PUSH2 0x90F SWAP2 PUSH1 0x1 DUP3 ADD DUP2 SSTORE PUSH2 0x114D JUMP JUMPDEST SWAP7 SWAP1 SWAP7 PUSH2 0x9F1 JUMPI POP POP MLOAD DUP5 SLOAD SWAP2 MLOAD PUSH1 0x1 PUSH1 0x1 PUSH1 0xA8 SHL SUB NOT SWAP1 SWAP3 AND PUSH1 0x1 PUSH1 0x1 PUSH1 0xA0 SHL SUB SWAP2 SWAP1 SWAP2 AND OR SWAP1 ISZERO ISZERO PUSH1 0xA0 SHL PUSH1 0xFF PUSH1 0xA0 SHL AND OR DUP4 SSTORE MLOAD PUSH1 0x1 DUP1 DUP5 ADD SWAP2 SWAP1 SWAP2 SSTORE SWAP1 MLOAD PUSH1 0x2 SWAP1 SWAP3 ADD SWAP2 SWAP1 SWAP2 SSTORE DUP5 DUP8 MSTORE PUSH1 0x5 DUP3 MSTORE PUSH1 0x40 DUP1 DUP9 KECCAK256 CALLER DUP10 MSTORE SWAP1 SWAP3 MSTORE SWAP1 DUP7 KECCAK256 DUP1 SLOAD PUSH1 0xFF NOT AND SWAP1 SWAP2 OR SWAP1 SSTORE PUSH32 0x5753E24191300AF98A7CA433046C4A8BC06046EA882686B2918E3D6BDD156D81 SWAP2 PUSH2 0x9D2 SWAP2 DUP6 ISZERO PUSH2 0x9DC JUMPI PUSH1 0x7 ADD PUSH2 0x9B4 DUP3 DUP3 SLOAD PUSH2 0x1481 JUMP JUMPDEST SWAP1 SSTORE JUMPDEST PUSH1 0x40 DUP1 MLOAD SWAP6 ISZERO ISZERO DUP7 MSTORE PUSH1 0x20 DUP7 ADD SWAP2 SWAP1 SWAP2 MSTORE CALLER SWAP5 SWAP2 DUP3 SWAP2 DUP3 ADD SWAP1 JUMP JUMPDEST SUB SWAP1 LOG3 PUSH1 0x1 DUP1 SSTORE DUP1 RETURN JUMPDEST PUSH1 0x8 ADD PUSH2 0x9EA DUP3 DUP3 SLOAD PUSH2 0x1481 JUMP JUMPDEST SWAP1 SSTORE PUSH2 0x9B7 JUMP JUMPDEST PUSH4 0x4E487B71 PUSH1 0xE0 SHL DUP14 MSTORE DUP13 SWAP1 MSTORE DUP12 REVERT JUMPDEST PUSH4 0x4E487B71 PUSH1 0xE0 SHL DUP15 MSTORE PUSH1 0x41 DUP9 MSTORE DUP3 DUP15 REVERT JUMPDEST SWAP6 POP CODESIZE PUSH2 0x8BE JUMP JUMPDEST POP PUSH1 0xC DUP5 PUSH1 0x64 SWAP4 PUSH1 0x40 MLOAD SWAP4 PUSH3 0x461BCD PUSH1 0xE5 SHL DUP6 MSTORE DUP5 ADD MSTORE DUP3 ADD MSTORE PUSH12 0x159BDD1A5B99C8195B991959 PUSH1 0xA2 SHL PUSH1 0x44 DUP3 ADD MSTORE REVERT JUMPDEST PUSH4 0x4E487B71 PUSH1 0xE0 SHL DUP10 MSTORE PUSH1 0x11 DUP4 MSTORE DUP6 DUP10 REVERT JUMPDEST POP PUSH1 0xD DUP5 PUSH1 0x64 SWAP4 PUSH1 0x40 MLOAD SWAP4 PUSH3 0x461BCD PUSH1 0xE5 SHL DUP6 MSTORE DUP5 ADD MSTORE DUP3 ADD MSTORE PUSH13 0x105B1C9958591E481D9BDD1959 PUSH1 0x9A SHL PUSH1 0x44 DUP3 ADD MSTORE REVERT JUMPDEST PUSH4 0x4E487B71 PUSH1 0xE0 SHL DUP10 MSTORE PUSH1 0x21 DUP4 MSTORE DUP6 DUP10 REVERT JUMPDEST DUP6 DUP1 REVERT JUMPDEST POP CALLVALUE PUSH2 0x2DB JUMPI DUP1 PUSH1 0x3 NOT CALLDATASIZE ADD SLT PUSH2 0x2DB JUMPI PUSH1 0x20 PUSH1 0x2 SLOAD PUSH1 0x40 MLOAD SWAP1 DUP2 MSTORE RETURN JUMPDEST POP CALLVALUE PUSH2 0x2DB JUMPI DUP1 PUSH1 0x3 NOT CALLDATASIZE ADD SLT PUSH2 0x2DB JUMPI PUSH1 0x20 SWAP1 PUSH1 0x40 MLOAD SWAP1 DUP2 MSTORE RETURN JUMPDEST POP PUSH2 0xAEA CALLDATASIZE PUSH2 0x11CE JUMP JUMPDEST PUSH2 0xAF5 SWAP3 SWAP2 SWAP3 PUSH2 0x141D JUMP JUMPDEST PUSH8 0x16345785D8A0000 CALLVALUE LT PUSH2 0xC8A JUMPI PUSH1 0x2 DUP2 GT PUSH2 0xC54 JUMPI PUSH2 0xB17 PUSH1 0x2 SLOAD PUSH2 0x137B JUMP JUMPDEST SWAP4 DUP5 PUSH1 0x2 SSTORE DUP5 PUSH2 0xB25 PUSH2 0x13A0 JUMP JUMPDEST SWAP2 DUP2 DUP4 MSTORE PUSH1 0x20 DUP4 ADD SWAP1 DUP6 DUP3 MSTORE PUSH1 0x40 DUP5 ADD SWAP1 CALLER DUP3 MSTORE PUSH1 0x60 DUP6 ADD SWAP1 DUP9 DUP3 MSTORE PUSH1 0x80 DUP7 ADD SWAP1 CALLVALUE DUP3 MSTORE PUSH1 0xA0 DUP8 ADD TIMESTAMP DUP2 MSTORE PUSH1 0xC0 DUP9 ADD SWAP3 DUP3 DUP5 MSTORE PUSH1 0xE0 DUP10 ADD SWAP5 DUP4 DUP7 MSTORE PUSH2 0x100 DUP11 ADD SWAP7 DUP5 DUP9 MSTORE PUSH2 0x120 DUP12 ADD SWAP9 DUP13 DUP11 MSTORE PUSH2 0x140 DUP13 ADD SWAP11 DUP7 DUP13 MSTORE DUP7 MSTORE PUSH1 0x3 PUSH1 0x20 MSTORE PUSH1 0x40 DUP7 KECCAK256 SWAP12 MLOAD DUP13 SSTORE MLOAD PUSH1 0x1 DUP13 ADD SSTORE PUSH1 0x2 DUP12 ADD SWAP1 PUSH1 0x1 DUP1 PUSH1 0xA0 SHL SUB SWAP1 MLOAD AND PUSH12 0xFFFFFFFFFFFFFFFFFFFFFFFF PUSH1 0xA0 SHL DUP3 SLOAD AND OR SWAP1 SSTORE MLOAD PUSH1 0x3 DUP11 ADD SSTORE MLOAD DUP14 DUP10 ADD SSTORE MLOAD PUSH1 0x5 DUP9 ADD SSTORE PUSH1 0x6 DUP8 ADD SWAP2 MLOAD SWAP1 DUP13 DUP3 LT ISZERO PUSH2 0xC41 JUMPI POP PUSH1 0x20 SWAP12 POP SWAP1 PUSH1 0xA SWAP6 SWAP5 SWAP4 SWAP3 SWAP2 PUSH1 0xFF DUP1 NOT DUP4 SLOAD AND SWAP2 AND OR SWAP1 SSTORE MLOAD PUSH1 0x7 DUP7 ADD SSTORE MLOAD PUSH1 0x8 DUP6 ADD SSTORE MLOAD PUSH1 0x9 DUP5 ADD SSTORE MLOAD SWAP2 ADD SSTORE PUSH1 0x40 MLOAD SWAP3 DUP4 MSTORE DUP5 DUP4 ADD MSTORE DUP3 PUSH32 0x42AE8D08B9F07E7CB7020CA4EFBDEF0F351554ACC44886C84AD24FEB7775F4F9 PUSH1 0x40 CALLER SWAP5 LOG4 PUSH1 0x1 DUP1 SSTORE PUSH1 0x40 MLOAD SWAP1 DUP2 MSTORE RETURN JUMPDEST PUSH4 0x4E487B71 PUSH1 0xE0 SHL DUP2 MSTORE PUSH1 0x21 DUP14 MSTORE PUSH1 0x24 SWAP1 REVERT JUMPDEST PUSH1 0x40 MLOAD PUSH3 0x461BCD PUSH1 0xE5 SHL DUP2 MSTORE PUSH1 0x20 DUP2 DUP8 ADD MSTORE PUSH1 0xF PUSH1 0x24 DUP3 ADD MSTORE PUSH15 0x496E76616C6964206F7574636F6D65 PUSH1 0x88 SHL PUSH1 0x44 DUP3 ADD MSTORE PUSH1 0x64 SWAP1 REVERT JUMPDEST PUSH1 0x40 MLOAD PUSH3 0x461BCD PUSH1 0xE5 SHL DUP2 MSTORE PUSH1 0x20 DUP2 DUP8 ADD MSTORE PUSH1 0x12 PUSH1 0x24 DUP3 ADD MSTORE PUSH18 0x496E73756666696369656E74207374616B65 PUSH1 0x70 SHL PUSH1 0x44 DUP3 ADD MSTORE PUSH1 0x64 SWAP1 REVERT JUMPDEST POP CALLVALUE PUSH2 0x2DB JUMPI PUSH1 0x40 PUSH32 0x4382F7C4582B8A59980B11002BCCA4AF8783F48686B3B71731D79AD40503376 PUSH2 0xCF5 CALLDATASIZE PUSH2 0x11CE JUMP JUMPDEST PUSH2 0xD00 SWAP5 SWAP3 SWAP5 PUSH2 0x11E8 JUMP JUMPDEST PUSH2 0xD0D PUSH1 0x64 DUP3 GT ISZERO PUSH2 0x17A5 JUMP JUMPDEST DUP3 MLOAD SWAP2 DUP3 MSTORE PUSH1 0x20 DUP3 ADD MSTORE LOG2 DUP1 RETURN JUMPDEST POP SWAP1 CALLVALUE PUSH2 0x31F JUMPI PUSH1 0x40 CALLDATASIZE PUSH1 0x3 NOT ADD SLT PUSH2 0x31F JUMPI PUSH1 0x40 PUSH1 0x20 SWAP3 PUSH1 0xFF SWAP3 PUSH2 0xD3E PUSH2 0x117F JUMP JUMPDEST SWAP1 CALLDATALOAD DUP3 MSTORE DUP2 DUP6 MSTORE DUP3 DUP3 KECCAK256 PUSH1 0x1 PUSH1 0x1 PUSH1 0xA0 SHL SUB SWAP1 SWAP2 AND DUP3 MSTORE DUP5 MSTORE KECCAK256 SLOAD PUSH1 0x40 MLOAD SWAP2 AND ISZERO ISZERO DUP2 MSTORE RETURN JUMPDEST POP CALLVALUE PUSH2 0x2DB JUMPI PUSH2 0xD73 CALLDATASIZE PUSH2 0x1132 JUMP JUMPDEST SWAP1 PUSH2 0xD7C PUSH2 0x11E8 JUMP JUMPDEST PUSH2 0xD89 PUSH1 0x64 DUP4 GT ISZERO PUSH2 0x17A5 JUMP JUMPDEST DUP3 MSTORE PUSH1 0x3 PUSH1 0x20 MSTORE PUSH1 0xA PUSH1 0x40 DUP4 KECCAK256 ADD SSTORE DUP1 RETURN JUMPDEST POP CALLVALUE PUSH2 0x2DB JUMPI DUP1 PUSH1 0x3 NOT CALLDATASIZE ADD SLT PUSH2 0x2DB JUMPI PUSH1 0x20 PUSH1 0x40 MLOAD PUSH32 0x92A19C77D2EA87C7F81D50C74403CB2F401780F3AD919571121EFE2BDB427EB1 DUP2 MSTORE RETURN JUMPDEST POP CALLVALUE PUSH2 0x2DB JUMPI PUSH1 0x20 CALLDATASIZE PUSH1 0x3 NOT ADD SLT PUSH2 0x2DB JUMPI PUSH1 0x20 SWAP1 PUSH1 0x40 SWAP1 PUSH1 0x1 PUSH1 0x1 PUSH1 0xA0 SHL SUB PUSH2 0xDFE PUSH2 0x1195 JUMP JUMPDEST AND DUP2 MSTORE PUSH1 0x6 DUP4 MSTORE KECCAK256 SLOAD PUSH1 0x40 MLOAD SWAP1 DUP2 MSTORE RETURN JUMPDEST POP SWAP1 CALLVALUE PUSH2 0x31F JUMPI PUSH1 0x20 CALLDATASIZE PUSH1 0x3 NOT ADD SLT PUSH2 0x31F JUMPI PUSH1 0x40 PUSH2 0x160 SWAP3 DUP3 CALLDATALOAD DUP2 MSTORE PUSH1 0x3 PUSH1 0x20 MSTORE KECCAK256 SWAP1 DUP2 SLOAD SWAP2 PUSH1 0x1 DUP2 ADD SLOAD SWAP2 PUSH1 0x1 DUP1 PUSH1 0xA0 SHL SUB PUSH1 0x2 DUP4 ADD SLOAD AND SWAP1 PUSH2 0xEA4 PUSH1 0x3 DUP5 ADD SLOAD SWAP2 DUP5 ADD SLOAD PUSH1 0x5 DUP6 ADD SLOAD PUSH1 0xFF PUSH1 0x6 DUP8 ADD SLOAD AND SWAP2 PUSH1 0x7 DUP8 ADD SLOAD SWAP5 PUSH1 0x8 DUP9 ADD SLOAD SWAP7 PUSH1 0xA PUSH1 0x9 DUP11 ADD SLOAD SWAP10 ADD SLOAD SWAP10 PUSH1 0x40 MLOAD SWAP12 DUP13 MSTORE PUSH1 0x20 DUP13 ADD MSTORE PUSH1 0x40 DUP12 ADD MSTORE PUSH1 0x60 DUP11 ADD MSTORE PUSH1 0x80 DUP10 ADD MSTORE PUSH1 0xA0 DUP9 ADD MSTORE PUSH1 0xC0 DUP8 ADD SWAP1 PUSH2 0x11AB JUMP JUMPDEST PUSH1 0xE0 DUP6 ADD MSTORE PUSH2 0x100 DUP5 ADD MSTORE PUSH2 0x120 DUP4 ADD MSTORE PUSH2 0x140 DUP3 ADD MSTORE RETURN JUMPDEST POP SWAP1 CALLVALUE PUSH2 0x31F JUMPI PUSH1 0x40 CALLDATASIZE PUSH1 0x3 NOT ADD SLT PUSH2 0x31F JUMPI PUSH1 0x40 PUSH1 0x20 SWAP3 PUSH1 0xFF SWAP3 PUSH2 0xEE0 PUSH2 0x117F JUMP JUMPDEST SWAP1 CALLDATALOAD DUP3 MSTORE PUSH1 0x5 DUP6 MSTORE DUP3 DUP3 KECCAK256 PUSH1 0x1 PUSH1 0x1 PUSH1 0xA0 SHL SUB SWAP1 SWAP2 AND DUP3 MSTORE DUP5 MSTORE KECCAK256 SLOAD PUSH1 0x40 MLOAD SWAP2 AND ISZERO ISZERO DUP2 MSTORE RETURN JUMPDEST POP CALLVALUE PUSH2 0x2DB JUMPI PUSH1 0x40 CALLDATASIZE PUSH1 0x3 NOT ADD SLT PUSH2 0x2DB JUMPI PUSH2 0xF21 PUSH2 0x117F JUMP JUMPDEST CALLER PUSH1 0x1 PUSH1 0x1 PUSH1 0xA0 SHL SUB DUP3 AND SUB PUSH2 0xF3C JUMPI PUSH2 0x31B SWAP2 SWAP3 CALLDATALOAD PUSH2 0x1306 JUMP JUMPDEST PUSH1 0x40 MLOAD PUSH4 0x334BD919 PUSH1 0xE1 SHL DUP2 MSTORE DUP4 SWAP1 REVERT JUMPDEST POP SWAP1 CALLVALUE PUSH2 0x31F JUMPI PUSH1 0x40 CALLDATASIZE PUSH1 0x3 NOT ADD SLT PUSH2 0x31F JUMPI PUSH2 0x31B SWAP1 CALLDATALOAD PUSH2 0xF6D PUSH2 0x117F JUMP JUMPDEST SWAP1 DUP1 DUP5 MSTORE DUP4 PUSH1 0x20 MSTORE PUSH2 0xF85 PUSH1 0x1 PUSH1 0x40 DUP7 KECCAK256 ADD SLOAD PUSH2 0x1262 JUMP JUMPDEST PUSH2 0x1288 JUMP JUMPDEST POP CALLVALUE PUSH2 0x2DB JUMPI DUP1 PUSH1 0x3 NOT CALLDATASIZE ADD SLT PUSH2 0x2DB JUMPI PUSH1 0x20 PUSH1 0x40 MLOAD PUSH9 0x56BC75E2D63100000 DUP2 MSTORE RETURN JUMPDEST POP SWAP1 CALLVALUE PUSH2 0x31F JUMPI PUSH1 0x20 CALLDATASIZE PUSH1 0x3 NOT ADD SLT PUSH2 0x31F JUMPI PUSH1 0x40 PUSH1 0x20 SWAP3 PUSH1 0x1 SWAP3 CALLDATALOAD DUP2 MSTORE DUP1 DUP5 MSTORE KECCAK256 ADD SLOAD PUSH1 0x40 MLOAD SWAP1 DUP2 MSTORE RETURN JUMPDEST POP SWAP1 CALLVALUE PUSH2 0x31F JUMPI DUP2 PUSH1 0x3 NOT CALLDATASIZE ADD SLT PUSH2 0x31F JUMPI DUP2 DUP1 MSTORE DUP2 PUSH1 0x20 MSTORE PUSH1 0x40 DUP3 KECCAK256 CALLER DUP4 MSTORE PUSH1 0x20 MSTORE PUSH1 0xFF PUSH1 0x40 DUP4 KECCAK256 SLOAD AND ISZERO PUSH2 0x105A JUMPI DUP2 DUP1 DUP1 DUP1 SELFBALANCE CALLER GAS CALL PUSH2 0x101A PUSH2 0x148E JUMP JUMPDEST POP ISZERO PUSH2 0x1024 JUMPI POP DUP1 RETURN JUMPDEST PUSH1 0x64 SWAP1 PUSH1 0x20 PUSH1 0x40 MLOAD SWAP2 PUSH3 0x461BCD PUSH1 0xE5 SHL DUP4 MSTORE DUP3 ADD MSTORE PUSH1 0xF PUSH1 0x24 DUP3 ADD MSTORE PUSH15 0x15DA5D1A191C985DC819985A5B1959 PUSH1 0x8A SHL PUSH1 0x44 DUP3 ADD MSTORE REVERT JUMPDEST PUSH1 0x44 SWAP2 PUSH1 0x40 MLOAD SWAP2 PUSH4 0xE2517D3F PUSH1 0xE0 SHL DUP4 MSTORE CALLER SWAP1 DUP4 ADD MSTORE PUSH1 0x24 DUP3 ADD MSTORE REVERT JUMPDEST POP CALLVALUE PUSH2 0x2DB JUMPI PUSH2 0x1086 CALLDATASIZE PUSH2 0x1132 JUMP JUMPDEST SWAP3 SWAP1 DUP3 MSTORE PUSH1 0x20 MSTORE PUSH1 0x40 DUP2 KECCAK256 SWAP1 DUP2 SLOAD DUP4 LT ISZERO PUSH2 0x2DB JUMPI PUSH1 0x80 PUSH2 0x10A7 DUP5 DUP5 PUSH2 0x114D JUMP JUMPDEST POP DUP1 SLOAD SWAP1 PUSH1 0x2 PUSH1 0x1 DUP3 ADD SLOAD SWAP2 ADD SLOAD SWAP1 PUSH1 0xFF PUSH1 0x40 MLOAD SWAP4 PUSH1 0x1 DUP1 PUSH1 0xA0 SHL SUB DUP2 AND DUP6 MSTORE PUSH1 0xA0 SHR AND ISZERO ISZERO PUSH1 0x20 DUP5 ADD MSTORE PUSH1 0x40 DUP4 ADD MSTORE PUSH1 0x60 DUP3 ADD MSTORE RETURN JUMPDEST SWAP1 POP DUP3 CALLVALUE PUSH2 0x813 JUMPI PUSH1 0x20 CALLDATASIZE PUSH1 0x3 NOT ADD SLT PUSH2 0x813 JUMPI CALLDATALOAD PUSH4 0xFFFFFFFF PUSH1 0xE0 SHL DUP2 AND DUP1 SWAP2 SUB PUSH2 0x813 JUMPI PUSH1 0x20 SWAP3 POP PUSH4 0x7965DB0B PUSH1 0xE0 SHL DUP2 EQ SWAP1 DUP2 ISZERO PUSH2 0x1121 JUMPI JUMPDEST POP ISZERO ISZERO DUP2 MSTORE RETURN JUMPDEST PUSH4 0x1FFC9A7 PUSH1 0xE0 SHL EQ SWAP1 POP DUP4 PUSH2 0x111A JUMP JUMPDEST PUSH1 0x40 SWAP1 PUSH1 0x3 NOT ADD SLT PUSH2 0x1148 JUMPI PUSH1 0x4 CALLDATALOAD SWAP1 PUSH1 0x24 CALLDATALOAD SWAP1 JUMP JUMPDEST PUSH1 0x0 DUP1 REVERT JUMPDEST DUP1 SLOAD DUP3 LT ISZERO PUSH2 0x1169 JUMPI PUSH1 0x0 MSTORE PUSH1 0x3 PUSH1 0x20 PUSH1 0x0 KECCAK256 SWAP2 MUL ADD SWAP1 PUSH1 0x0 SWAP1 JUMP JUMPDEST PUSH4 0x4E487B71 PUSH1 0xE0 SHL PUSH1 0x0 MSTORE PUSH1 0x32 PUSH1 0x4 MSTORE PUSH1 0x24 PUSH1 0x0 REVERT JUMPDEST PUSH1 0x24 CALLDATALOAD SWAP1 PUSH1 0x1 PUSH1 0x1 PUSH1 0xA0 SHL SUB DUP3 AND DUP3 SUB PUSH2 0x1148 JUMPI JUMP JUMPDEST PUSH1 0x4 CALLDATALOAD SWAP1 PUSH1 0x1 PUSH1 0x1 PUSH1 0xA0 SHL SUB DUP3 AND DUP3 SUB PUSH2 0x1148 JUMPI JUMP JUMPDEST SWAP1 PUSH1 0x4 DUP3 LT ISZERO PUSH2 0x11B8 JUMPI MSTORE JUMP JUMPDEST PUSH4 0x4E487B71 PUSH1 0xE0 SHL PUSH1 0x0 MSTORE PUSH1 0x21 PUSH1 0x4 MSTORE PUSH1 0x24 PUSH1 0x0 REVERT JUMPDEST PUSH1 0x60 SWAP1 PUSH1 0x3 NOT ADD SLT PUSH2 0x1148 JUMPI PUSH1 0x4 CALLDATALOAD SWAP1 PUSH1 0x24 CALLDATALOAD SWAP1 PUSH1 0x44 CALLDATALOAD SWAP1 JUMP JUMPDEST CALLER PUSH1 0x0 SWAP1 DUP2 MSTORE PUSH32 0xC1C604B5ADD75B59252BCA1E4E4EC4AB21F3921B1DDCF7A43ABE69724BCE555D PUSH1 0x20 MSTORE PUSH1 0x40 SWAP1 KECCAK256 SLOAD PUSH32 0x482648E7878E9FA54C0A2F67FFD22D00EBC37CF7A03E060E428D2AB0CD6735CC SWAP1 PUSH1 0xFF AND ISZERO PUSH2 0x1244 JUMPI POP JUMP JUMPDEST PUSH1 0x44 SWAP1 PUSH1 0x40 MLOAD SWAP1 PUSH4 0xE2517D3F PUSH1 0xE0 SHL DUP3 MSTORE CALLER PUSH1 0x4 DUP4 ADD MSTORE PUSH1 0x24 DUP3 ADD MSTORE REVERT JUMPDEST DUP1 PUSH1 0x0 MSTORE PUSH1 0x0 PUSH1 0x20 MSTORE PUSH1 0x40 PUSH1 0x0 KECCAK256 CALLER PUSH1 0x0 MSTORE PUSH1 0x20 MSTORE PUSH1 0xFF PUSH1 0x40 PUSH1 0x0 KECCAK256 SLOAD AND ISZERO PUSH2 0x1244 JUMPI POP JUMP JUMPDEST SWAP1 PUSH1 0x0 SWAP2 DUP1 DUP4 MSTORE DUP3 PUSH1 0x20 MSTORE PUSH1 0x40 DUP4 KECCAK256 SWAP2 PUSH1 0x1 DUP1 PUSH1 0xA0 SHL SUB AND SWAP2 DUP3 DUP5 MSTORE PUSH1 0x20 MSTORE PUSH1 0xFF PUSH1 0x40 DUP5 KECCAK256 SLOAD AND ISZERO PUSH1 0x0 EQ PUSH2 0x1301 JUMPI DUP1 DUP4 MSTORE DUP3 PUSH1 0x20 MSTORE PUSH1 0x40 DUP4 KECCAK256 DUP3 DUP5 MSTORE PUSH1 0x20 MSTORE PUSH1 0x40 DUP4 KECCAK256 PUSH1 0x1 PUSH1 0xFF NOT DUP3 SLOAD AND OR SWAP1 SSTORE PUSH32 0x2F8788117E7EFF1D82E926EC794901D17C78024A50270940304540A733656F0D CALLER SWAP4 DUP1 LOG4 PUSH1 0x1 SWAP1 JUMP JUMPDEST POP POP SWAP1 JUMP JUMPDEST SWAP1 PUSH1 0x0 SWAP2 DUP1 DUP4 MSTORE DUP3 PUSH1 0x20 MSTORE PUSH1 0x40 DUP4 KECCAK256 SWAP2 PUSH1 0x1 DUP1 PUSH1 0xA0 SHL SUB AND SWAP2 DUP3 DUP5 MSTORE PUSH1 0x20 MSTORE PUSH1 0xFF PUSH1 0x40 DUP5 KECCAK256 SLOAD AND PUSH1 0x0 EQ PUSH2 0x1301 JUMPI DUP1 DUP4 MSTORE DUP3 PUSH1 0x20 MSTORE PUSH1 0x40 DUP4 KECCAK256 DUP3 DUP5 MSTORE PUSH1 0x20 MSTORE PUSH1 0x40 DUP4 KECCAK256 PUSH1 0xFF NOT DUP2 SLOAD AND SWAP1 SSTORE PUSH32 0xF6391F5C32D9C69D2A47EA670B442974B53935D1EDC7FD64EB21E047A839171B CALLER SWAP4 DUP1 LOG4 PUSH1 0x1 SWAP1 JUMP JUMPDEST PUSH1 0x0 NOT DUP2 EQ PUSH2 0x138A JUMPI PUSH1 0x1 ADD SWAP1 JUMP JUMPDEST PUSH4 0x4E487B71 PUSH1 0xE0 SHL PUSH1 0x0 MSTORE PUSH1 0x11 PUSH1 0x4 MSTORE PUSH1 0x24 PUSH1 0x0 REVERT JUMPDEST PUSH1 0x40 MLOAD SWAP1 PUSH2 0x160 DUP3 ADD DUP3 DUP2 LT PUSH8 0xFFFFFFFFFFFFFFFF DUP3 GT OR PUSH2 0x13C1 JUMPI PUSH1 0x40 MSTORE JUMP JUMPDEST PUSH4 0x4E487B71 PUSH1 0xE0 SHL PUSH1 0x0 MSTORE PUSH1 0x41 PUSH1 0x4 MSTORE PUSH1 0x24 PUSH1 0x0 REVERT JUMPDEST PUSH1 0x40 MLOAD SWAP1 PUSH1 0x80 DUP3 ADD DUP3 DUP2 LT PUSH8 0xFFFFFFFFFFFFFFFF DUP3 GT OR PUSH2 0x13C1 JUMPI PUSH1 0x40 MSTORE JUMP JUMPDEST PUSH1 0x40 MLOAD SWAP2 SWAP1 PUSH1 0x1F ADD PUSH1 0x1F NOT AND DUP3 ADD PUSH8 0xFFFFFFFFFFFFFFFF DUP2 GT DUP4 DUP3 LT OR PUSH2 0x13C1 JUMPI PUSH1 0x40 MSTORE JUMP JUMPDEST PUSH1 0x2 PUSH1 0x1 SLOAD EQ PUSH2 0x142E JUMPI PUSH1 0x2 PUSH1 0x1 SSTORE JUMP JUMPDEST PUSH1 0x40 MLOAD PUSH4 0x3EE5AEB5 PUSH1 0xE0 SHL DUP2 MSTORE PUSH1 0x4 SWAP1 REVERT JUMPDEST ISZERO PUSH2 0x1447 JUMPI JUMP JUMPDEST PUSH1 0x40 MLOAD PUSH3 0x461BCD PUSH1 0xE5 SHL DUP2 MSTORE PUSH1 0x20 PUSH1 0x4 DUP3 ADD MSTORE PUSH1 0x12 PUSH1 0x24 DUP3 ADD MSTORE PUSH18 0x44697370757465206E6F7420616374697665 PUSH1 0x70 SHL PUSH1 0x44 DUP3 ADD MSTORE PUSH1 0x64 SWAP1 REVERT JUMPDEST SWAP2 SWAP1 DUP3 ADD DUP1 SWAP3 GT PUSH2 0x138A JUMPI JUMP JUMPDEST RETURNDATASIZE ISZERO PUSH2 0x14C5 JUMPI RETURNDATASIZE SWAP1 PUSH8 0xFFFFFFFFFFFFFFFF DUP3 GT PUSH2 0x13C1 JUMPI PUSH2 0x14B8 PUSH1 0x1F DUP4 ADD PUSH1 0x1F NOT AND PUSH1 0x20 ADD PUSH2 0x13F7 JUMP JUMPDEST SWAP2 DUP3 MSTORE RETURNDATASIZE PUSH1 0x0 PUSH1 0x20 DUP5 ADD RETURNDATACOPY JUMP JUMPDEST PUSH1 0x60 SWAP1 JUMP JUMPDEST SWAP1 PUSH1 0x0 SWAP2 DUP1 DUP4 MSTORE PUSH1 0x20 SWAP3 PUSH1 0x3 DUP5 MSTORE PUSH1 0x40 SWAP1 DUP2 DUP2 KECCAK256 PUSH1 0x6 DUP2 ADD SWAP2 DUP3 SLOAD SWAP7 PUSH1 0xFF DUP9 AND SWAP8 PUSH1 0x4 SWAP9 DUP10 DUP2 LT ISZERO PUSH2 0x1792 JUMPI PUSH2 0x1500 SWAP1 ISZERO PUSH2 0x1440 JUMP JUMPDEST PUSH1 0x5 DUP5 ADD SLOAD PUSH3 0x3F480 DUP2 ADD DUP1 SWAP2 GT PUSH2 0x177F JUMPI TIMESTAMP LT PUSH2 0x174B JUMPI PUSH1 0x7 DUP5 ADD DUP1 SLOAD SWAP2 PUSH9 0x56BC75E2D63100000 PUSH2 0x1539 PUSH1 0x8 DUP9 ADD SWAP5 DUP6 SLOAD SWAP1 PUSH2 0x1481 JUMP JUMPDEST LT PUSH2 0x16B9 JUMPI POP SLOAD SWAP1 SLOAD LT SWAP4 DUP5 ISZERO PUSH2 0x162E JUMPI PUSH1 0x1 PUSH1 0xFF NOT DUP3 SLOAD AND OR SWAP1 SSTORE PUSH2 0x1566 DUP9 DUP5 ADD SLOAD DUP1 PUSH1 0x1 SHR SWAP1 PUSH2 0x1481 JUMP JUMPDEST PUSH1 0x2 DUP5 ADD DUP4 DUP1 DUP1 DUP1 PUSH1 0x1 DUP1 PUSH1 0xA0 SHL SUB SWAP6 DUP7 DUP7 SLOAD AND GAS CALL PUSH2 0x1584 PUSH2 0x148E JUMP JUMPDEST POP ISZERO PUSH2 0x15FB JUMPI SLOAD AND DUP3 MSTORE PUSH1 0x6 SWAP1 MSTORE DUP4 DUP2 KECCAK256 DUP1 SLOAD PUSH8 0xDE0B6B3A7640000 DUP2 ADD SWAP3 SWAP1 DUP4 LT PUSH2 0x15E8 JUMPI POP PUSH1 0x0 DUP1 MLOAD PUSH1 0x20 PUSH2 0x17E7 DUP4 CODECOPY DUP2 MLOAD SWAP2 MSTORE SWAP6 SWAP7 SWAP8 POP SWAP2 PUSH1 0x9 SWAP2 PUSH2 0x15E3 SWAP4 SSTORE JUMPDEST ADD SLOAD SWAP3 MLOAD SWAP2 ISZERO ISZERO DUP3 MSTORE PUSH1 0x20 DUP3 ADD SWAP3 SWAP1 SWAP3 MSTORE SWAP1 DUP2 SWAP1 PUSH1 0x40 DUP3 ADD SWAP1 JUMP JUMPDEST SUB SWAP1 LOG2 JUMP JUMPDEST PUSH4 0x4E487B71 PUSH1 0xE0 SHL DUP2 MSTORE PUSH1 0x11 DUP10 MSTORE PUSH1 0x24 SWAP1 REVERT JUMPDEST DUP7 MLOAD PUSH3 0x461BCD PUSH1 0xE5 SHL DUP2 MSTORE DUP1 DUP12 ADD DUP5 SWAP1 MSTORE PUSH1 0xD PUSH1 0x24 DUP3 ADD MSTORE PUSH13 0x14995DD85C990819985A5B1959 PUSH1 0x9A SHL PUSH1 0x44 DUP3 ADD MSTORE PUSH1 0x64 SWAP1 REVERT JUMPDEST DUP1 SLOAD PUSH1 0xFF NOT AND PUSH1 0x2 SWAP1 DUP2 OR SWAP1 SWAP2 SSTORE DUP4 ADD SLOAD PUSH1 0x1 PUSH1 0x1 PUSH1 0xA0 SHL SUB AND DUP3 MSTORE PUSH1 0x6 SWAP1 MSTORE DUP4 DUP2 KECCAK256 DUP1 SLOAD SWAP2 PUSH8 0xDE0B6B3A7640000 DUP4 LT ISZERO PUSH2 0x1686 JUMPI JUMPDEST POP POP POP PUSH1 0x0 DUP1 MLOAD PUSH1 0x20 PUSH2 0x17E7 DUP4 CODECOPY DUP2 MLOAD SWAP2 MSTORE SWAP4 SWAP5 SWAP6 POP PUSH1 0x9 PUSH2 0x15E3 SWAP2 PUSH2 0x15C8 JUMP JUMPDEST PUSH8 0xDE0B6B3A763FFFF NOT DUP4 ADD SWAP3 DUP4 GT PUSH2 0x15E8 JUMPI POP SSTORE SWAP4 SWAP5 POP DUP5 SWAP4 PUSH1 0x9 PUSH2 0x15E3 PUSH1 0x0 DUP1 MLOAD PUSH1 0x20 PUSH2 0x17E7 DUP4 CODECOPY DUP2 MLOAD SWAP2 MSTORE PUSH2 0x1665 JUMP JUMPDEST PUSH1 0xFF NOT AND PUSH1 0x3 OR SWAP1 SWAP6 SSTORE POP PUSH1 0x2 DUP4 ADD SLOAD SWAP3 DUP9 ADD SLOAD SWAP7 SWAP8 SWAP6 SWAP7 SWAP5 SWAP6 SWAP1 SWAP5 SWAP2 SWAP4 POP SWAP2 DUP4 SWAP2 DUP3 SWAP2 DUP3 SWAP2 DUP3 SWAP2 PUSH1 0x1 PUSH1 0x1 PUSH1 0xA0 SHL SUB AND GAS CALL PUSH2 0x16F4 PUSH2 0x148E JUMP JUMPDEST POP ISZERO PUSH2 0x1718 JUMPI POP DUP3 MLOAD DUP2 DUP2 MSTORE SWAP2 DUP3 ADD MSTORE PUSH1 0x0 DUP1 MLOAD PUSH1 0x20 PUSH2 0x17E7 DUP4 CODECOPY DUP2 MLOAD SWAP2 MSTORE SWAP2 SWAP1 LOG2 JUMP JUMPDEST DUP4 MLOAD PUSH3 0x461BCD PUSH1 0xE5 SHL DUP2 MSTORE SWAP1 DUP2 ADD DUP4 SWAP1 MSTORE PUSH1 0xD PUSH1 0x24 DUP3 ADD MSTORE PUSH13 0x1499599D5B990819985A5B1959 PUSH1 0x9A SHL PUSH1 0x44 DUP3 ADD MSTORE PUSH1 0x64 SWAP1 REVERT JUMPDEST DUP6 MLOAD PUSH3 0x461BCD PUSH1 0xE5 SHL DUP2 MSTORE DUP1 DUP11 ADD DUP4 SWAP1 MSTORE PUSH1 0xE PUSH1 0x24 DUP3 ADD MSTORE PUSH14 0x566F74696E67206F6E676F696E67 PUSH1 0x90 SHL PUSH1 0x44 DUP3 ADD MSTORE PUSH1 0x64 SWAP1 REVERT JUMPDEST PUSH4 0x4E487B71 PUSH1 0xE0 SHL DUP5 MSTORE PUSH1 0x11 DUP11 MSTORE PUSH1 0x24 DUP5 REVERT JUMPDEST PUSH4 0x4E487B71 PUSH1 0xE0 SHL DUP5 MSTORE PUSH1 0x21 DUP11 MSTORE PUSH1 0x24 DUP5 REVERT JUMPDEST ISZERO PUSH2 0x17AC JUMPI JUMP JUMPDEST PUSH1 0x40 MLOAD PUSH3 0x461BCD PUSH1 0xE5 SHL DUP2 MSTORE PUSH1 0x20 PUSH1 0x4 DUP3 ADD MSTORE PUSH1 0x12 PUSH1 0x24 DUP3 ADD MSTORE PUSH18 0x496E76616C696420636F6E666964656E6365 PUSH1 0x70 SHL PUSH1 0x44 DUP3 ADD MSTORE PUSH1 0x64 SWAP1 REVERT INVALID GAS 0xDD SIGNEXTEND 0x1F 0xC2 LOG3 0xDF 0xD9 JUMPDEST 0xE3 RETURNDATASIZE SAR PUSH0 0xEB PUSH8 0x9087E50213B7A73 0xC3 0xC3 0xB2 0xC3 DUP8 STOP SLT 0x21 0xE7 LOG2 PUSH5 0x6970667358 0x22 SLT KECCAK256 0xA7 0xCB 0xA8 0xE2 PC SWAP8 LOG0 0xE0 0xBD LOG4 0xC2 DUP14 0xCD SWAP14 0xDE 0xAA SWAP11 DUP7 0xE5 0xD1 0xB1 SLT LT 0xF8 EXTCODEHASH SHR DUP8 DUP9 CALL DELEGATECALL MSTORE8 0xAE PUSH5 0x736F6C6343 STOP ADDMOD EQ STOP CALLER "},"methodIdentifiers":{"AI_ORACLE_ROLE()":"c601f7af","DEFAULT_ADMIN_ROLE()":"a217fddf","MIN_STAKE()":"cb1c2b5c","QUORUM()":"2e80d9b6","RESOLVER_ROLE()":"78fab260","VOTING_PERIOD()":"b1610d7e","claimReward(uint256)":"ae169a50","disputeCount()":"a28889e1","disputeVotes(uint256,uint256)":"01ffdb01","disputes(uint256)":"564a565d","getDispute(uint256)":"e3a96cbd","getDisputeVotes(uint256)":"c4736092","getReputationScore(address)":"75a67d5c","getRoleAdmin(bytes32)":"248a9ca3","grantRole(bytes32,address)":"2f2ff15d","hasRole(bytes32,address)":"91d14854","hasVoted(uint256,address)":"43859632","renounceRole(bytes32,address)":"36568abe","reputationScore(address)":"50d061cb","resolveDispute(uint256)":"c2b7b868","revokeRole(bytes32,address)":"d547741f","submitDispute(uint256,bytes32,uint256)":"9fb0cd5f","suggestDispute(uint256,bytes32,uint256)":"94984ed3","supportsInterface(bytes4)":"01ffc9a7","updateAIConfidence(uint256,uint256)":"87ff3ec2","voteOnDispute(uint256,bool)":"a4f5df12","withdrawRewardsPool()":"02b16c18"}}}}}