{"src/MarketAggregator.sol":{"MarketAggregator":{"abi":[{"inputs":[{"internalType":"address","name":"_feeRecipient","type":"address"}],"stateMutability":"nonpayable","type":"constructor"},{"inputs":[],"name":"AccessControlBadConfirmation","type":"error"},{"inputs":[{"internalType":"address","name":"account","type":"address"},{"internalType":"bytes32","name":"neededRole","type":"bytes32"}],"name":"AccessControlUnauthorizedAccount","type":"error"},{"inputs":[],"name":"EnforcedPause","type":"error"},{"inputs":[],"name":"ExpectedPause","type":"error"},{"inputs":[],"name":"ReentrancyGuardReentrantCall","type":"error"},{"anonymous":false,"inputs":[{"indexed":true,"internalType":"uint256","name":"betSlipId","type":"uint256"},{"indexed":true,"internalType":"address","name":"user","type":"address"},{"indexed":false,"internalType":"uint256[]","name":"marketIds","type":"uint256[]"},{"indexed":false,"internalType":"uint256","name":"totalAmount","type":"uint256"}],"name":"BetSlipCreated","type":"event"},{"anonymous":false,"inputs":[{"indexed":true,"internalType":"uint256","name":"betSlipId","type":"uint256"},{"indexed":false,"internalType":"uint256","name":"expectedPayout","type":"uint256"}],"name":"BetSlipPlaced","type":"event"},{"anonymous":false,"inputs":[{"indexed":true,"internalType":"uint256","name":"betSlipId","type":"uint256"},{"indexed":false,"internalType":"uint256","name":"payout","type":"uint256"}],"name":"BetSlipSettled","type":"event"},{"anonymous":false,"inputs":[{"indexed":true,"internalType":"uint256","name":"marketId","type":"uint256"},{"indexed":true,"internalType":"address","name":"marketplace","type":"address"},{"indexed":false,"internalType":"bytes32","name":"externalId","type":"bytes32"}],"name":"ExternalMarketAdded","type":"event"},{"anonymous":false,"inputs":[{"indexed":false,"internalType":"address","name":"newRecipient","type":"address"}],"name":"FeeRecipientUpdated","type":"event"},{"anonymous":false,"inputs":[{"indexed":true,"internalType":"uint256","name":"marketId","type":"uint256"},{"indexed":false,"internalType":"string","name":"question","type":"string"},{"indexed":false,"internalType":"enum MarketAggregator.MarketType","name":"marketType","type":"uint8"},{"indexed":true,"internalType":"address","name":"creator","type":"address"}],"name":"MarketCreated","type":"event"},{"anonymous":false,"inputs":[{"indexed":true,"internalType":"uint256","name":"marketId","type":"uint256"},{"indexed":false,"internalType":"uint256","name":"outcome","type":"uint256"}],"name":"MarketResolved","type":"event"},{"anonymous":false,"inputs":[{"indexed":false,"internalType":"address","name":"account","type":"address"}],"name":"Paused","type":"event"},{"anonymous":false,"inputs":[{"indexed":false,"internalType":"uint256","name":"newFeeBps","type":"uint256"}],"name":"ProtocolFeeUpdated","type":"event"},{"anonymous":false,"inputs":[{"indexed":true,"internalType":"bytes32","name":"role","type":"bytes32"},{"indexed":true,"internalType":"bytes32","name":"previousAdminRole","type":"bytes32"},{"indexed":true,"internalType":"bytes32","name":"newAdminRole","type":"bytes32"}],"name":"RoleAdminChanged","type":"event"},{"anonymous":false,"inputs":[{"indexed":true,"internalType":"bytes32","name":"role","type":"bytes32"},{"indexed":true,"internalType":"address","name":"account","type":"address"},{"indexed":true,"internalType":"address","name":"sender","type":"address"}],"name":"RoleGranted","type":"event"},{"anonymous":false,"inputs":[{"indexed":true,"internalType":"bytes32","name":"role","type":"bytes32"},{"indexed":true,"internalType":"address","name":"account","type":"address"},{"indexed":true,"internalType":"address","name":"sender","type":"address"}],"name":"RoleRevoked","type":"event"},{"anonymous":false,"inputs":[{"indexed":false,"internalType":"address","name":"account","type":"address"}],"name":"Unpaused","type":"event"},{"anonymous":false,"inputs":[{"indexed":true,"internalType":"uint256","name":"betSlipId","type":"uint256"},{"indexed":true,"internalType":"address","name":"user","type":"address"},{"indexed":false,"internalType":"uint256","name":"amount","type":"uint256"}],"name":"WinningsClaimed","type":"event"},{"inputs":[],"name":"DEFAULT_ADMIN_ROLE","outputs":[{"internalType":"bytes32","name":"","type":"bytes32"}],"stateMutability":"view","type":"function"},{"inputs":[],"name":"ORACLE_ROLE","outputs":[{"internalType":"bytes32","name":"","type":"bytes32"}],"stateMutability":"view","type":"function"},{"inputs":[],"name":"ROUTER_ROLE","outputs":[{"internalType":"bytes32","name":"","type":"bytes32"}],"stateMutability":"view","type":"function"},{"inputs":[{"internalType":"uint256","name":"marketId","type":"uint256"},{"internalType":"address","name":"marketplace","type":"address"},{"internalType":"bytes32","name":"externalId","type":"bytes32"},{"internalType":"uint256","name":"price","type":"uint256"},{"internalType":"uint256","name":"liquidity","type":"uint256"}],"name":"addExternalMarket","outputs":[],"stateMutability":"nonpayable","type":"function"},{"inputs":[],"name":"betSlipCount","outputs":[{"internalType":"uint256","name":"","type":"uint256"}],"stateMutability":"view","type":"function"},{"inputs":[{"internalType":"uint256","name":"","type":"uint256"}],"name":"betSlips","outputs":[{"internalType":"uint256","name":"id","type":"uint256"},{"internalType":"address","name":"user","type":"address"},{"internalType":"uint256","name":"totalAmount","type":"uint256"},{"internalType":"uint256","name":"expectedPayout","type":"uint256"},{"internalType":"uint256","name":"actualPayout","type":"uint256"},{"internalType":"enum MarketAggregator.BetStatus","name":"status","type":"uint8"},{"internalType":"uint256","name":"createdAt","type":"uint256"}],"stateMutability":"view","type":"function"},{"inputs":[{"internalType":"uint256","name":"betSlipId","type":"uint256"}],"name":"calculatePayout","outputs":[{"internalType":"uint256","name":"","type":"uint256"}],"stateMutability":"view","type":"function"},{"inputs":[{"internalType":"uint256","name":"betSlipId","type":"uint256"}],"name":"claimWinnings","outputs":[],"stateMutability":"nonpayable","type":"function"},{"inputs":[{"internalType":"uint256[]","name":"marketIds","type":"uint256[]"},{"internalType":"uint256[]","name":"amounts","type":"uint256[]"},{"internalType":"uint256[]","name":"outcomes","type":"uint256[]"}],"name":"createBetSlip","outputs":[{"internalType":"uint256","name":"","type":"uint256"}],"stateMutability":"payable","type":"function"},{"inputs":[{"internalType":"string","name":"question","type":"string"},{"internalType":"string","name":"category","type":"string"},{"internalType":"enum MarketAggregator.MarketType","name":"marketType","type":"uint8"},{"internalType":"uint256","name":"resolutionTime","type":"uint256"}],"name":"createMarket","outputs":[{"internalType":"uint256","name":"","type":"uint256"}],"stateMutability":"nonpayable","type":"function"},{"inputs":[],"name":"emergencyWithdraw","outputs":[],"stateMutability":"nonpayable","type":"function"},{"inputs":[{"internalType":"uint256","name":"","type":"uint256"},{"internalType":"uint256","name":"","type":"uint256"}],"name":"externalMarkets","outputs":[{"internalType":"uint256","name":"marketId","type":"uint256"},{"internalType":"address","name":"marketplace","type":"address"},{"internalType":"bytes32","name":"externalId","type":"bytes32"},{"internalType":"uint256","name":"price","type":"uint256"},{"internalType":"uint256","name":"liquidity","type":"uint256"},{"internalType":"uint256","name":"lastUpdate","type":"uint256"}],"stateMutability":"view","type":"function"},{"inputs":[],"name":"feeRecipient","outputs":[{"internalType":"address","name":"","type":"address"}],"stateMutability":"view","type":"function"},{"inputs":[{"internalType":"uint256","name":"betSlipId","type":"uint256"}],"name":"getBetSlip","outputs":[{"components":[{"internalType":"uint256","name":"id","type":"uint256"},{"internalType":"address","name":"user","type":"address"},{"internalType":"uint256[]","name":"marketIds","type":"uint256[]"},{"internalType":"uint256[]","name":"amounts","type":"uint256[]"},{"internalType":"uint256[]","name":"outcomes","type":"uint256[]"},{"internalType":"uint256","name":"totalAmount","type":"uint256"},{"internalType":"uint256","name":"expectedPayout","type":"uint256"},{"internalType":"uint256","name":"actualPayout","type":"uint256"},{"internalType":"enum MarketAggregator.BetStatus","name":"status","type":"uint8"},{"internalType":"uint256","name":"createdAt","type":"uint256"}],"internalType":"struct MarketAggregator.BetSlip","name":"","type":"tuple"}],"stateMutability":"view","type":"function"},{"inputs":[{"internalType":"uint256","name":"marketId","type":"uint256"}],"name":"getExternalMarkets","outputs":[{"components":[{"internalType":"uint256","name":"marketId","type":"uint256"},{"internalType":"address","name":"marketplace","type":"address"},{"internalType":"bytes32","name":"externalId","type":"bytes32"},{"internalType":"uint256","name":"price","type":"uint256"},{"internalType":"uint256","name":"liquidity","type":"uint256"},{"internalType":"uint256","name":"lastUpdate","type":"uint256"}],"internalType":"struct MarketAggregator.ExternalMarket[]","name":"","type":"tuple[]"}],"stateMutability":"view","type":"function"},{"inputs":[{"internalType":"uint256","name":"marketId","type":"uint256"}],"name":"getMarket","outputs":[{"components":[{"internalType":"uint256","name":"id","type":"uint256"},{"internalType":"string","name":"question","type":"string"},{"internalType":"string","name":"category","type":"string"},{"internalType":"enum MarketAggregator.MarketType","name":"marketType","type":"uint8"},{"internalType":"enum MarketAggregator.MarketStatus","name":"status","type":"uint8"},{"internalType":"uint256","name":"resolutionTime","type":"uint256"},{"internalType":"uint256","name":"totalVolume","type":"uint256"},{"internalType":"address","name":"creator","type":"address"},{"internalType":"uint256","name":"outcome","type":"uint256"},{"internalType":"uint256","name":"createdAt","type":"uint256"}],"internalType":"struct MarketAggregator.Market","name":"","type":"tuple"}],"stateMutability":"view","type":"function"},{"inputs":[{"internalType":"bytes32","name":"role","type":"bytes32"}],"name":"getRoleAdmin","outputs":[{"internalType":"bytes32","name":"","type":"bytes32"}],"stateMutability":"view","type":"function"},{"inputs":[{"internalType":"address","name":"user","type":"address"}],"name":"getUserBetSlips","outputs":[{"internalType":"uint256[]","name":"","type":"uint256[]"}],"stateMutability":"view","type":"function"},{"inputs":[{"internalType":"bytes32","name":"role","type":"bytes32"},{"internalType":"address","name":"account","type":"address"}],"name":"grantRole","outputs":[],"stateMutability":"nonpayable","type":"function"},{"inputs":[{"internalType":"uint256","name":"","type":"uint256"},{"internalType":"address","name":"","type":"address"}],"name":"hasClaimedWinnings","outputs":[{"internalType":"bool","name":"","type":"bool"}],"stateMutability":"view","type":"function"},{"inputs":[{"internalType":"bytes32","name":"role","type":"bytes32"},{"internalType":"address","name":"account","type":"address"}],"name":"hasRole","outputs":[{"internalType":"bool","name":"","type":"bool"}],"stateMutability":"view","type":"function"},{"inputs":[],"name":"marketCount","outputs":[{"internalType":"uint256","name":"","type":"uint256"}],"stateMutability":"view","type":"function"},{"inputs":[{"internalType":"uint256","name":"","type":"uint256"}],"name":"markets","outputs":[{"internalType":"uint256","name":"id","type":"uint256"},{"internalType":"string","name":"question","type":"string"},{"internalType":"string","name":"category","type":"string"},{"internalType":"enum MarketAggregator.MarketType","name":"marketType","type":"uint8"},{"internalType":"enum MarketAggregator.MarketStatus","name":"status","type":"uint8"},{"internalType":"uint256","name":"resolutionTime","type":"uint256"},{"internalType":"uint256","name":"totalVolume","type":"uint256"},{"internalType":"address","name":"creator","type":"address"},{"internalType":"uint256","name":"outcome","type":"uint256"},{"internalType":"uint256","name":"createdAt","type":"uint256"}],"stateMutability":"view","type":"function"},{"inputs":[],"name":"pause","outputs":[],"stateMutability":"nonpayable","type":"function"},{"inputs":[],"name":"paused","outputs":[{"internalType":"bool","name":"","type":"bool"}],"stateMutability":"view","type":"function"},{"inputs":[],"name":"protocolFeeBps","outputs":[{"internalType":"uint256","name":"","type":"uint256"}],"stateMutability":"view","type":"function"},{"inputs":[{"internalType":"uint256","name":"betSlipId","type":"uint256"},{"internalType":"uint256","name":"expectedPayout","type":"uint256"}],"name":"recordBetPlaced","outputs":[],"stateMutability":"nonpayable","type":"function"},{"inputs":[{"internalType":"bytes32","name":"role","type":"bytes32"},{"internalType":"address","name":"callerConfirmation","type":"address"}],"name":"renounceRole","outputs":[],"stateMutability":"nonpayable","type":"function"},{"inputs":[{"internalType":"uint256","name":"marketId","type":"uint256"},{"internalType":"uint256","name":"outcome","type":"uint256"}],"name":"resolveMarket","outputs":[],"stateMutability":"nonpayable","type":"function"},{"inputs":[{"internalType":"bytes32","name":"role","type":"bytes32"},{"internalType":"address","name":"account","type":"address"}],"name":"revokeRole","outputs":[],"stateMutability":"nonpayable","type":"function"},{"inputs":[{"internalType":"address","name":"newRecipient","type":"address"}],"name":"setFeeRecipient","outputs":[],"stateMutability":"nonpayable","type":"function"},{"inputs":[{"internalType":"uint256","name":"newFeeBps","type":"uint256"}],"name":"setProtocolFee","outputs":[],"stateMutability":"nonpayable","type":"function"},{"inputs":[{"internalType":"uint256","name":"betSlipId","type":"uint256"}],"name":"settleBetSlip","outputs":[],"stateMutability":"nonpayable","type":"function"},{"inputs":[{"internalType":"bytes4","name":"interfaceId","type":"bytes4"}],"name":"supportsInterface","outputs":[{"internalType":"bool","name":"","type":"bool"}],"stateMutability":"view","type":"function"},{"inputs":[],"name":"unpause","outputs":[],"stateMutability":"nonpayable","type":"function"},{"inputs":[{"internalType":"address","name":"","type":"address"},{"internalType":"uint256","name":"","type":"uint256"}],"name":"userBetSlips","outputs":[{"internalType":"uint256","name":"","type":"uint256"}],"stateMutability":"view","type":"function"},{"stateMutability":"payable","type":"receive"}],"evm":{"bytecode":{"linkReferences":{},"object":"608034620000ca57601f620028e738819003918201601f19168301916001600160401b03831184841017620000cf57808492602094604052833981010312620000ca57516001600160a01b03811690819003620000ca576001805560c860055580156200009657600680546001600160a01b0319169190911790556200008533620000e5565b506040516127709081620001778239f35b60405162461bcd60e51b815260206004820152600c60248201526b5a65726f206164647265737360a01b6044820152606490fd5b600080fd5b634e487b7160e01b600052604160045260246000fd5b6001600160a01b031660008181527fad3228b676f7d3cd4284a5443f17f1962b36e491b30a40b2405849e597ba5fb5602052604081205490919060ff166200017257818052816020526040822081835260205260408220600160ff1982541617905533917f2f8788117e7eff1d82e926ec794901d17c78024a50270940304540a733656f0d8180a4600190565b509056fe608080604052600436101561001d575b50361561001b57600080fd5b005b60003560e01c90816301ffc9a714611eec5750806307e2cea514611eb157806310f8761514611e35578063248a9ca314611e065780632f2ff15d14611dc757806330d643b514611d8c57806332d268a514611bd957806335659fb814611bbb57806336568abe14611b745780633b8f825c14611b225780633bb91c7714611afc5780633f4ba83a14611a925780634690484014611a695780635023a0c9146119e8578063539f2e711461196e5780635c975abb1461194b5780636055733314611855578063634b63ee146117fd578063677bd9ff1461156c5780636fa8a7d514611441578063787dce3d146113b75780638456cb591461135d57806391d148541461131057806398b111a214610eb4578063a217fddf14610e98578063a49a361514610e7a578063b1283e7714610da0578063bfb5e06a14610819578063d547741f146107da578063d7fb1f631461078d578063db2e21bc146106e7578063de119a6f146105c1578063e74b981b1461051c578063eb44fdd314610373578063ec979082146103555763f680ecb7146101b6573861000f565b346103505760a0366003190112610350576004356101d2611f55565b9060443591606435906101e3612265565b82600052600760205261020d60ff60036040600020015460081c1661020781611fb5565b15612446565b612710821161031b578260005260086020526040600020936040519261023284612025565b848452602084019360018060a01b03809416968786526040820192848452606083019081526080830190608435825260a08401924284528054600160401b8110156103055761028691600182018155611fbf565b9590956102ef577fcd5f1b4a4e3193da21353d6588f9c9b44c85fce850d2f6483cf90583d299b02e98602098600596518855600188019151166001600160601b0360a01b82541617905551600286015551600385015551600484015551910155604051908152a3005b634e487b7160e01b600052600060045260246000fd5b634e487b7160e01b600052604160045260246000fd5b60405162461bcd60e51b815260206004820152600d60248201526c496e76616c696420707269636560981b6044820152606490fd5b600080fd5b34610350576000366003190112610350576020600354604051908152f35b3461035057602036600319011261035057600061012060405161039581612009565b82815260606020820152606060408201528260608201528260808201528260a08201528260c08201528260e0820152826101008201520152600435600052600760205260406000206008604051916103ec83612009565b805483526103fc600182016120fd565b602084015261040d600282016120fd565b604084015260ff600382015461042882821660608701612423565b831c1661043481611fb5565b6080840152600481015460a0840152600581015460c084015260018060a01b0360068201541660e0840152600781015461010084015201546101208201526040518091602082528051602083015260208101516101206104bb6104a5610140938460408801526101608701906121a3565b6040850151868203601f190160608801526121a3565b926104ce606082015160808701906121e3565b60808101516104dc81611fb5565b60a086015260a081015160c086015260c081015160e086015260018060a01b0360e082015116610100860152610100810151828601520151908301520390f35b3461035057602036600319011261035057610535611f6b565b61053d6122c1565b6001600160a01b0316801561058d576020817f7a7b5a0a132f9e0581eb8527f66eae9ee89c2a3e79d4ac7e41a1f1f4d48a7fc2926001600160601b0360a01b6006541617600655604051908152a1005b60405162461bcd60e51b815260206004820152600c60248201526b5a65726f206164647265737360a01b6044820152606490fd5b3461035057602080600319360112610350576004356000526008815260406000209081546105ee816121f0565b906105fc6040519283612040565b8082528282018094600052836000206000915b83831061068c5760408051878152865181890181905289928201908960005b82811061063b5784840385f35b855180518552808301516001600160a01b03168584015260408082015190860152606080820151908601526080808201519086015260a090810151908501529481019460c09093019260010161062e565b60068660019260405161069e81612025565b85548152848060a01b03858701541683820152600286015460408201526003860154606082015260048601546080820152600586015460a082015281520192019201919061060f565b34610350576000366003190112610350576107006122c1565b60ff600254161561075b57600080808047335af161071c612530565b501561072457005b60405162461bcd60e51b815260206004820152600f60248201526e15da5d1a191c985dc819985a5b1959608a1b6044820152606490fd5b60405162461bcd60e51b815260206004820152600a602482015269139bdd081c185d5cd95960b21b6044820152606490fd5b34610350576040366003190112610350576107a6611f55565b600435600052600b60205260406000209060018060a01b0316600052602052602060ff604060002054166040519015158152f35b346103505760403660031901126103505761001b6004356107f9611f55565b908060005260006020526108146001604060002001546122fb565b61239f565b6060366003190112610350576004356001600160401b03811161035057610844903690600401612207565b6024356001600160401b03811161035057610863903690600401612207565b906044356001600160401b03811161035057610883903690600401612207565b9161088c61257e565b610894612560565b815115610d6a576108a88251825114612486565b6108b58251845114612486565b6000805b825182101561096e576108cc82846124c4565b511561093b5761092f610935916108f060016108e8868a6124c4565b5111156124d8565b6108fa84876124c4565b51600052600760205261091e60ff60036040600020015460081c1661020781611fb5565b61092884866124c4565b5190612516565b91612414565b906108b9565b60405162461bcd60e51b815260206004820152600b60248201526a16995c9bc8185b5bdd5b9d60aa1b6044820152606490fd5b92939050823410610d2e57610984600454612414565b91826004556040519161099683612009565b83835233602084015285604084015281606084015260808301528360a0830152600060c0830152600060e0830152600061010083015242610120830152826000526009602052604060002092825184556001840160018060a01b036020850151166001600160601b0360a01b82541617905560408301518051906001600160401b03821161030557600160401b8211610305576020906002870154836002890155808410610d0e575b500160028601600052602060002060005b838110610cfa575050505060608301518051906001600160401b03821161030557600160401b8211610305576020906003870154836003890155808410610cda575b500160038601600052602060002060005b838110610cc6575050505060808301518051906001600160401b03821161030557600160401b8211610305576020906004870154836004890155808410610ca6575b500160048601600052602060002060005b838110610c92575050505060a0830151936005948582015560c08401516006820155600961012060e0860151956007968785015560088401610100820151610b3d81611fb5565b610b4681611fb5565b60ff80198354169116179055015191015533600052600a60205260406000208054600160401b81101561030557610b8291600182018155611ff1565b81549060031b9083821b91600019901b191617905560005b8651811015610be25780610bb1610bdd92856124c4565b51610bbc828a6124c4565b5160005285602052610bd687604060002001918254612516565b9055612414565b610b9a565b868287803411610c3e575b817fccd5e8f47687ed6ace2e906724f744fbcbc9473df719775175787145984e0722602094610c2760405191604083526040830190611f81565b93868201528033940390a360018055604051908152f35b6000808080610c4d8534612523565b335af1610c58612530565b50610bed5760405162461bcd60e51b815260206004820152600d60248201526c1499599d5b990819985a5b1959609a1b6044820152606490fd5b600190602084519401938184015501610af6565b610cc090600489016000528484600020918201910161242f565b89610ae5565b600190602084519401938184015501610aa3565b610cf490600389016000528484600020918201910161242f565b89610a92565b600190602084519401938184015501610a50565b610d2890600289016000528484600020918201910161242f565b89610a3f565b60405162461bcd60e51b8152602060048201526014602482015273125b9cdd59999a58da595b9d081c185e5b595b9d60621b6044820152606490fd5b60405162461bcd60e51b815260206004820152600e60248201526d0456d7074792062657420736c69760941b6044820152606490fd5b3461035057602036600319011261035057600435600052600760205260406000208054610dcf600183016120fd565b91610ddc600282016120fd565b60038201549160ff8360081c16600482015460058301549060018060a01b0360068501541692610e4d610e3f6008600788015497015497610e316040519c8d9c8d5260208d61014091829101528d01906121a3565b908b820360408d01526121a3565b9760ff60608b0191166121e3565b610e5681611fb5565b608088015260a087015260c086015260e08501526101008401526101208301520390f35b34610350576000366003190112610350576020600454604051908152f35b3461035057600036600319011261035057602060405160008152f35b34610350576080366003190112610350576004356001600160401b03811161035057610ee490369060040161207c565b6024356001600160401b03811161035057610f0390369060040161207c565b9060026044351015610350574260643511156112cb5780511561129557610f2b600354612414565b908160035560405192610f3d84612009565b8284528160208501526040840152610f5a60443560608501612423565b6000608084015260643560a0840152600060c08401523360e0840152600061010084015242610120840152816000526007602052604060002083518155602084015180516001600160401b03811161030557806001840192610fbc84546120c3565b601f8111611263575b50602090601f83116001146111fd576000926111f2575b50508160011b916000199060031b1c19161790555b604084015180516001600160401b0381116103055780600284019261101684546120c3565b601f81116111b5575b50602090601f831160011461114f57600092611144575b50508160011b916000199060031b1c19161790555b600381016060850151600281101561112e5760209582610120926008945460ff61ff00608086015161107c81611fb5565b61108581611fb5565b881b1692169061ffff19161717905560a0810151600485015560c081015160058501556006840160018060a01b0360e0830151166001600160601b0360a01b82541617905561010081015160078501550151910155817feb26f03db4373768b6c28d7daba68ff2ebcd4eb262913ee84cdcdf8d986180a6611111604051936040855260408501906121a3565b926111208682016044356121e3565b8033940390a3604051908152f35b634e487b7160e01b600052602160045260246000fd5b015190508780611036565b6000858152602081209350601f198516905b81811061119d5750908460019594939210611184575b505050811b01905561104b565b015160001960f88460031b161c19169055878080611177565b92936020600181928786015181550195019301611161565b6111e290856000526020600020601f850160051c810191602086106111e8575b601f0160051c019061242f565b8861101f565b90915081906111d5565b015190508780610fdc565b6000858152602081209350601f198516905b81811061124b5750908460019594939210611232575b505050811b019055610ff1565b015160001960f88460031b161c19169055878080611225565b9293602060018192878601518155019501930161120f565b61128f90856000526020600020601f850160051c810191602086106111e857601f0160051c019061242f565b88610fc5565b60405162461bcd60e51b815260206004820152600e60248201526d22b6b83a3c9038bab2b9ba34b7b760911b6044820152606490fd5b60405162461bcd60e51b815260206004820152601760248201527f496e76616c6964207265736f6c7574696f6e2074696d650000000000000000006044820152606490fd5b3461035057604036600319011261035057611329611f55565b600435600052600060205260406000209060018060a01b0316600052602052602060ff604060002054166040519015158152f35b34610350576000366003190112610350576113766122c1565b61137e612560565b600160ff1960025416176002557f62e78cea01bee320cd4e420270b5ea74000d11b0c9f74754ebdbfc544b05a2586020604051338152a1005b34610350576020366003190112610350576004356113d36122c1565b6103e8811161140d576020817fd10d75876659a287a59a6ccfa2e3fff42f84d94b542837acd30bc184d562de4092600555604051908152a1005b60405162461bcd60e51b815260206004820152600c60248201526b08ccaca40e8dede40d0d2ced60a31b6044820152606490fd5b34610350576020806003193601126103505760043561145e61257e565b80600052600982526040600020916008928381019081549060ff958683169661148688611fb5565b61149360018099146125a1565b600091600284018054935b8481106114f0578a8a7fb4c40c610d42f26b552337b28941eb480eb9ec7e9e216a03509dd5fa08d47f7a8b60078c60028d8d6114d9886125de565b940184905560ff1916179055604051908152a28055005b8a846114fc8385611ff1565b9054600391821b1c60005260078c5260406000200154851c1661151e81611fb5565b036115315761152c90612414565b61149e565b60405162461bcd60e51b8152600481018a9052601360248201527213585c9ad95d081b9bdd081c995cdbdb1d9959606a1b6044820152606490fd5b34610350576020806003193601126103505760043561158961257e565b8060005260098252604060002091600260ff6008850154166115aa81611fb5565b036117cb5760018301546001600160a01b0393908416330361179a5782600052600b8252604060002033600052825260ff60406000205416611763576007018054156117305782600052600b825260406000203360005282526040600020600160ff198254161790555460055480820290828204148215171561171a5761271061163691048092612523565b93600080808088335af1611648612530565b50156116e35781611687575b50507f5380cf6fe903b40c6d5a9e0dfbca2f3a423f0a21520b4d5947ed5169bdba946d906040519384523393a360018055005b60008080938193600654165af161169c612530565b50156116a9578380611654565b6064906040519062461bcd60e51b825260048201526013602482015272119959481d1c985b9cd9995c8819985a5b1959606a1b6044820152fd5b60405162461bcd60e51b815260048101849052600f60248201526e151c985b9cd9995c8819985a5b1959608a1b6044820152606490fd5b634e487b7160e01b600052601160045260246000fd5b60405162461bcd60e51b815260048101839052600b60248201526a4e6f2077696e6e696e677360a81b6044820152606490fd5b60405162461bcd60e51b815260048101839052600f60248201526e105b1c9958591e4818db185a5b5959608a1b6044820152606490fd5b60405162461bcd60e51b81526004810183905260096024820152682737ba1037bbb732b960b91b6044820152606490fd5b6064906040519062461bcd60e51b82526004820152600b60248201526a139bdd081cd95d1d1b195960aa1b6044820152fd5b3461035057604036600319011261035057611816611f6b565b6001600160a01b03166000908152600a60205260409020805460243591908210156103505760209161184791611ff1565b90546040519160031b1c8152f35b346103505761186336611f3f565b3360009081527fa629f6981c2f6895a67dc766e8e03ff72d04a413d0d8773a3ca56e9e474032c160205260409020547f68e79a7bf1e0bc45d0a330c573bc367f9cf464fd326078812f301165fbda4ef19060ff161561192d575060207f6dfc24f0f2fb42e49fb4fa3ffa8abb148cab908a1fb8335b3f128a08b2594af1918360005260078252806007604060002060038101610100815461190d60ff8260081c1661020781611fb5565b61191a60028711156124d8565b61ff0019161790550155604051908152a2005b6044906040519063e2517d3f60e01b82523360048301526024820152fd5b3461035057600036600319011261035057602060ff600254166040519015158152f35b346103505761197c36611f3f565b906000526008602052604060002080548210156103505760c09161199f91611fbf565b5080549060018060a01b036001820154169060028101546003820154906005600484015493015493604051958652602086015260408501526060840152608083015260a0820152f35b3461035057602036600319011261035057600435600052600960205260e0604060002080549060018060a01b036001820154169060058101546006820154600783015491600960ff600886015416940154946040519687526020870152604086015260608501526080840152611a5d81611fb5565b60a083015260c0820152f35b34610350576000366003190112610350576006546040516001600160a01b039091168152602090f35b3461035057600036600319011261035057611aab6122c1565b60025460ff811615611aea5760ff19166002557f5db9ee0a495bf2e6ff9c91a7834c1ba4fdd244a5e8aa4e537bd38aeae4b073aa6020604051338152a1005b604051638dfc202b60e01b8152600490fd5b34610350576020366003190112610350576020611b1a6004356125de565b604051908152f35b34610350576020366003190112610350576001600160a01b03611b43611f6b565b16600052600a602052611b70611b5c60406000206126eb565b604051918291602083526020830190611f81565b0390f35b3461035057604036600319011261035057611b8d611f55565b336001600160a01b03821603611ba95761001b9060043561239f565b60405163334bd91960e11b8152600490fd5b34610350576000366003190112610350576020600554604051908152f35b34610350576020366003190112610350576000610120604051611bfb81612009565b82815282602082015260606040820152606080820152606060808201528260a08201528260c08201528260e082015282610100820152015260043560005260096020526040600020600960405191611c5283612009565b8054835260018101546001600160a01b03166020840152611c75600282016126eb565b6040840152611c86600382016126eb565b6060840152611c97600482016126eb565b6080840152600581015460a0840152600681015460c0840152600781015460e084015260ff600882015416611ccb81611fb5565b61010084015201546101208201526040518091602082528051602083015260018060a01b0360208201511660408301526040810151610120611d4f611d1e61014093846060880152610160870190611f81565b611d3a606086015191601f1992838983030160808a0152611f81565b906080860151908783030160a0880152611f81565b9260a081015160c086015260c081015160e086015260e0810151610100860152610100810151611d7e81611fb5565b828601520151908301520390f35b346103505760003660031901126103505760206040517f7a05a596cb0ce7fdea8a1e1ec73be300bdb35097c944ce1897202f7a13122eb28152f35b346103505760403660031901126103505761001b600435611de6611f55565b90806000526000602052611e016001604060002001546122fb565b612321565b346103505760203660031901126103505760043560005260006020526020600160406000200154604051908152f35b346103505760207f5d991a3a86d27bb31ecebc73702087903744a5b069c25e6bb5eb8b48f27314fd611e6636611f3f565b611e71939193612265565b836000526009825280600660406000206008810160018154611e9f60ff8216611e9981611fb5565b156125a1565b60ff19161790550155604051908152a2005b346103505760003660031901126103505760206040517f68e79a7bf1e0bc45d0a330c573bc367f9cf464fd326078812f301165fbda4ef18152f35b34610350576020366003190112610350576004359063ffffffff60e01b821680920361035057602091637965db0b60e01b8114908115611f2e575b5015158152f35b6301ffc9a760e01b14905083611f27565b6040906003190112610350576004359060243590565b602435906001600160a01b038216820361035057565b600435906001600160a01b038216820361035057565b90815180825260208080930193019160005b828110611fa1575050505090565b835185529381019392810192600101611f93565b6004111561112e57565b8054821015611fdb576000526006602060002091020190600090565b634e487b7160e01b600052603260045260246000fd5b8054821015611fdb5760005260206000200190600090565b61014081019081106001600160401b0382111761030557604052565b60c081019081106001600160401b0382111761030557604052565b90601f801991011681019081106001600160401b0382111761030557604052565b6001600160401b03811161030557601f01601f191660200190565b81601f820112156103505780359061209382612061565b926120a16040519485612040565b8284526020838301011161035057816000926020809301838601378301015290565b90600182811c921680156120f3575b60208310146120dd57565b634e487b7160e01b600052602260045260246000fd5b91607f16916120d2565b9060405191826000825492612111846120c3565b908184526001948581169081600014612180575060011461213d575b505061213b92500383612040565b565b9093915060005260209081600020936000915b81831061216857505061213b9350820101388061212d565b85548884018501529485019487945091830191612150565b91505061213b94506020925060ff191682840152151560051b820101388061212d565b919082519283825260005b8481106121cf575050826000602080949584010152601f8019910116010190565b6020818301810151848301820152016121ae565b90600282101561112e5752565b6001600160401b0381116103055760051b60200190565b81601f820112156103505780359161221e836121f0565b9261222c6040519485612040565b808452602092838086019260051b820101928311610350578301905b828210612256575050505090565b81358152908301908301612248565b3360009081527fb5816a4d525ce17c45785e5fbae4518f6f00ef4e9d31d4d7bb129b76152ed32f60205260409020547f7a05a596cb0ce7fdea8a1e1ec73be300bdb35097c944ce1897202f7a13122eb29060ff161561192d5750565b3360009081527fad3228b676f7d3cd4284a5443f17f1962b36e491b30a40b2405849e597ba5fb5602052604081205460ff161561192d5750565b80600052600060205260406000203360005260205260ff604060002054161561192d5750565b9060009180835282602052604083209160018060a01b03169182845260205260ff6040842054161560001461239a57808352826020526040832082845260205260408320600160ff198254161790557f2f8788117e7eff1d82e926ec794901d17c78024a50270940304540a733656f0d339380a4600190565b505090565b9060009180835282602052604083209160018060a01b03169182845260205260ff60408420541660001461239a5780835282602052604083208284526020526040832060ff1981541690557ff6391f5c32d9c69d2a47ea670b442974b53935d1edc7fd64eb21e047a839171b339380a4600190565b600019811461171a5760010190565b600282101561112e5752565b81811061243a575050565b6000815560010161242f565b1561244d57565b60405162461bcd60e51b81526020600482015260116024820152704d61726b6574206e6f742061637469766560781b6044820152606490fd5b1561248d57565b60405162461bcd60e51b815260206004820152600f60248201526e098cadccee8d040dad2e6dac2e8c6d608b1b6044820152606490fd5b8051821015611fdb5760209160051b010190565b156124df57565b60405162461bcd60e51b815260206004820152600f60248201526e496e76616c6964206f7574636f6d6560881b6044820152606490fd5b9190820180921161171a57565b9190820391821161171a57565b3d1561255b573d9061254182612061565b9161254f6040519384612040565b82523d6000602084013e565b606090565b60ff6002541661256c57565b60405163d93c066560e01b8152600490fd5b60026001541461258f576002600155565b604051633ee5aeb560e01b8152600490fd5b156125a857565b60405162461bcd60e51b815260206004820152600e60248201526d496e76616c69642073746174757360901b6044820152606490fd5b60009081526020906009825260409182822082938360029182840193845494600496878301915b878a10612619575050505050505050505090565b9091929394959697989961262d8b83611ff1565b9054600391821b1c88526007808552878920015461264b8d87611ff1565b905490831b1c81036126b057506126648c828801611ff1565b9054911b1c908160011b918083048a149015171561269d5761268f9161268991612516565b9a612414565b989796959493929190612605565b634e487b7160e01b885260118b52602488fd5b919b9189146126c4575b5061268f90612414565b819b816126d961268f946126e4948a01611ff1565b9054911b1c90612516565b9a906126ba565b9060405191828154918282526020928383019160005283600020936000905b8282106127205750505061213b92500383612040565b85548452600195860195889550938101939091019061270a56fea264697066735822122021e294294c22a45b6bfebed0ee82b2d55badb6ad11ff5c646372816f728a730b64736f6c63430008140033","opcodes":"PUSH1 0x80 CALLVALUE PUSH3 0xCA JUMPI PUSH1 0x1F PUSH3 0x28E7 CODESIZE DUP2 SWAP1 SUB SWAP2 DUP3 ADD PUSH1 0x1F NOT AND DUP4 ADD SWAP2 PUSH1 0x1 PUSH1 0x1 PUSH1 0x40 SHL SUB DUP4 GT DUP5 DUP5 LT OR PUSH3 0xCF JUMPI DUP1 DUP5 SWAP3 PUSH1 0x20 SWAP5 PUSH1 0x40 MSTORE DUP4 CODECOPY DUP2 ADD SUB SLT PUSH3 0xCA JUMPI MLOAD PUSH1 0x1 PUSH1 0x1 PUSH1 0xA0 SHL SUB DUP2 AND SWAP1 DUP2 SWAP1 SUB PUSH3 0xCA JUMPI PUSH1 0x1 DUP1 SSTORE PUSH1 0xC8 PUSH1 0x5 SSTORE DUP1 ISZERO PUSH3 0x96 JUMPI PUSH1 0x6 DUP1 SLOAD PUSH1 0x1 PUSH1 0x1 PUSH1 0xA0 SHL SUB NOT AND SWAP2 SWAP1 SWAP2 OR SWAP1 SSTORE PUSH3 0x85 CALLER PUSH3 0xE5 JUMP JUMPDEST POP PUSH1 0x40 MLOAD PUSH2 0x2770 SWAP1 DUP2 PUSH3 0x177 DUP3 CODECOPY RETURN JUMPDEST PUSH1 0x40 MLOAD PUSH3 0x461BCD PUSH1 0xE5 SHL DUP2 MSTORE PUSH1 0x20 PUSH1 0x4 DUP3 ADD MSTORE PUSH1 0xC PUSH1 0x24 DUP3 ADD MSTORE PUSH12 0x5A65726F2061646472657373 PUSH1 0xA0 SHL PUSH1 0x44 DUP3 ADD MSTORE PUSH1 0x64 SWAP1 REVERT JUMPDEST PUSH1 0x0 DUP1 REVERT JUMPDEST PUSH4 0x4E487B71 PUSH1 0xE0 SHL PUSH1 0x0 MSTORE PUSH1 0x41 PUSH1 0x4 MSTORE PUSH1 0x24 PUSH1 0x0 REVERT JUMPDEST PUSH1 0x1 PUSH1 0x1 PUSH1 0xA0 SHL SUB AND PUSH1 0x0 DUP2 DUP2 MSTORE PUSH32 0xAD3228B676F7D3CD4284A5443F17F1962B36E491B30A40B2405849E597BA5FB5 PUSH1 0x20 MSTORE PUSH1 0x40 DUP2 KECCAK256 SLOAD SWAP1 SWAP2 SWAP1 PUSH1 0xFF AND PUSH3 0x172 JUMPI DUP2 DUP1 MSTORE DUP2 PUSH1 0x20 MSTORE PUSH1 0x40 DUP3 KECCAK256 DUP2 DUP4 MSTORE PUSH1 0x20 MSTORE PUSH1 0x40 DUP3 KECCAK256 PUSH1 0x1 PUSH1 0xFF NOT DUP3 SLOAD AND OR SWAP1 SSTORE CALLER SWAP2 PUSH32 0x2F8788117E7EFF1D82E926EC794901D17C78024A50270940304540A733656F0D DUP2 DUP1 LOG4 PUSH1 0x1 SWAP1 JUMP JUMPDEST POP SWAP1 JUMP INVALID PUSH1 0x80 DUP1 PUSH1 0x40 MSTORE PUSH1 0x4 CALLDATASIZE LT ISZERO PUSH2 0x1D JUMPI JUMPDEST POP CALLDATASIZE ISZERO PUSH2 0x1B JUMPI PUSH1 0x0 DUP1 REVERT JUMPDEST STOP JUMPDEST PUSH1 0x0 CALLDATALOAD PUSH1 0xE0 SHR SWAP1 DUP2 PUSH4 0x1FFC9A7 EQ PUSH2 0x1EEC JUMPI POP DUP1 PUSH4 0x7E2CEA5 EQ PUSH2 0x1EB1 JUMPI DUP1 PUSH4 0x10F87615 EQ PUSH2 0x1E35 JUMPI DUP1 PUSH4 0x248A9CA3 EQ PUSH2 0x1E06 JUMPI DUP1 PUSH4 0x2F2FF15D EQ PUSH2 0x1DC7 JUMPI DUP1 PUSH4 0x30D643B5 EQ PUSH2 0x1D8C JUMPI DUP1 PUSH4 0x32D268A5 EQ PUSH2 0x1BD9 JUMPI DUP1 PUSH4 0x35659FB8 EQ PUSH2 0x1BBB JUMPI DUP1 PUSH4 0x36568ABE EQ PUSH2 0x1B74 JUMPI DUP1 PUSH4 0x3B8F825C EQ PUSH2 0x1B22 JUMPI DUP1 PUSH4 0x3BB91C77 EQ PUSH2 0x1AFC JUMPI DUP1 PUSH4 0x3F4BA83A EQ PUSH2 0x1A92 JUMPI DUP1 PUSH4 0x46904840 EQ PUSH2 0x1A69 JUMPI DUP1 PUSH4 0x5023A0C9 EQ PUSH2 0x19E8 JUMPI DUP1 PUSH4 0x539F2E71 EQ PUSH2 0x196E JUMPI DUP1 PUSH4 0x5C975ABB EQ PUSH2 0x194B JUMPI DUP1 PUSH4 0x60557333 EQ PUSH2 0x1855 JUMPI DUP1 PUSH4 0x634B63EE EQ PUSH2 0x17FD JUMPI DUP1 PUSH4 0x677BD9FF EQ PUSH2 0x156C JUMPI DUP1 PUSH4 0x6FA8A7D5 EQ PUSH2 0x1441 JUMPI DUP1 PUSH4 0x787DCE3D EQ PUSH2 0x13B7 JUMPI DUP1 PUSH4 0x8456CB59 EQ PUSH2 0x135D JUMPI DUP1 PUSH4 0x91D14854 EQ PUSH2 0x1310 JUMPI DUP1 PUSH4 0x98B111A2 EQ PUSH2 0xEB4 JUMPI DUP1 PUSH4 0xA217FDDF EQ PUSH2 0xE98 JUMPI DUP1 PUSH4 0xA49A3615 EQ PUSH2 0xE7A JUMPI DUP1 PUSH4 0xB1283E77 EQ PUSH2 0xDA0 JUMPI DUP1 PUSH4 0xBFB5E06A EQ PUSH2 0x819 JUMPI DUP1 PUSH4 0xD547741F EQ PUSH2 0x7DA JUMPI DUP1 PUSH4 0xD7FB1F63 EQ PUSH2 0x78D JUMPI DUP1 PUSH4 0xDB2E21BC EQ PUSH2 0x6E7 JUMPI DUP1 PUSH4 0xDE119A6F EQ PUSH2 0x5C1 JUMPI DUP1 PUSH4 0xE74B981B EQ PUSH2 0x51C JUMPI DUP1 PUSH4 0xEB44FDD3 EQ PUSH2 0x373 JUMPI DUP1 PUSH4 0xEC979082 EQ PUSH2 0x355 JUMPI PUSH4 0xF680ECB7 EQ PUSH2 0x1B6 JUMPI CODESIZE PUSH2 0xF JUMP JUMPDEST CALLVALUE PUSH2 0x350 JUMPI PUSH1 0xA0 CALLDATASIZE PUSH1 0x3 NOT ADD SLT PUSH2 0x350 JUMPI PUSH1 0x4 CALLDATALOAD PUSH2 0x1D2 PUSH2 0x1F55 JUMP JUMPDEST SWAP1 PUSH1 0x44 CALLDATALOAD SWAP2 PUSH1 0x64 CALLDATALOAD SWAP1 PUSH2 0x1E3 PUSH2 0x2265 JUMP JUMPDEST DUP3 PUSH1 0x0 MSTORE PUSH1 0x7 PUSH1 0x20 MSTORE PUSH2 0x20D PUSH1 0xFF PUSH1 0x3 PUSH1 0x40 PUSH1 0x0 KECCAK256 ADD SLOAD PUSH1 0x8 SHR AND PUSH2 0x207 DUP2 PUSH2 0x1FB5 JUMP JUMPDEST ISZERO PUSH2 0x2446 JUMP JUMPDEST PUSH2 0x2710 DUP3 GT PUSH2 0x31B JUMPI DUP3 PUSH1 0x0 MSTORE PUSH1 0x8 PUSH1 0x20 MSTORE PUSH1 0x40 PUSH1 0x0 KECCAK256 SWAP4 PUSH1 0x40 MLOAD SWAP3 PUSH2 0x232 DUP5 PUSH2 0x2025 JUMP JUMPDEST DUP5 DUP5 MSTORE PUSH1 0x20 DUP5 ADD SWAP4 PUSH1 0x1 DUP1 PUSH1 0xA0 SHL SUB DUP1 SWAP5 AND SWAP7 DUP8 DUP7 MSTORE PUSH1 0x40 DUP3 ADD SWAP3 DUP5 DUP5 MSTORE PUSH1 0x60 DUP4 ADD SWAP1 DUP2 MSTORE PUSH1 0x80 DUP4 ADD SWAP1 PUSH1 0x84 CALLDATALOAD DUP3 MSTORE PUSH1 0xA0 DUP5 ADD SWAP3 TIMESTAMP DUP5 MSTORE DUP1 SLOAD PUSH1 0x1 PUSH1 0x40 SHL DUP2 LT ISZERO PUSH2 0x305 JUMPI PUSH2 0x286 SWAP2 PUSH1 0x1 DUP3 ADD DUP2 SSTORE PUSH2 0x1FBF JUMP JUMPDEST SWAP6 SWAP1 SWAP6 PUSH2 0x2EF JUMPI PUSH32 0xCD5F1B4A4E3193DA21353D6588F9C9B44C85FCE850D2F6483CF90583D299B02E SWAP9 PUSH1 0x20 SWAP9 PUSH1 0x5 SWAP7 MLOAD DUP9 SSTORE PUSH1 0x1 DUP9 ADD SWAP2 MLOAD AND PUSH1 0x1 PUSH1 0x1 PUSH1 0x60 SHL SUB PUSH1 0xA0 SHL DUP3 SLOAD AND OR SWAP1 SSTORE MLOAD PUSH1 0x2 DUP7 ADD SSTORE MLOAD PUSH1 0x3 DUP6 ADD SSTORE MLOAD PUSH1 0x4 DUP5 ADD SSTORE MLOAD SWAP2 ADD SSTORE PUSH1 0x40 MLOAD SWAP1 DUP2 MSTORE LOG3 STOP JUMPDEST PUSH4 0x4E487B71 PUSH1 0xE0 SHL PUSH1 0x0 MSTORE PUSH1 0x0 PUSH1 0x4 MSTORE PUSH1 0x24 PUSH1 0x0 REVERT JUMPDEST PUSH4 0x4E487B71 PUSH1 0xE0 SHL PUSH1 0x0 MSTORE PUSH1 0x41 PUSH1 0x4 MSTORE PUSH1 0x24 PUSH1 0x0 REVERT JUMPDEST PUSH1 0x40 MLOAD PUSH3 0x461BCD PUSH1 0xE5 SHL DUP2 MSTORE PUSH1 0x20 PUSH1 0x4 DUP3 ADD MSTORE PUSH1 0xD PUSH1 0x24 DUP3 ADD MSTORE PUSH13 0x496E76616C6964207072696365 PUSH1 0x98 SHL PUSH1 0x44 DUP3 ADD MSTORE PUSH1 0x64 SWAP1 REVERT JUMPDEST PUSH1 0x0 DUP1 REVERT JUMPDEST CALLVALUE PUSH2 0x350 JUMPI PUSH1 0x0 CALLDATASIZE PUSH1 0x3 NOT ADD SLT PUSH2 0x350 JUMPI PUSH1 0x20 PUSH1 0x3 SLOAD PUSH1 0x40 MLOAD SWAP1 DUP2 MSTORE RETURN JUMPDEST CALLVALUE PUSH2 0x350 JUMPI PUSH1 0x20 CALLDATASIZE PUSH1 0x3 NOT ADD SLT PUSH2 0x350 JUMPI PUSH1 0x0 PUSH2 0x120 PUSH1 0x40 MLOAD PUSH2 0x395 DUP2 PUSH2 0x2009 JUMP JUMPDEST DUP3 DUP2 MSTORE PUSH1 0x60 PUSH1 0x20 DUP3 ADD MSTORE PUSH1 0x60 PUSH1 0x40 DUP3 ADD MSTORE DUP3 PUSH1 0x60 DUP3 ADD MSTORE DUP3 PUSH1 0x80 DUP3 ADD MSTORE DUP3 PUSH1 0xA0 DUP3 ADD MSTORE DUP3 PUSH1 0xC0 DUP3 ADD MSTORE DUP3 PUSH1 0xE0 DUP3 ADD MSTORE DUP3 PUSH2 0x100 DUP3 ADD MSTORE ADD MSTORE PUSH1 0x4 CALLDATALOAD PUSH1 0x0 MSTORE PUSH1 0x7 PUSH1 0x20 MSTORE PUSH1 0x40 PUSH1 0x0 KECCAK256 PUSH1 0x8 PUSH1 0x40 MLOAD SWAP2 PUSH2 0x3EC DUP4 PUSH2 0x2009 JUMP JUMPDEST DUP1 SLOAD DUP4 MSTORE PUSH2 0x3FC PUSH1 0x1 DUP3 ADD PUSH2 0x20FD JUMP JUMPDEST PUSH1 0x20 DUP5 ADD MSTORE PUSH2 0x40D PUSH1 0x2 DUP3 ADD PUSH2 0x20FD JUMP JUMPDEST PUSH1 0x40 DUP5 ADD MSTORE PUSH1 0xFF PUSH1 0x3 DUP3 ADD SLOAD PUSH2 0x428 DUP3 DUP3 AND PUSH1 0x60 DUP8 ADD PUSH2 0x2423 JUMP JUMPDEST DUP4 SHR AND PUSH2 0x434 DUP2 PUSH2 0x1FB5 JUMP JUMPDEST PUSH1 0x80 DUP5 ADD MSTORE PUSH1 0x4 DUP2 ADD SLOAD PUSH1 0xA0 DUP5 ADD MSTORE PUSH1 0x5 DUP2 ADD SLOAD PUSH1 0xC0 DUP5 ADD MSTORE PUSH1 0x1 DUP1 PUSH1 0xA0 SHL SUB PUSH1 0x6 DUP3 ADD SLOAD AND PUSH1 0xE0 DUP5 ADD MSTORE PUSH1 0x7 DUP2 ADD SLOAD PUSH2 0x100 DUP5 ADD MSTORE ADD SLOAD PUSH2 0x120 DUP3 ADD MSTORE PUSH1 0x40 MLOAD DUP1 SWAP2 PUSH1 0x20 DUP3 MSTORE DUP1 MLOAD PUSH1 0x20 DUP4 ADD MSTORE PUSH1 0x20 DUP2 ADD MLOAD PUSH2 0x120 PUSH2 0x4BB PUSH2 0x4A5 PUSH2 0x140 SWAP4 DUP5 PUSH1 0x40 DUP9 ADD MSTORE PUSH2 0x160 DUP8 ADD SWAP1 PUSH2 0x21A3 JUMP JUMPDEST PUSH1 0x40 DUP6 ADD MLOAD DUP7 DUP3 SUB PUSH1 0x1F NOT ADD PUSH1 0x60 DUP9 ADD MSTORE PUSH2 0x21A3 JUMP JUMPDEST SWAP3 PUSH2 0x4CE PUSH1 0x60 DUP3 ADD MLOAD PUSH1 0x80 DUP8 ADD SWAP1 PUSH2 0x21E3 JUMP JUMPDEST PUSH1 0x80 DUP2 ADD MLOAD PUSH2 0x4DC DUP2 PUSH2 0x1FB5 JUMP JUMPDEST PUSH1 0xA0 DUP7 ADD MSTORE PUSH1 0xA0 DUP2 ADD MLOAD PUSH1 0xC0 DUP7 ADD MSTORE PUSH1 0xC0 DUP2 ADD MLOAD PUSH1 0xE0 DUP7 ADD MSTORE PUSH1 0x1 DUP1 PUSH1 0xA0 SHL SUB PUSH1 0xE0 DUP3 ADD MLOAD AND PUSH2 0x100 DUP7 ADD MSTORE PUSH2 0x100 DUP2 ADD MLOAD DUP3 DUP7 ADD MSTORE ADD MLOAD SWAP1 DUP4 ADD MSTORE SUB SWAP1 RETURN JUMPDEST CALLVALUE PUSH2 0x350 JUMPI PUSH1 0x20 CALLDATASIZE PUSH1 0x3 NOT ADD SLT PUSH2 0x350 JUMPI PUSH2 0x535 PUSH2 0x1F6B JUMP JUMPDEST PUSH2 0x53D PUSH2 0x22C1 JUMP JUMPDEST PUSH1 0x1 PUSH1 0x1 PUSH1 0xA0 SHL SUB AND DUP1 ISZERO PUSH2 0x58D JUMPI PUSH1 0x20 DUP2 PUSH32 0x7A7B5A0A132F9E0581EB8527F66EAE9EE89C2A3E79D4AC7E41A1F1F4D48A7FC2 SWAP3 PUSH1 0x1 PUSH1 0x1 PUSH1 0x60 SHL SUB PUSH1 0xA0 SHL PUSH1 0x6 SLOAD AND OR PUSH1 0x6 SSTORE PUSH1 0x40 MLOAD SWAP1 DUP2 MSTORE LOG1 STOP JUMPDEST PUSH1 0x40 MLOAD PUSH3 0x461BCD PUSH1 0xE5 SHL DUP2 MSTORE PUSH1 0x20 PUSH1 0x4 DUP3 ADD MSTORE PUSH1 0xC PUSH1 0x24 DUP3 ADD MSTORE PUSH12 0x5A65726F2061646472657373 PUSH1 0xA0 SHL PUSH1 0x44 DUP3 ADD MSTORE PUSH1 0x64 SWAP1 REVERT JUMPDEST CALLVALUE PUSH2 0x350 JUMPI PUSH1 0x20 DUP1 PUSH1 0x3 NOT CALLDATASIZE ADD SLT PUSH2 0x350 JUMPI PUSH1 0x4 CALLDATALOAD PUSH1 0x0 MSTORE PUSH1 0x8 DUP2 MSTORE PUSH1 0x40 PUSH1 0x0 KECCAK256 SWAP1 DUP2 SLOAD PUSH2 0x5EE DUP2 PUSH2 0x21F0 JUMP JUMPDEST SWAP1 PUSH2 0x5FC PUSH1 0x40 MLOAD SWAP3 DUP4 PUSH2 0x2040 JUMP JUMPDEST DUP1 DUP3 MSTORE DUP3 DUP3 ADD DUP1 SWAP5 PUSH1 0x0 MSTORE DUP4 PUSH1 0x0 KECCAK256 PUSH1 0x0 SWAP2 JUMPDEST DUP4 DUP4 LT PUSH2 0x68C JUMPI PUSH1 0x40 DUP1 MLOAD DUP8 DUP2 MSTORE DUP7 MLOAD DUP2 DUP10 ADD DUP2 SWAP1 MSTORE DUP10 SWAP3 DUP3 ADD SWAP1 DUP10 PUSH1 0x0 JUMPDEST DUP3 DUP2 LT PUSH2 0x63B JUMPI DUP5 DUP5 SUB DUP6 RETURN JUMPDEST DUP6 MLOAD DUP1 MLOAD DUP6 MSTORE DUP1 DUP4 ADD MLOAD PUSH1 0x1 PUSH1 0x1 PUSH1 0xA0 SHL SUB AND DUP6 DUP5 ADD MSTORE PUSH1 0x40 DUP1 DUP3 ADD MLOAD SWAP1 DUP7 ADD MSTORE PUSH1 0x60 DUP1 DUP3 ADD MLOAD SWAP1 DUP7 ADD MSTORE PUSH1 0x80 DUP1 DUP3 ADD MLOAD SWAP1 DUP7 ADD MSTORE PUSH1 0xA0 SWAP1 DUP2 ADD MLOAD SWAP1 DUP6 ADD MSTORE SWAP5 DUP2 ADD SWAP5 PUSH1 0xC0 SWAP1 SWAP4 ADD SWAP3 PUSH1 0x1 ADD PUSH2 0x62E JUMP JUMPDEST PUSH1 0x6 DUP7 PUSH1 0x1 SWAP3 PUSH1 0x40 MLOAD PUSH2 0x69E DUP2 PUSH2 0x2025 JUMP JUMPDEST DUP6 SLOAD DUP2 MSTORE DUP5 DUP1 PUSH1 0xA0 SHL SUB DUP6 DUP8 ADD SLOAD AND DUP4 DUP3 ADD MSTORE PUSH1 0x2 DUP7 ADD SLOAD PUSH1 0x40 DUP3 ADD MSTORE PUSH1 0x3 DUP7 ADD SLOAD PUSH1 0x60 DUP3 ADD MSTORE PUSH1 0x4 DUP7 ADD SLOAD PUSH1 0x80 DUP3 ADD MSTORE PUSH1 0x5 DUP7 ADD SLOAD PUSH1 0xA0 DUP3 ADD MSTORE DUP2 MSTORE ADD SWAP3 ADD SWAP3 ADD SWAP2 SWAP1 PUSH2 0x60F JUMP JUMPDEST CALLVALUE PUSH2 0x350 JUMPI PUSH1 0x0 CALLDATASIZE PUSH1 0x3 NOT ADD SLT PUSH2 0x350 JUMPI PUSH2 0x700 PUSH2 0x22C1 JUMP JUMPDEST PUSH1 0xFF PUSH1 0x2 SLOAD AND ISZERO PUSH2 0x75B JUMPI PUSH1 0x0 DUP1 DUP1 DUP1 SELFBALANCE CALLER GAS CALL PUSH2 0x71C PUSH2 0x2530 JUMP JUMPDEST POP ISZERO PUSH2 0x724 JUMPI STOP JUMPDEST PUSH1 0x40 MLOAD PUSH3 0x461BCD PUSH1 0xE5 SHL DUP2 MSTORE PUSH1 0x20 PUSH1 0x4 DUP3 ADD MSTORE PUSH1 0xF PUSH1 0x24 DUP3 ADD MSTORE PUSH15 0x15DA5D1A191C985DC819985A5B1959 PUSH1 0x8A SHL PUSH1 0x44 DUP3 ADD MSTORE PUSH1 0x64 SWAP1 REVERT JUMPDEST PUSH1 0x40 MLOAD PUSH3 0x461BCD PUSH1 0xE5 SHL DUP2 MSTORE PUSH1 0x20 PUSH1 0x4 DUP3 ADD MSTORE PUSH1 0xA PUSH1 0x24 DUP3 ADD MSTORE PUSH10 0x139BDD081C185D5CD959 PUSH1 0xB2 SHL PUSH1 0x44 DUP3 ADD MSTORE PUSH1 0x64 SWAP1 REVERT JUMPDEST CALLVALUE PUSH2 0x350 JUMPI PUSH1 0x40 CALLDATASIZE PUSH1 0x3 NOT ADD SLT PUSH2 0x350 JUMPI PUSH2 0x7A6 PUSH2 0x1F55 JUMP JUMPDEST PUSH1 0x4 CALLDATALOAD PUSH1 0x0 MSTORE PUSH1 0xB PUSH1 0x20 MSTORE PUSH1 0x40 PUSH1 0x0 KECCAK256 SWAP1 PUSH1 0x1 DUP1 PUSH1 0xA0 SHL SUB AND PUSH1 0x0 MSTORE PUSH1 0x20 MSTORE PUSH1 0x20 PUSH1 0xFF PUSH1 0x40 PUSH1 0x0 KECCAK256 SLOAD AND PUSH1 0x40 MLOAD SWAP1 ISZERO ISZERO DUP2 MSTORE RETURN JUMPDEST CALLVALUE PUSH2 0x350 JUMPI PUSH1 0x40 CALLDATASIZE PUSH1 0x3 NOT ADD SLT PUSH2 0x350 JUMPI PUSH2 0x1B PUSH1 0x4 CALLDATALOAD PUSH2 0x7F9 PUSH2 0x1F55 JUMP JUMPDEST SWAP1 DUP1 PUSH1 0x0 MSTORE PUSH1 0x0 PUSH1 0x20 MSTORE PUSH2 0x814 PUSH1 0x1 PUSH1 0x40 PUSH1 0x0 KECCAK256 ADD SLOAD PUSH2 0x22FB JUMP JUMPDEST PUSH2 0x239F JUMP JUMPDEST PUSH1 0x60 CALLDATASIZE PUSH1 0x3 NOT ADD SLT PUSH2 0x350 JUMPI PUSH1 0x4 CALLDATALOAD PUSH1 0x1 PUSH1 0x1 PUSH1 0x40 SHL SUB DUP2 GT PUSH2 0x350 JUMPI PUSH2 0x844 SWAP1 CALLDATASIZE SWAP1 PUSH1 0x4 ADD PUSH2 0x2207 JUMP JUMPDEST PUSH1 0x24 CALLDATALOAD PUSH1 0x1 PUSH1 0x1 PUSH1 0x40 SHL SUB DUP2 GT PUSH2 0x350 JUMPI PUSH2 0x863 SWAP1 CALLDATASIZE SWAP1 PUSH1 0x4 ADD PUSH2 0x2207 JUMP JUMPDEST SWAP1 PUSH1 0x44 CALLDATALOAD PUSH1 0x1 PUSH1 0x1 PUSH1 0x40 SHL SUB DUP2 GT PUSH2 0x350 JUMPI PUSH2 0x883 SWAP1 CALLDATASIZE SWAP1 PUSH1 0x4 ADD PUSH2 0x2207 JUMP JUMPDEST SWAP2 PUSH2 0x88C PUSH2 0x257E JUMP JUMPDEST PUSH2 0x894 PUSH2 0x2560 JUMP JUMPDEST DUP2 MLOAD ISZERO PUSH2 0xD6A JUMPI PUSH2 0x8A8 DUP3 MLOAD DUP3 MLOAD EQ PUSH2 0x2486 JUMP JUMPDEST PUSH2 0x8B5 DUP3 MLOAD DUP5 MLOAD EQ PUSH2 0x2486 JUMP JUMPDEST PUSH1 0x0 DUP1 JUMPDEST DUP3 MLOAD DUP3 LT ISZERO PUSH2 0x96E JUMPI PUSH2 0x8CC DUP3 DUP5 PUSH2 0x24C4 JUMP JUMPDEST MLOAD ISZERO PUSH2 0x93B JUMPI PUSH2 0x92F PUSH2 0x935 SWAP2 PUSH2 0x8F0 PUSH1 0x1 PUSH2 0x8E8 DUP7 DUP11 PUSH2 0x24C4 JUMP JUMPDEST MLOAD GT ISZERO PUSH2 0x24D8 JUMP JUMPDEST PUSH2 0x8FA DUP5 DUP8 PUSH2 0x24C4 JUMP JUMPDEST MLOAD PUSH1 0x0 MSTORE PUSH1 0x7 PUSH1 0x20 MSTORE PUSH2 0x91E PUSH1 0xFF PUSH1 0x3 PUSH1 0x40 PUSH1 0x0 KECCAK256 ADD SLOAD PUSH1 0x8 SHR AND PUSH2 0x207 DUP2 PUSH2 0x1FB5 JUMP JUMPDEST PUSH2 0x928 DUP5 DUP7 PUSH2 0x24C4 JUMP JUMPDEST MLOAD SWAP1 PUSH2 0x2516 JUMP JUMPDEST SWAP2 PUSH2 0x2414 JUMP JUMPDEST SWAP1 PUSH2 0x8B9 JUMP JUMPDEST PUSH1 0x40 MLOAD PUSH3 0x461BCD PUSH1 0xE5 SHL DUP2 MSTORE PUSH1 0x20 PUSH1 0x4 DUP3 ADD MSTORE PUSH1 0xB PUSH1 0x24 DUP3 ADD MSTORE PUSH11 0x16995C9BC8185B5BDD5B9D PUSH1 0xAA SHL PUSH1 0x44 DUP3 ADD MSTORE PUSH1 0x64 SWAP1 REVERT JUMPDEST SWAP3 SWAP4 SWAP1 POP DUP3 CALLVALUE LT PUSH2 0xD2E JUMPI PUSH2 0x984 PUSH1 0x4 SLOAD PUSH2 0x2414 JUMP JUMPDEST SWAP2 DUP3 PUSH1 0x4 SSTORE PUSH1 0x40 MLOAD SWAP2 PUSH2 0x996 DUP4 PUSH2 0x2009 JUMP JUMPDEST DUP4 DUP4 MSTORE CALLER PUSH1 0x20 DUP5 ADD MSTORE DUP6 PUSH1 0x40 DUP5 ADD MSTORE DUP2 PUSH1 0x60 DUP5 ADD MSTORE PUSH1 0x80 DUP4 ADD MSTORE DUP4 PUSH1 0xA0 DUP4 ADD MSTORE PUSH1 0x0 PUSH1 0xC0 DUP4 ADD MSTORE PUSH1 0x0 PUSH1 0xE0 DUP4 ADD MSTORE PUSH1 0x0 PUSH2 0x100 DUP4 ADD MSTORE TIMESTAMP PUSH2 0x120 DUP4 ADD MSTORE DUP3 PUSH1 0x0 MSTORE PUSH1 0x9 PUSH1 0x20 MSTORE PUSH1 0x40 PUSH1 0x0 KECCAK256 SWAP3 DUP3 MLOAD DUP5 SSTORE PUSH1 0x1 DUP5 ADD PUSH1 0x1 DUP1 PUSH1 0xA0 SHL SUB PUSH1 0x20 DUP6 ADD MLOAD AND PUSH1 0x1 PUSH1 0x1 PUSH1 0x60 SHL SUB PUSH1 0xA0 SHL DUP3 SLOAD AND OR SWAP1 SSTORE PUSH1 0x40 DUP4 ADD MLOAD DUP1 MLOAD SWAP1 PUSH1 0x1 PUSH1 0x1 PUSH1 0x40 SHL SUB DUP3 GT PUSH2 0x305 JUMPI PUSH1 0x1 PUSH1 0x40 SHL DUP3 GT PUSH2 0x305 JUMPI PUSH1 0x20 SWAP1 PUSH1 0x2 DUP8 ADD SLOAD DUP4 PUSH1 0x2 DUP10 ADD SSTORE DUP1 DUP5 LT PUSH2 0xD0E JUMPI JUMPDEST POP ADD PUSH1 0x2 DUP7 ADD PUSH1 0x0 MSTORE PUSH1 0x20 PUSH1 0x0 KECCAK256 PUSH1 0x0 JUMPDEST DUP4 DUP2 LT PUSH2 0xCFA JUMPI POP POP POP POP PUSH1 0x60 DUP4 ADD MLOAD DUP1 MLOAD SWAP1 PUSH1 0x1 PUSH1 0x1 PUSH1 0x40 SHL SUB DUP3 GT PUSH2 0x305 JUMPI PUSH1 0x1 PUSH1 0x40 SHL DUP3 GT PUSH2 0x305 JUMPI PUSH1 0x20 SWAP1 PUSH1 0x3 DUP8 ADD SLOAD DUP4 PUSH1 0x3 DUP10 ADD SSTORE DUP1 DUP5 LT PUSH2 0xCDA JUMPI JUMPDEST POP ADD PUSH1 0x3 DUP7 ADD PUSH1 0x0 MSTORE PUSH1 0x20 PUSH1 0x0 KECCAK256 PUSH1 0x0 JUMPDEST DUP4 DUP2 LT PUSH2 0xCC6 JUMPI POP POP POP POP PUSH1 0x80 DUP4 ADD MLOAD DUP1 MLOAD SWAP1 PUSH1 0x1 PUSH1 0x1 PUSH1 0x40 SHL SUB DUP3 GT PUSH2 0x305 JUMPI PUSH1 0x1 PUSH1 0x40 SHL DUP3 GT PUSH2 0x305 JUMPI PUSH1 0x20 SWAP1 PUSH1 0x4 DUP8 ADD SLOAD DUP4 PUSH1 0x4 DUP10 ADD SSTORE DUP1 DUP5 LT PUSH2 0xCA6 JUMPI JUMPDEST POP ADD PUSH1 0x4 DUP7 ADD PUSH1 0x0 MSTORE PUSH1 0x20 PUSH1 0x0 KECCAK256 PUSH1 0x0 JUMPDEST DUP4 DUP2 LT PUSH2 0xC92 JUMPI POP POP POP POP PUSH1 0xA0 DUP4 ADD MLOAD SWAP4 PUSH1 0x5 SWAP5 DUP6 DUP3 ADD SSTORE PUSH1 0xC0 DUP5 ADD MLOAD PUSH1 0x6 DUP3 ADD SSTORE PUSH1 0x9 PUSH2 0x120 PUSH1 0xE0 DUP7 ADD MLOAD SWAP6 PUSH1 0x7 SWAP7 DUP8 DUP6 ADD SSTORE PUSH1 0x8 DUP5 ADD PUSH2 0x100 DUP3 ADD MLOAD PUSH2 0xB3D DUP2 PUSH2 0x1FB5 JUMP JUMPDEST PUSH2 0xB46 DUP2 PUSH2 0x1FB5 JUMP JUMPDEST PUSH1 0xFF DUP1 NOT DUP4 SLOAD AND SWAP2 AND OR SWAP1 SSTORE ADD MLOAD SWAP2 ADD SSTORE CALLER PUSH1 0x0 MSTORE PUSH1 0xA PUSH1 0x20 MSTORE PUSH1 0x40 PUSH1 0x0 KECCAK256 DUP1 SLOAD PUSH1 0x1 PUSH1 0x40 SHL DUP2 LT ISZERO PUSH2 0x305 JUMPI PUSH2 0xB82 SWAP2 PUSH1 0x1 DUP3 ADD DUP2 SSTORE PUSH2 0x1FF1 JUMP JUMPDEST DUP2 SLOAD SWAP1 PUSH1 0x3 SHL SWAP1 DUP4 DUP3 SHL SWAP2 PUSH1 0x0 NOT SWAP1 SHL NOT AND OR SWAP1 SSTORE PUSH1 0x0 JUMPDEST DUP7 MLOAD DUP2 LT ISZERO PUSH2 0xBE2 JUMPI DUP1 PUSH2 0xBB1 PUSH2 0xBDD SWAP3 DUP6 PUSH2 0x24C4 JUMP JUMPDEST MLOAD PUSH2 0xBBC DUP3 DUP11 PUSH2 0x24C4 JUMP JUMPDEST MLOAD PUSH1 0x0 MSTORE DUP6 PUSH1 0x20 MSTORE PUSH2 0xBD6 DUP8 PUSH1 0x40 PUSH1 0x0 KECCAK256 ADD SWAP2 DUP3 SLOAD PUSH2 0x2516 JUMP JUMPDEST SWAP1 SSTORE PUSH2 0x2414 JUMP JUMPDEST PUSH2 0xB9A JUMP JUMPDEST DUP7 DUP3 DUP8 DUP1 CALLVALUE GT PUSH2 0xC3E JUMPI JUMPDEST DUP2 PUSH32 0xCCD5E8F47687ED6ACE2E906724F744FBCBC9473DF719775175787145984E0722 PUSH1 0x20 SWAP5 PUSH2 0xC27 PUSH1 0x40 MLOAD SWAP2 PUSH1 0x40 DUP4 MSTORE PUSH1 0x40 DUP4 ADD SWAP1 PUSH2 0x1F81 JUMP JUMPDEST SWAP4 DUP7 DUP3 ADD MSTORE DUP1 CALLER SWAP5 SUB SWAP1 LOG3 PUSH1 0x1 DUP1 SSTORE PUSH1 0x40 MLOAD SWAP1 DUP2 MSTORE RETURN JUMPDEST PUSH1 0x0 DUP1 DUP1 DUP1 PUSH2 0xC4D DUP6 CALLVALUE PUSH2 0x2523 JUMP JUMPDEST CALLER GAS CALL PUSH2 0xC58 PUSH2 0x2530 JUMP JUMPDEST POP PUSH2 0xBED JUMPI PUSH1 0x40 MLOAD PUSH3 0x461BCD PUSH1 0xE5 SHL DUP2 MSTORE PUSH1 0x20 PUSH1 0x4 DUP3 ADD MSTORE PUSH1 0xD PUSH1 0x24 DUP3 ADD MSTORE PUSH13 0x1499599D5B990819985A5B1959 PUSH1 0x9A SHL PUSH1 0x44 DUP3 ADD MSTORE PUSH1 0x64 SWAP1 REVERT JUMPDEST PUSH1 0x1 SWAP1 PUSH1 0x20 DUP5 MLOAD SWAP5 ADD SWAP4 DUP2 DUP5 ADD SSTORE ADD PUSH2 0xAF6 JUMP JUMPDEST PUSH2 0xCC0 SWAP1 PUSH1 0x4 DUP10 ADD PUSH1 0x0 MSTORE DUP5 DUP5 PUSH1 0x0 KECCAK256 SWAP2 DUP3 ADD SWAP2 ADD PUSH2 0x242F JUMP JUMPDEST DUP10 PUSH2 0xAE5 JUMP JUMPDEST PUSH1 0x1 SWAP1 PUSH1 0x20 DUP5 MLOAD SWAP5 ADD SWAP4 DUP2 DUP5 ADD SSTORE ADD PUSH2 0xAA3 JUMP JUMPDEST PUSH2 0xCF4 SWAP1 PUSH1 0x3 DUP10 ADD PUSH1 0x0 MSTORE DUP5 DUP5 PUSH1 0x0 KECCAK256 SWAP2 DUP3 ADD SWAP2 ADD PUSH2 0x242F JUMP JUMPDEST DUP10 PUSH2 0xA92 JUMP JUMPDEST PUSH1 0x1 SWAP1 PUSH1 0x20 DUP5 MLOAD SWAP5 ADD SWAP4 DUP2 DUP5 ADD SSTORE ADD PUSH2 0xA50 JUMP JUMPDEST PUSH2 0xD28 SWAP1 PUSH1 0x2 DUP10 ADD PUSH1 0x0 MSTORE DUP5 DUP5 PUSH1 0x0 KECCAK256 SWAP2 DUP3 ADD SWAP2 ADD PUSH2 0x242F JUMP JUMPDEST DUP10 PUSH2 0xA3F JUMP JUMPDEST PUSH1 0x40 MLOAD PUSH3 0x461BCD PUSH1 0xE5 SHL DUP2 MSTORE PUSH1 0x20 PUSH1 0x4 DUP3 ADD MSTORE PUSH1 0x14 PUSH1 0x24 DUP3 ADD MSTORE PUSH20 0x125B9CDD59999A58DA595B9D081C185E5B595B9D PUSH1 0x62 SHL PUSH1 0x44 DUP3 ADD MSTORE PUSH1 0x64 SWAP1 REVERT JUMPDEST PUSH1 0x40 MLOAD PUSH3 0x461BCD PUSH1 0xE5 SHL DUP2 MSTORE PUSH1 0x20 PUSH1 0x4 DUP3 ADD MSTORE PUSH1 0xE PUSH1 0x24 DUP3 ADD MSTORE PUSH14 0x456D7074792062657420736C697 PUSH1 0x94 SHL PUSH1 0x44 DUP3 ADD MSTORE PUSH1 0x64 SWAP1 REVERT JUMPDEST CALLVALUE PUSH2 0x350 JUMPI PUSH1 0x20 CALLDATASIZE PUSH1 0x3 NOT ADD SLT PUSH2 0x350 JUMPI PUSH1 0x4 CALLDATALOAD PUSH1 0x0 MSTORE PUSH1 0x7 PUSH1 0x20 MSTORE PUSH1 0x40 PUSH1 0x0 KECCAK256 DUP1 SLOAD PUSH2 0xDCF PUSH1 0x1 DUP4 ADD PUSH2 0x20FD JUMP JUMPDEST SWAP2 PUSH2 0xDDC PUSH1 0x2 DUP3 ADD PUSH2 0x20FD JUMP JUMPDEST PUSH1 0x3 DUP3 ADD SLOAD SWAP2 PUSH1 0xFF DUP4 PUSH1 0x8 SHR AND PUSH1 0x4 DUP3 ADD SLOAD PUSH1 0x5 DUP4 ADD SLOAD SWAP1 PUSH1 0x1 DUP1 PUSH1 0xA0 SHL SUB PUSH1 0x6 DUP6 ADD SLOAD AND SWAP3 PUSH2 0xE4D PUSH2 0xE3F PUSH1 0x8 PUSH1 0x7 DUP9 ADD SLOAD SWAP8 ADD SLOAD SWAP8 PUSH2 0xE31 PUSH1 0x40 MLOAD SWAP13 DUP14 SWAP13 DUP14 MSTORE PUSH1 0x20 DUP14 PUSH2 0x140 SWAP2 DUP3 SWAP2 ADD MSTORE DUP14 ADD SWAP1 PUSH2 0x21A3 JUMP JUMPDEST SWAP1 DUP12 DUP3 SUB PUSH1 0x40 DUP14 ADD MSTORE PUSH2 0x21A3 JUMP JUMPDEST SWAP8 PUSH1 0xFF PUSH1 0x60 DUP12 ADD SWAP2 AND PUSH2 0x21E3 JUMP JUMPDEST PUSH2 0xE56 DUP2 PUSH2 0x1FB5 JUMP JUMPDEST PUSH1 0x80 DUP9 ADD MSTORE PUSH1 0xA0 DUP8 ADD MSTORE PUSH1 0xC0 DUP7 ADD MSTORE PUSH1 0xE0 DUP6 ADD MSTORE PUSH2 0x100 DUP5 ADD MSTORE PUSH2 0x120 DUP4 ADD MSTORE SUB SWAP1 RETURN JUMPDEST CALLVALUE PUSH2 0x350 JUMPI PUSH1 0x0 CALLDATASIZE PUSH1 0x3 NOT ADD SLT PUSH2 0x350 JUMPI PUSH1 0x20 PUSH1 0x4 SLOAD PUSH1 0x40 MLOAD SWAP1 DUP2 MSTORE RETURN JUMPDEST CALLVALUE PUSH2 0x350 JUMPI PUSH1 0x0 CALLDATASIZE PUSH1 0x3 NOT ADD SLT PUSH2 0x350 JUMPI PUSH1 0x20 PUSH1 0x40 MLOAD PUSH1 0x0 DUP2 MSTORE RETURN JUMPDEST CALLVALUE PUSH2 0x350 JUMPI PUSH1 0x80 CALLDATASIZE PUSH1 0x3 NOT ADD SLT PUSH2 0x350 JUMPI PUSH1 0x4 CALLDATALOAD PUSH1 0x1 PUSH1 0x1 PUSH1 0x40 SHL SUB DUP2 GT PUSH2 0x350 JUMPI PUSH2 0xEE4 SWAP1 CALLDATASIZE SWAP1 PUSH1 0x4 ADD PUSH2 0x207C JUMP JUMPDEST PUSH1 0x24 CALLDATALOAD PUSH1 0x1 PUSH1 0x1 PUSH1 0x40 SHL SUB DUP2 GT PUSH2 0x350 JUMPI PUSH2 0xF03 SWAP1 CALLDATASIZE SWAP1 PUSH1 0x4 ADD PUSH2 0x207C JUMP JUMPDEST SWAP1 PUSH1 0x2 PUSH1 0x44 CALLDATALOAD LT ISZERO PUSH2 0x350 JUMPI TIMESTAMP PUSH1 0x64 CALLDATALOAD GT ISZERO PUSH2 0x12CB JUMPI DUP1 MLOAD ISZERO PUSH2 0x1295 JUMPI PUSH2 0xF2B PUSH1 0x3 SLOAD PUSH2 0x2414 JUMP JUMPDEST SWAP1 DUP2 PUSH1 0x3 SSTORE PUSH1 0x40 MLOAD SWAP3 PUSH2 0xF3D DUP5 PUSH2 0x2009 JUMP JUMPDEST DUP3 DUP5 MSTORE DUP2 PUSH1 0x20 DUP6 ADD MSTORE PUSH1 0x40 DUP5 ADD MSTORE PUSH2 0xF5A PUSH1 0x44 CALLDATALOAD PUSH1 0x60 DUP6 ADD PUSH2 0x2423 JUMP JUMPDEST PUSH1 0x0 PUSH1 0x80 DUP5 ADD MSTORE PUSH1 0x64 CALLDATALOAD PUSH1 0xA0 DUP5 ADD MSTORE PUSH1 0x0 PUSH1 0xC0 DUP5 ADD MSTORE CALLER PUSH1 0xE0 DUP5 ADD MSTORE PUSH1 0x0 PUSH2 0x100 DUP5 ADD MSTORE TIMESTAMP PUSH2 0x120 DUP5 ADD MSTORE DUP2 PUSH1 0x0 MSTORE PUSH1 0x7 PUSH1 0x20 MSTORE PUSH1 0x40 PUSH1 0x0 KECCAK256 DUP4 MLOAD DUP2 SSTORE PUSH1 0x20 DUP5 ADD MLOAD DUP1 MLOAD PUSH1 0x1 PUSH1 0x1 PUSH1 0x40 SHL SUB DUP2 GT PUSH2 0x305 JUMPI DUP1 PUSH1 0x1 DUP5 ADD SWAP3 PUSH2 0xFBC DUP5 SLOAD PUSH2 0x20C3 JUMP JUMPDEST PUSH1 0x1F DUP2 GT PUSH2 0x1263 JUMPI JUMPDEST POP PUSH1 0x20 SWAP1 PUSH1 0x1F DUP4 GT PUSH1 0x1 EQ PUSH2 0x11FD JUMPI PUSH1 0x0 SWAP3 PUSH2 0x11F2 JUMPI JUMPDEST POP POP DUP2 PUSH1 0x1 SHL SWAP2 PUSH1 0x0 NOT SWAP1 PUSH1 0x3 SHL SHR NOT AND OR SWAP1 SSTORE JUMPDEST PUSH1 0x40 DUP5 ADD MLOAD DUP1 MLOAD PUSH1 0x1 PUSH1 0x1 PUSH1 0x40 SHL SUB DUP2 GT PUSH2 0x305 JUMPI DUP1 PUSH1 0x2 DUP5 ADD SWAP3 PUSH2 0x1016 DUP5 SLOAD PUSH2 0x20C3 JUMP JUMPDEST PUSH1 0x1F DUP2 GT PUSH2 0x11B5 JUMPI JUMPDEST POP PUSH1 0x20 SWAP1 PUSH1 0x1F DUP4 GT PUSH1 0x1 EQ PUSH2 0x114F JUMPI PUSH1 0x0 SWAP3 PUSH2 0x1144 JUMPI JUMPDEST POP POP DUP2 PUSH1 0x1 SHL SWAP2 PUSH1 0x0 NOT SWAP1 PUSH1 0x3 SHL SHR NOT AND OR SWAP1 SSTORE JUMPDEST PUSH1 0x3 DUP2 ADD PUSH1 0x60 DUP6 ADD MLOAD PUSH1 0x2 DUP2 LT ISZERO PUSH2 0x112E JUMPI PUSH1 0x20 SWAP6 DUP3 PUSH2 0x120 SWAP3 PUSH1 0x8 SWAP5 SLOAD PUSH1 0xFF PUSH2 0xFF00 PUSH1 0x80 DUP7 ADD MLOAD PUSH2 0x107C DUP2 PUSH2 0x1FB5 JUMP JUMPDEST PUSH2 0x1085 DUP2 PUSH2 0x1FB5 JUMP JUMPDEST DUP9 SHL AND SWAP3 AND SWAP1 PUSH2 0xFFFF NOT AND OR OR SWAP1 SSTORE PUSH1 0xA0 DUP2 ADD MLOAD PUSH1 0x4 DUP6 ADD SSTORE PUSH1 0xC0 DUP2 ADD MLOAD PUSH1 0x5 DUP6 ADD SSTORE PUSH1 0x6 DUP5 ADD PUSH1 0x1 DUP1 PUSH1 0xA0 SHL SUB PUSH1 0xE0 DUP4 ADD MLOAD AND PUSH1 0x1 PUSH1 0x1 PUSH1 0x60 SHL SUB PUSH1 0xA0 SHL DUP3 SLOAD AND OR SWAP1 SSTORE PUSH2 0x100 DUP2 ADD MLOAD PUSH1 0x7 DUP6 ADD SSTORE ADD MLOAD SWAP2 ADD SSTORE DUP2 PUSH32 0xEB26F03DB4373768B6C28D7DABA68FF2EBCD4EB262913EE84CDCDF8D986180A6 PUSH2 0x1111 PUSH1 0x40 MLOAD SWAP4 PUSH1 0x40 DUP6 MSTORE PUSH1 0x40 DUP6 ADD SWAP1 PUSH2 0x21A3 JUMP JUMPDEST SWAP3 PUSH2 0x1120 DUP7 DUP3 ADD PUSH1 0x44 CALLDATALOAD PUSH2 0x21E3 JUMP JUMPDEST DUP1 CALLER SWAP5 SUB SWAP1 LOG3 PUSH1 0x40 MLOAD SWAP1 DUP2 MSTORE RETURN JUMPDEST PUSH4 0x4E487B71 PUSH1 0xE0 SHL PUSH1 0x0 MSTORE PUSH1 0x21 PUSH1 0x4 MSTORE PUSH1 0x24 PUSH1 0x0 REVERT JUMPDEST ADD MLOAD SWAP1 POP DUP8 DUP1 PUSH2 0x1036 JUMP JUMPDEST PUSH1 0x0 DUP6 DUP2 MSTORE PUSH1 0x20 DUP2 KECCAK256 SWAP4 POP PUSH1 0x1F NOT DUP6 AND SWAP1 JUMPDEST DUP2 DUP2 LT PUSH2 0x119D JUMPI POP SWAP1 DUP5 PUSH1 0x1 SWAP6 SWAP5 SWAP4 SWAP3 LT PUSH2 0x1184 JUMPI JUMPDEST POP POP POP DUP2 SHL ADD SWAP1 SSTORE PUSH2 0x104B JUMP JUMPDEST ADD MLOAD PUSH1 0x0 NOT PUSH1 0xF8 DUP5 PUSH1 0x3 SHL AND SHR NOT AND SWAP1 SSTORE DUP8 DUP1 DUP1 PUSH2 0x1177 JUMP JUMPDEST SWAP3 SWAP4 PUSH1 0x20 PUSH1 0x1 DUP2 SWAP3 DUP8 DUP7 ADD MLOAD DUP2 SSTORE ADD SWAP6 ADD SWAP4 ADD PUSH2 0x1161 JUMP JUMPDEST PUSH2 0x11E2 SWAP1 DUP6 PUSH1 0x0 MSTORE PUSH1 0x20 PUSH1 0x0 KECCAK256 PUSH1 0x1F DUP6 ADD PUSH1 0x5 SHR DUP2 ADD SWAP2 PUSH1 0x20 DUP7 LT PUSH2 0x11E8 JUMPI JUMPDEST PUSH1 0x1F ADD PUSH1 0x5 SHR ADD SWAP1 PUSH2 0x242F JUMP JUMPDEST DUP9 PUSH2 0x101F JUMP JUMPDEST SWAP1 SWAP2 POP DUP2 SWAP1 PUSH2 0x11D5 JUMP JUMPDEST ADD MLOAD SWAP1 POP DUP8 DUP1 PUSH2 0xFDC JUMP JUMPDEST PUSH1 0x0 DUP6 DUP2 MSTORE PUSH1 0x20 DUP2 KECCAK256 SWAP4 POP PUSH1 0x1F NOT DUP6 AND SWAP1 JUMPDEST DUP2 DUP2 LT PUSH2 0x124B JUMPI POP SWAP1 DUP5 PUSH1 0x1 SWAP6 SWAP5 SWAP4 SWAP3 LT PUSH2 0x1232 JUMPI JUMPDEST POP POP POP DUP2 SHL ADD SWAP1 SSTORE PUSH2 0xFF1 JUMP JUMPDEST ADD MLOAD PUSH1 0x0 NOT PUSH1 0xF8 DUP5 PUSH1 0x3 SHL AND SHR NOT AND SWAP1 SSTORE DUP8 DUP1 DUP1 PUSH2 0x1225 JUMP JUMPDEST SWAP3 SWAP4 PUSH1 0x20 PUSH1 0x1 DUP2 SWAP3 DUP8 DUP7 ADD MLOAD DUP2 SSTORE ADD SWAP6 ADD SWAP4 ADD PUSH2 0x120F JUMP JUMPDEST PUSH2 0x128F SWAP1 DUP6 PUSH1 0x0 MSTORE PUSH1 0x20 PUSH1 0x0 KECCAK256 PUSH1 0x1F DUP6 ADD PUSH1 0x5 SHR DUP2 ADD SWAP2 PUSH1 0x20 DUP7 LT PUSH2 0x11E8 JUMPI PUSH1 0x1F ADD PUSH1 0x5 SHR ADD SWAP1 PUSH2 0x242F JUMP JUMPDEST DUP9 PUSH2 0xFC5 JUMP JUMPDEST PUSH1 0x40 MLOAD PUSH3 0x461BCD PUSH1 0xE5 SHL DUP2 MSTORE PUSH1 0x20 PUSH1 0x4 DUP3 ADD MSTORE PUSH1 0xE PUSH1 0x24 DUP3 ADD MSTORE PUSH14 0x22B6B83A3C9038BAB2B9BA34B7B7 PUSH1 0x91 SHL PUSH1 0x44 DUP3 ADD MSTORE PUSH1 0x64 SWAP1 REVERT JUMPDEST PUSH1 0x40 MLOAD PUSH3 0x461BCD PUSH1 0xE5 SHL DUP2 MSTORE PUSH1 0x20 PUSH1 0x4 DUP3 ADD MSTORE PUSH1 0x17 PUSH1 0x24 DUP3 ADD MSTORE PUSH32 0x496E76616C6964207265736F6C7574696F6E2074696D65000000000000000000 PUSH1 0x44 DUP3 ADD MSTORE PUSH1 0x64 SWAP1 REVERT JUMPDEST CALLVALUE PUSH2 0x350 JUMPI PUSH1 0x40 CALLDATASIZE PUSH1 0x3 NOT ADD SLT PUSH2 0x350 JUMPI PUSH2 0x1329 PUSH2 0x1F55 JUMP JUMPDEST PUSH1 0x4 CALLDATALOAD PUSH1 0x0 MSTORE PUSH1 0x0 PUSH1 0x20 MSTORE PUSH1 0x40 PUSH1 0x0 KECCAK256 SWAP1 PUSH1 0x1 DUP1 PUSH1 0xA0 SHL SUB AND PUSH1 0x0 MSTORE PUSH1 0x20 MSTORE PUSH1 0x20 PUSH1 0xFF PUSH1 0x40 PUSH1 0x0 KECCAK256 SLOAD AND PUSH1 0x40 MLOAD SWAP1 ISZERO ISZERO DUP2 MSTORE RETURN JUMPDEST CALLVALUE PUSH2 0x350 JUMPI PUSH1 0x0 CALLDATASIZE PUSH1 0x3 NOT ADD SLT PUSH2 0x350 JUMPI PUSH2 0x1376 PUSH2 0x22C1 JUMP JUMPDEST PUSH2 0x137E PUSH2 0x2560 JUMP JUMPDEST PUSH1 0x1 PUSH1 0xFF NOT PUSH1 0x2 SLOAD AND OR PUSH1 0x2 SSTORE PUSH32 0x62E78CEA01BEE320CD4E420270B5EA74000D11B0C9F74754EBDBFC544B05A258 PUSH1 0x20 PUSH1 0x40 MLOAD CALLER DUP2 MSTORE LOG1 STOP JUMPDEST CALLVALUE PUSH2 0x350 JUMPI PUSH1 0x20 CALLDATASIZE PUSH1 0x3 NOT ADD SLT PUSH2 0x350 JUMPI PUSH1 0x4 CALLDATALOAD PUSH2 0x13D3 PUSH2 0x22C1 JUMP JUMPDEST PUSH2 0x3E8 DUP2 GT PUSH2 0x140D JUMPI PUSH1 0x20 DUP2 PUSH32 0xD10D75876659A287A59A6CCFA2E3FFF42F84D94B542837ACD30BC184D562DE40 SWAP3 PUSH1 0x5 SSTORE PUSH1 0x40 MLOAD SWAP1 DUP2 MSTORE LOG1 STOP JUMPDEST PUSH1 0x40 MLOAD PUSH3 0x461BCD PUSH1 0xE5 SHL DUP2 MSTORE PUSH1 0x20 PUSH1 0x4 DUP3 ADD MSTORE PUSH1 0xC PUSH1 0x24 DUP3 ADD MSTORE PUSH12 0x8CCACA40E8DEDE40D0D2CED PUSH1 0xA3 SHL PUSH1 0x44 DUP3 ADD MSTORE PUSH1 0x64 SWAP1 REVERT JUMPDEST CALLVALUE PUSH2 0x350 JUMPI PUSH1 0x20 DUP1 PUSH1 0x3 NOT CALLDATASIZE ADD SLT PUSH2 0x350 JUMPI PUSH1 0x4 CALLDATALOAD PUSH2 0x145E PUSH2 0x257E JUMP JUMPDEST DUP1 PUSH1 0x0 MSTORE PUSH1 0x9 DUP3 MSTORE PUSH1 0x40 PUSH1 0x0 KECCAK256 SWAP2 PUSH1 0x8 SWAP3 DUP4 DUP2 ADD SWAP1 DUP2 SLOAD SWAP1 PUSH1 0xFF SWAP6 DUP7 DUP4 AND SWAP7 PUSH2 0x1486 DUP9 PUSH2 0x1FB5 JUMP JUMPDEST PUSH2 0x1493 PUSH1 0x1 DUP1 SWAP10 EQ PUSH2 0x25A1 JUMP JUMPDEST PUSH1 0x0 SWAP2 PUSH1 0x2 DUP5 ADD DUP1 SLOAD SWAP4 JUMPDEST DUP5 DUP2 LT PUSH2 0x14F0 JUMPI DUP11 DUP11 PUSH32 0xB4C40C610D42F26B552337B28941EB480EB9EC7E9E216A03509DD5FA08D47F7A DUP12 PUSH1 0x7 DUP13 PUSH1 0x2 DUP14 DUP14 PUSH2 0x14D9 DUP9 PUSH2 0x25DE JUMP JUMPDEST SWAP5 ADD DUP5 SWAP1 SSTORE PUSH1 0xFF NOT AND OR SWAP1 SSTORE PUSH1 0x40 MLOAD SWAP1 DUP2 MSTORE LOG2 DUP1 SSTORE STOP JUMPDEST DUP11 DUP5 PUSH2 0x14FC DUP4 DUP6 PUSH2 0x1FF1 JUMP JUMPDEST SWAP1 SLOAD PUSH1 0x3 SWAP2 DUP3 SHL SHR PUSH1 0x0 MSTORE PUSH1 0x7 DUP13 MSTORE PUSH1 0x40 PUSH1 0x0 KECCAK256 ADD SLOAD DUP6 SHR AND PUSH2 0x151E DUP2 PUSH2 0x1FB5 JUMP JUMPDEST SUB PUSH2 0x1531 JUMPI PUSH2 0x152C SWAP1 PUSH2 0x2414 JUMP JUMPDEST PUSH2 0x149E JUMP JUMPDEST PUSH1 0x40 MLOAD PUSH3 0x461BCD PUSH1 0xE5 SHL DUP2 MSTORE PUSH1 0x4 DUP2 ADD DUP11 SWAP1 MSTORE PUSH1 0x13 PUSH1 0x24 DUP3 ADD MSTORE PUSH19 0x13585C9AD95D081B9BDD081C995CDBDB1D9959 PUSH1 0x6A SHL PUSH1 0x44 DUP3 ADD MSTORE PUSH1 0x64 SWAP1 REVERT JUMPDEST CALLVALUE PUSH2 0x350 JUMPI PUSH1 0x20 DUP1 PUSH1 0x3 NOT CALLDATASIZE ADD SLT PUSH2 0x350 JUMPI PUSH1 0x4 CALLDATALOAD PUSH2 0x1589 PUSH2 0x257E JUMP JUMPDEST DUP1 PUSH1 0x0 MSTORE PUSH1 0x9 DUP3 MSTORE PUSH1 0x40 PUSH1 0x0 KECCAK256 SWAP2 PUSH1 0x2 PUSH1 0xFF PUSH1 0x8 DUP6 ADD SLOAD AND PUSH2 0x15AA DUP2 PUSH2 0x1FB5 JUMP JUMPDEST SUB PUSH2 0x17CB JUMPI PUSH1 0x1 DUP4 ADD SLOAD PUSH1 0x1 PUSH1 0x1 PUSH1 0xA0 SHL SUB SWAP4 SWAP1 DUP5 AND CALLER SUB PUSH2 0x179A JUMPI DUP3 PUSH1 0x0 MSTORE PUSH1 0xB DUP3 MSTORE PUSH1 0x40 PUSH1 0x0 KECCAK256 CALLER PUSH1 0x0 MSTORE DUP3 MSTORE PUSH1 0xFF PUSH1 0x40 PUSH1 0x0 KECCAK256 SLOAD AND PUSH2 0x1763 JUMPI PUSH1 0x7 ADD DUP1 SLOAD ISZERO PUSH2 0x1730 JUMPI DUP3 PUSH1 0x0 MSTORE PUSH1 0xB DUP3 MSTORE PUSH1 0x40 PUSH1 0x0 KECCAK256 CALLER PUSH1 0x0 MSTORE DUP3 MSTORE PUSH1 0x40 PUSH1 0x0 KECCAK256 PUSH1 0x1 PUSH1 0xFF NOT DUP3 SLOAD AND OR SWAP1 SSTORE SLOAD PUSH1 0x5 SLOAD DUP1 DUP3 MUL SWAP1 DUP3 DUP3 DIV EQ DUP3 ISZERO OR ISZERO PUSH2 0x171A JUMPI PUSH2 0x2710 PUSH2 0x1636 SWAP2 DIV DUP1 SWAP3 PUSH2 0x2523 JUMP JUMPDEST SWAP4 PUSH1 0x0 DUP1 DUP1 DUP1 DUP9 CALLER GAS CALL PUSH2 0x1648 PUSH2 0x2530 JUMP JUMPDEST POP ISZERO PUSH2 0x16E3 JUMPI DUP2 PUSH2 0x1687 JUMPI JUMPDEST POP POP PUSH32 0x5380CF6FE903B40C6D5A9E0DFBCA2F3A423F0A21520B4D5947ED5169BDBA946D SWAP1 PUSH1 0x40 MLOAD SWAP4 DUP5 MSTORE CALLER SWAP4 LOG3 PUSH1 0x1 DUP1 SSTORE STOP JUMPDEST PUSH1 0x0 DUP1 DUP1 SWAP4 DUP2 SWAP4 PUSH1 0x6 SLOAD AND GAS CALL PUSH2 0x169C PUSH2 0x2530 JUMP JUMPDEST POP ISZERO PUSH2 0x16A9 JUMPI DUP4 DUP1 PUSH2 0x1654 JUMP JUMPDEST PUSH1 0x64 SWAP1 PUSH1 0x40 MLOAD SWAP1 PUSH3 0x461BCD PUSH1 0xE5 SHL DUP3 MSTORE PUSH1 0x4 DUP3 ADD MSTORE PUSH1 0x13 PUSH1 0x24 DUP3 ADD MSTORE PUSH19 0x119959481D1C985B9CD9995C8819985A5B1959 PUSH1 0x6A SHL PUSH1 0x44 DUP3 ADD MSTORE REVERT JUMPDEST PUSH1 0x40 MLOAD PUSH3 0x461BCD PUSH1 0xE5 SHL DUP2 MSTORE PUSH1 0x4 DUP2 ADD DUP5 SWAP1 MSTORE PUSH1 0xF PUSH1 0x24 DUP3 ADD MSTORE PUSH15 0x151C985B9CD9995C8819985A5B1959 PUSH1 0x8A SHL PUSH1 0x44 DUP3 ADD MSTORE PUSH1 0x64 SWAP1 REVERT JUMPDEST PUSH4 0x4E487B71 PUSH1 0xE0 SHL PUSH1 0x0 MSTORE PUSH1 0x11 PUSH1 0x4 MSTORE PUSH1 0x24 PUSH1 0x0 REVERT JUMPDEST PUSH1 0x40 MLOAD PUSH3 0x461BCD PUSH1 0xE5 SHL DUP2 MSTORE PUSH1 0x4 DUP2 ADD DUP4 SWAP1 MSTORE PUSH1 0xB PUSH1 0x24 DUP3 ADD MSTORE PUSH11 0x4E6F2077696E6E696E6773 PUSH1 0xA8 SHL PUSH1 0x44 DUP3 ADD MSTORE PUSH1 0x64 SWAP1 REVERT JUMPDEST PUSH1 0x40 MLOAD PUSH3 0x461BCD PUSH1 0xE5 SHL DUP2 MSTORE PUSH1 0x4 DUP2 ADD DUP4 SWAP1 MSTORE PUSH1 0xF PUSH1 0x24 DUP3 ADD MSTORE PUSH15 0x105B1C9958591E4818DB185A5B5959 PUSH1 0x8A SHL PUSH1 0x44 DUP3 ADD MSTORE PUSH1 0x64 SWAP1 REVERT JUMPDEST PUSH1 0x40 MLOAD PUSH3 0x461BCD PUSH1 0xE5 SHL DUP2 MSTORE PUSH1 0x4 DUP2 ADD DUP4 SWAP1 MSTORE PUSH1 0x9 PUSH1 0x24 DUP3 ADD MSTORE PUSH9 0x2737BA1037BBB732B9 PUSH1 0xB9 SHL PUSH1 0x44 DUP3 ADD MSTORE PUSH1 0x64 SWAP1 REVERT JUMPDEST PUSH1 0x64 SWAP1 PUSH1 0x40 MLOAD SWAP1 PUSH3 0x461BCD PUSH1 0xE5 SHL DUP3 MSTORE PUSH1 0x4 DUP3 ADD MSTORE PUSH1 0xB PUSH1 0x24 DUP3 ADD MSTORE PUSH11 0x139BDD081CD95D1D1B1959 PUSH1 0xAA SHL PUSH1 0x44 DUP3 ADD MSTORE REVERT JUMPDEST CALLVALUE PUSH2 0x350 JUMPI PUSH1 0x40 CALLDATASIZE PUSH1 0x3 NOT ADD SLT PUSH2 0x350 JUMPI PUSH2 0x1816 PUSH2 0x1F6B JUMP JUMPDEST PUSH1 0x1 PUSH1 0x1 PUSH1 0xA0 SHL SUB AND PUSH1 0x0 SWAP1 DUP2 MSTORE PUSH1 0xA PUSH1 0x20 MSTORE PUSH1 0x40 SWAP1 KECCAK256 DUP1 SLOAD PUSH1 0x24 CALLDATALOAD SWAP2 SWAP1 DUP3 LT ISZERO PUSH2 0x350 JUMPI PUSH1 0x20 SWAP2 PUSH2 0x1847 SWAP2 PUSH2 0x1FF1 JUMP JUMPDEST SWAP1 SLOAD PUSH1 0x40 MLOAD SWAP2 PUSH1 0x3 SHL SHR DUP2 MSTORE RETURN JUMPDEST CALLVALUE PUSH2 0x350 JUMPI PUSH2 0x1863 CALLDATASIZE PUSH2 0x1F3F JUMP JUMPDEST CALLER PUSH1 0x0 SWAP1 DUP2 MSTORE PUSH32 0xA629F6981C2F6895A67DC766E8E03FF72D04A413D0D8773A3CA56E9E474032C1 PUSH1 0x20 MSTORE PUSH1 0x40 SWAP1 KECCAK256 SLOAD PUSH32 0x68E79A7BF1E0BC45D0A330C573BC367F9CF464FD326078812F301165FBDA4EF1 SWAP1 PUSH1 0xFF AND ISZERO PUSH2 0x192D JUMPI POP PUSH1 0x20 PUSH32 0x6DFC24F0F2FB42E49FB4FA3FFA8ABB148CAB908A1FB8335B3F128A08B2594AF1 SWAP2 DUP4 PUSH1 0x0 MSTORE PUSH1 0x7 DUP3 MSTORE DUP1 PUSH1 0x7 PUSH1 0x40 PUSH1 0x0 KECCAK256 PUSH1 0x3 DUP2 ADD PUSH2 0x100 DUP2 SLOAD PUSH2 0x190D PUSH1 0xFF DUP3 PUSH1 0x8 SHR AND PUSH2 0x207 DUP2 PUSH2 0x1FB5 JUMP JUMPDEST PUSH2 0x191A PUSH1 0x2 DUP8 GT ISZERO PUSH2 0x24D8 JUMP JUMPDEST PUSH2 0xFF00 NOT AND OR SWAP1 SSTORE ADD SSTORE PUSH1 0x40 MLOAD SWAP1 DUP2 MSTORE LOG2 STOP JUMPDEST PUSH1 0x44 SWAP1 PUSH1 0x40 MLOAD SWAP1 PUSH4 0xE2517D3F PUSH1 0xE0 SHL DUP3 MSTORE CALLER PUSH1 0x4 DUP4 ADD MSTORE PUSH1 0x24 DUP3 ADD MSTORE REVERT JUMPDEST CALLVALUE PUSH2 0x350 JUMPI PUSH1 0x0 CALLDATASIZE PUSH1 0x3 NOT ADD SLT PUSH2 0x350 JUMPI PUSH1 0x20 PUSH1 0xFF PUSH1 0x2 SLOAD AND PUSH1 0x40 MLOAD SWAP1 ISZERO ISZERO DUP2 MSTORE RETURN JUMPDEST CALLVALUE PUSH2 0x350 JUMPI PUSH2 0x197C CALLDATASIZE PUSH2 0x1F3F JUMP JUMPDEST SWAP1 PUSH1 0x0 MSTORE PUSH1 0x8 PUSH1 0x20 MSTORE PUSH1 0x40 PUSH1 0x0 KECCAK256 DUP1 SLOAD DUP3 LT ISZERO PUSH2 0x350 JUMPI PUSH1 0xC0 SWAP2 PUSH2 0x199F SWAP2 PUSH2 0x1FBF JUMP JUMPDEST POP DUP1 SLOAD SWAP1 PUSH1 0x1 DUP1 PUSH1 0xA0 SHL SUB PUSH1 0x1 DUP3 ADD SLOAD AND SWAP1 PUSH1 0x2 DUP2 ADD SLOAD PUSH1 0x3 DUP3 ADD SLOAD SWAP1 PUSH1 0x5 PUSH1 0x4 DUP5 ADD SLOAD SWAP4 ADD SLOAD SWAP4 PUSH1 0x40 MLOAD SWAP6 DUP7 MSTORE PUSH1 0x20 DUP7 ADD MSTORE PUSH1 0x40 DUP6 ADD MSTORE PUSH1 0x60 DUP5 ADD MSTORE PUSH1 0x80 DUP4 ADD MSTORE PUSH1 0xA0 DUP3 ADD MSTORE RETURN JUMPDEST CALLVALUE PUSH2 0x350 JUMPI PUSH1 0x20 CALLDATASIZE PUSH1 0x3 NOT ADD SLT PUSH2 0x350 JUMPI PUSH1 0x4 CALLDATALOAD PUSH1 0x0 MSTORE PUSH1 0x9 PUSH1 0x20 MSTORE PUSH1 0xE0 PUSH1 0x40 PUSH1 0x0 KECCAK256 DUP1 SLOAD SWAP1 PUSH1 0x1 DUP1 PUSH1 0xA0 SHL SUB PUSH1 0x1 DUP3 ADD SLOAD AND SWAP1 PUSH1 0x5 DUP2 ADD SLOAD PUSH1 0x6 DUP3 ADD SLOAD PUSH1 0x7 DUP4 ADD SLOAD SWAP2 PUSH1 0x9 PUSH1 0xFF PUSH1 0x8 DUP7 ADD SLOAD AND SWAP5 ADD SLOAD SWAP5 PUSH1 0x40 MLOAD SWAP7 DUP8 MSTORE PUSH1 0x20 DUP8 ADD MSTORE PUSH1 0x40 DUP7 ADD MSTORE PUSH1 0x60 DUP6 ADD MSTORE PUSH1 0x80 DUP5 ADD MSTORE PUSH2 0x1A5D DUP2 PUSH2 0x1FB5 JUMP JUMPDEST PUSH1 0xA0 DUP4 ADD MSTORE PUSH1 0xC0 DUP3 ADD MSTORE RETURN JUMPDEST CALLVALUE PUSH2 0x350 JUMPI PUSH1 0x0 CALLDATASIZE PUSH1 0x3 NOT ADD SLT PUSH2 0x350 JUMPI PUSH1 0x6 SLOAD PUSH1 0x40 MLOAD PUSH1 0x1 PUSH1 0x1 PUSH1 0xA0 SHL SUB SWAP1 SWAP2 AND DUP2 MSTORE PUSH1 0x20 SWAP1 RETURN JUMPDEST CALLVALUE PUSH2 0x350 JUMPI PUSH1 0x0 CALLDATASIZE PUSH1 0x3 NOT ADD SLT PUSH2 0x350 JUMPI PUSH2 0x1AAB PUSH2 0x22C1 JUMP JUMPDEST PUSH1 0x2 SLOAD PUSH1 0xFF DUP2 AND ISZERO PUSH2 0x1AEA JUMPI PUSH1 0xFF NOT AND PUSH1 0x2 SSTORE PUSH32 0x5DB9EE0A495BF2E6FF9C91A7834C1BA4FDD244A5E8AA4E537BD38AEAE4B073AA PUSH1 0x20 PUSH1 0x40 MLOAD CALLER DUP2 MSTORE LOG1 STOP JUMPDEST PUSH1 0x40 MLOAD PUSH4 0x8DFC202B PUSH1 0xE0 SHL DUP2 MSTORE PUSH1 0x4 SWAP1 REVERT JUMPDEST CALLVALUE PUSH2 0x350 JUMPI PUSH1 0x20 CALLDATASIZE PUSH1 0x3 NOT ADD SLT PUSH2 0x350 JUMPI PUSH1 0x20 PUSH2 0x1B1A PUSH1 0x4 CALLDATALOAD PUSH2 0x25DE JUMP JUMPDEST PUSH1 0x40 MLOAD SWAP1 DUP2 MSTORE RETURN JUMPDEST CALLVALUE PUSH2 0x350 JUMPI PUSH1 0x20 CALLDATASIZE PUSH1 0x3 NOT ADD SLT PUSH2 0x350 JUMPI PUSH1 0x1 PUSH1 0x1 PUSH1 0xA0 SHL SUB PUSH2 0x1B43 PUSH2 0x1F6B JUMP JUMPDEST AND PUSH1 0x0 MSTORE PUSH1 0xA PUSH1 0x20 MSTORE PUSH2 0x1B70 PUSH2 0x1B5C PUSH1 0x40 PUSH1 0x0 KECCAK256 PUSH2 0x26EB JUMP JUMPDEST PUSH1 0x40 MLOAD SWAP2 DUP3 SWAP2 PUSH1 0x20 DUP4 MSTORE PUSH1 0x20 DUP4 ADD SWAP1 PUSH2 0x1F81 JUMP JUMPDEST SUB SWAP1 RETURN JUMPDEST CALLVALUE PUSH2 0x350 JUMPI PUSH1 0x40 CALLDATASIZE PUSH1 0x3 NOT ADD SLT PUSH2 0x350 JUMPI PUSH2 0x1B8D PUSH2 0x1F55 JUMP JUMPDEST CALLER PUSH1 0x1 PUSH1 0x1 PUSH1 0xA0 SHL SUB DUP3 AND SUB PUSH2 0x1BA9 JUMPI PUSH2 0x1B SWAP1 PUSH1 0x4 CALLDATALOAD PUSH2 0x239F JUMP JUMPDEST PUSH1 0x40 MLOAD PUSH4 0x334BD919 PUSH1 0xE1 SHL DUP2 MSTORE PUSH1 0x4 SWAP1 REVERT JUMPDEST CALLVALUE PUSH2 0x350 JUMPI PUSH1 0x0 CALLDATASIZE PUSH1 0x3 NOT ADD SLT PUSH2 0x350 JUMPI PUSH1 0x20 PUSH1 0x5 SLOAD PUSH1 0x40 MLOAD SWAP1 DUP2 MSTORE RETURN JUMPDEST CALLVALUE PUSH2 0x350 JUMPI PUSH1 0x20 CALLDATASIZE PUSH1 0x3 NOT ADD SLT PUSH2 0x350 JUMPI PUSH1 0x0 PUSH2 0x120 PUSH1 0x40 MLOAD PUSH2 0x1BFB DUP2 PUSH2 0x2009 JUMP JUMPDEST DUP3 DUP2 MSTORE DUP3 PUSH1 0x20 DUP3 ADD MSTORE PUSH1 0x60 PUSH1 0x40 DUP3 ADD MSTORE PUSH1 0x60 DUP1 DUP3 ADD MSTORE PUSH1 0x60 PUSH1 0x80 DUP3 ADD MSTORE DUP3 PUSH1 0xA0 DUP3 ADD MSTORE DUP3 PUSH1 0xC0 DUP3 ADD MSTORE DUP3 PUSH1 0xE0 DUP3 ADD MSTORE DUP3 PUSH2 0x100 DUP3 ADD MSTORE ADD MSTORE PUSH1 0x4 CALLDATALOAD PUSH1 0x0 MSTORE PUSH1 0x9 PUSH1 0x20 MSTORE PUSH1 0x40 PUSH1 0x0 KECCAK256 PUSH1 0x9 PUSH1 0x40 MLOAD SWAP2 PUSH2 0x1C52 DUP4 PUSH2 0x2009 JUMP JUMPDEST DUP1 SLOAD DUP4 MSTORE PUSH1 0x1 DUP2 ADD SLOAD PUSH1 0x1 PUSH1 0x1 PUSH1 0xA0 SHL SUB AND PUSH1 0x20 DUP5 ADD MSTORE PUSH2 0x1C75 PUSH1 0x2 DUP3 ADD PUSH2 0x26EB JUMP JUMPDEST PUSH1 0x40 DUP5 ADD MSTORE PUSH2 0x1C86 PUSH1 0x3 DUP3 ADD PUSH2 0x26EB JUMP JUMPDEST PUSH1 0x60 DUP5 ADD MSTORE PUSH2 0x1C97 PUSH1 0x4 DUP3 ADD PUSH2 0x26EB JUMP JUMPDEST PUSH1 0x80 DUP5 ADD MSTORE PUSH1 0x5 DUP2 ADD SLOAD PUSH1 0xA0 DUP5 ADD MSTORE PUSH1 0x6 DUP2 ADD SLOAD PUSH1 0xC0 DUP5 ADD MSTORE PUSH1 0x7 DUP2 ADD SLOAD PUSH1 0xE0 DUP5 ADD MSTORE PUSH1 0xFF PUSH1 0x8 DUP3 ADD SLOAD AND PUSH2 0x1CCB DUP2 PUSH2 0x1FB5 JUMP JUMPDEST PUSH2 0x100 DUP5 ADD MSTORE ADD SLOAD PUSH2 0x120 DUP3 ADD MSTORE PUSH1 0x40 MLOAD DUP1 SWAP2 PUSH1 0x20 DUP3 MSTORE DUP1 MLOAD PUSH1 0x20 DUP4 ADD MSTORE PUSH1 0x1 DUP1 PUSH1 0xA0 SHL SUB PUSH1 0x20 DUP3 ADD MLOAD AND PUSH1 0x40 DUP4 ADD MSTORE PUSH1 0x40 DUP2 ADD MLOAD PUSH2 0x120 PUSH2 0x1D4F PUSH2 0x1D1E PUSH2 0x140 SWAP4 DUP5 PUSH1 0x60 DUP9 ADD MSTORE PUSH2 0x160 DUP8 ADD SWAP1 PUSH2 0x1F81 JUMP JUMPDEST PUSH2 0x1D3A PUSH1 0x60 DUP7 ADD MLOAD SWAP2 PUSH1 0x1F NOT SWAP3 DUP4 DUP10 DUP4 SUB ADD PUSH1 0x80 DUP11 ADD MSTORE PUSH2 0x1F81 JUMP JUMPDEST SWAP1 PUSH1 0x80 DUP7 ADD MLOAD SWAP1 DUP8 DUP4 SUB ADD PUSH1 0xA0 DUP9 ADD MSTORE PUSH2 0x1F81 JUMP JUMPDEST SWAP3 PUSH1 0xA0 DUP2 ADD MLOAD PUSH1 0xC0 DUP7 ADD MSTORE PUSH1 0xC0 DUP2 ADD MLOAD PUSH1 0xE0 DUP7 ADD MSTORE PUSH1 0xE0 DUP2 ADD MLOAD PUSH2 0x100 DUP7 ADD MSTORE PUSH2 0x100 DUP2 ADD MLOAD PUSH2 0x1D7E DUP2 PUSH2 0x1FB5 JUMP JUMPDEST DUP3 DUP7 ADD MSTORE ADD MLOAD SWAP1 DUP4 ADD MSTORE SUB SWAP1 RETURN JUMPDEST CALLVALUE PUSH2 0x350 JUMPI PUSH1 0x0 CALLDATASIZE PUSH1 0x3 NOT ADD SLT PUSH2 0x350 JUMPI PUSH1 0x20 PUSH1 0x40 MLOAD PUSH32 0x7A05A596CB0CE7FDEA8A1E1EC73BE300BDB35097C944CE1897202F7A13122EB2 DUP2 MSTORE RETURN JUMPDEST CALLVALUE PUSH2 0x350 JUMPI PUSH1 0x40 CALLDATASIZE PUSH1 0x3 NOT ADD SLT PUSH2 0x350 JUMPI PUSH2 0x1B PUSH1 0x4 CALLDATALOAD PUSH2 0x1DE6 PUSH2 0x1F55 JUMP JUMPDEST SWAP1 DUP1 PUSH1 0x0 MSTORE PUSH1 0x0 PUSH1 0x20 MSTORE PUSH2 0x1E01 PUSH1 0x1 PUSH1 0x40 PUSH1 0x0 KECCAK256 ADD SLOAD PUSH2 0x22FB JUMP JUMPDEST PUSH2 0x2321 JUMP JUMPDEST CALLVALUE PUSH2 0x350 JUMPI PUSH1 0x20 CALLDATASIZE PUSH1 0x3 NOT ADD SLT PUSH2 0x350 JUMPI PUSH1 0x4 CALLDATALOAD PUSH1 0x0 MSTORE PUSH1 0x0 PUSH1 0x20 MSTORE PUSH1 0x20 PUSH1 0x1 PUSH1 0x40 PUSH1 0x0 KECCAK256 ADD SLOAD PUSH1 0x40 MLOAD SWAP1 DUP2 MSTORE RETURN JUMPDEST CALLVALUE PUSH2 0x350 JUMPI PUSH1 0x20 PUSH32 0x5D991A3A86D27BB31ECEBC73702087903744A5B069C25E6BB5EB8B48F27314FD PUSH2 0x1E66 CALLDATASIZE PUSH2 0x1F3F JUMP JUMPDEST PUSH2 0x1E71 SWAP4 SWAP2 SWAP4 PUSH2 0x2265 JUMP JUMPDEST DUP4 PUSH1 0x0 MSTORE PUSH1 0x9 DUP3 MSTORE DUP1 PUSH1 0x6 PUSH1 0x40 PUSH1 0x0 KECCAK256 PUSH1 0x8 DUP2 ADD PUSH1 0x1 DUP2 SLOAD PUSH2 0x1E9F PUSH1 0xFF DUP3 AND PUSH2 0x1E99 DUP2 PUSH2 0x1FB5 JUMP JUMPDEST ISZERO PUSH2 0x25A1 JUMP JUMPDEST PUSH1 0xFF NOT AND OR SWAP1 SSTORE ADD SSTORE PUSH1 0x40 MLOAD SWAP1 DUP2 MSTORE LOG2 STOP JUMPDEST CALLVALUE PUSH2 0x350 JUMPI PUSH1 0x0 CALLDATASIZE PUSH1 0x3 NOT ADD SLT PUSH2 0x350 JUMPI PUSH1 0x20 PUSH1 0x40 MLOAD PUSH32 0x68E79A7BF1E0BC45D0A330C573BC367F9CF464FD326078812F301165FBDA4EF1 DUP2 MSTORE RETURN JUMPDEST CALLVALUE PUSH2 0x350 JUMPI PUSH1 0x20 CALLDATASIZE PUSH1 0x3 NOT ADD SLT PUSH2 0x350 JUMPI PUSH1 0x4 CALLDATALOAD SWAP1 PUSH4 0xFFFFFFFF PUSH1 0xE0 SHL DUP3 AND DUP1 SWAP3 SUB PUSH2 0x350 JUMPI PUSH1 0x20 SWAP2 PUSH4 0x7965DB0B PUSH1 0xE0 SHL DUP2 EQ SWAP1 DUP2 ISZERO PUSH2 0x1F2E JUMPI JUMPDEST POP ISZERO ISZERO DUP2 MSTORE RETURN JUMPDEST PUSH4 0x1FFC9A7 PUSH1 0xE0 SHL EQ SWAP1 POP DUP4 PUSH2 0x1F27 JUMP JUMPDEST PUSH1 0x40 SWAP1 PUSH1 0x3 NOT ADD SLT PUSH2 0x350 JUMPI PUSH1 0x4 CALLDATALOAD SWAP1 PUSH1 0x24 CALLDATALOAD SWAP1 JUMP JUMPDEST PUSH1 0x24 CALLDATALOAD SWAP1 PUSH1 0x1 PUSH1 0x1 PUSH1 0xA0 SHL SUB DUP3 AND DUP3 SUB PUSH2 0x350 JUMPI JUMP JUMPDEST PUSH1 0x4 CALLDATALOAD SWAP1 PUSH1 0x1 PUSH1 0x1 PUSH1 0xA0 SHL SUB DUP3 AND DUP3 SUB PUSH2 0x350 JUMPI JUMP JUMPDEST SWAP1 DUP2 MLOAD DUP1 DUP3 MSTORE PUSH1 0x20 DUP1 DUP1 SWAP4 ADD SWAP4 ADD SWAP2 PUSH1 0x0 JUMPDEST DUP3 DUP2 LT PUSH2 0x1FA1 JUMPI POP POP POP POP SWAP1 JUMP JUMPDEST DUP4 MLOAD DUP6 MSTORE SWAP4 DUP2 ADD SWAP4 SWAP3 DUP2 ADD SWAP3 PUSH1 0x1 ADD PUSH2 0x1F93 JUMP JUMPDEST PUSH1 0x4 GT ISZERO PUSH2 0x112E JUMPI JUMP JUMPDEST DUP1 SLOAD DUP3 LT ISZERO PUSH2 0x1FDB JUMPI PUSH1 0x0 MSTORE PUSH1 0x6 PUSH1 0x20 PUSH1 0x0 KECCAK256 SWAP2 MUL ADD SWAP1 PUSH1 0x0 SWAP1 JUMP JUMPDEST PUSH4 0x4E487B71 PUSH1 0xE0 SHL PUSH1 0x0 MSTORE PUSH1 0x32 PUSH1 0x4 MSTORE PUSH1 0x24 PUSH1 0x0 REVERT JUMPDEST DUP1 SLOAD DUP3 LT ISZERO PUSH2 0x1FDB JUMPI PUSH1 0x0 MSTORE PUSH1 0x20 PUSH1 0x0 KECCAK256 ADD SWAP1 PUSH1 0x0 SWAP1 JUMP JUMPDEST PUSH2 0x140 DUP2 ADD SWAP1 DUP2 LT PUSH1 0x1 PUSH1 0x1 PUSH1 0x40 SHL SUB DUP3 GT OR PUSH2 0x305 JUMPI PUSH1 0x40 MSTORE JUMP JUMPDEST PUSH1 0xC0 DUP2 ADD SWAP1 DUP2 LT PUSH1 0x1 PUSH1 0x1 PUSH1 0x40 SHL SUB DUP3 GT OR PUSH2 0x305 JUMPI PUSH1 0x40 MSTORE JUMP JUMPDEST SWAP1 PUSH1 0x1F DUP1 NOT SWAP2 ADD AND DUP2 ADD SWAP1 DUP2 LT PUSH1 0x1 PUSH1 0x1 PUSH1 0x40 SHL SUB DUP3 GT OR PUSH2 0x305 JUMPI PUSH1 0x40 MSTORE JUMP JUMPDEST PUSH1 0x1 PUSH1 0x1 PUSH1 0x40 SHL SUB DUP2 GT PUSH2 0x305 JUMPI PUSH1 0x1F ADD PUSH1 0x1F NOT AND PUSH1 0x20 ADD SWAP1 JUMP JUMPDEST DUP2 PUSH1 0x1F DUP3 ADD SLT ISZERO PUSH2 0x350 JUMPI DUP1 CALLDATALOAD SWAP1 PUSH2 0x2093 DUP3 PUSH2 0x2061 JUMP JUMPDEST SWAP3 PUSH2 0x20A1 PUSH1 0x40 MLOAD SWAP5 DUP6 PUSH2 0x2040 JUMP JUMPDEST DUP3 DUP5 MSTORE PUSH1 0x20 DUP4 DUP4 ADD ADD GT PUSH2 0x350 JUMPI DUP2 PUSH1 0x0 SWAP3 PUSH1 0x20 DUP1 SWAP4 ADD DUP4 DUP7 ADD CALLDATACOPY DUP4 ADD ADD MSTORE SWAP1 JUMP JUMPDEST SWAP1 PUSH1 0x1 DUP3 DUP2 SHR SWAP3 AND DUP1 ISZERO PUSH2 0x20F3 JUMPI JUMPDEST PUSH1 0x20 DUP4 LT EQ PUSH2 0x20DD JUMPI JUMP JUMPDEST PUSH4 0x4E487B71 PUSH1 0xE0 SHL PUSH1 0x0 MSTORE PUSH1 0x22 PUSH1 0x4 MSTORE PUSH1 0x24 PUSH1 0x0 REVERT JUMPDEST SWAP2 PUSH1 0x7F AND SWAP2 PUSH2 0x20D2 JUMP JUMPDEST SWAP1 PUSH1 0x40 MLOAD SWAP2 DUP3 PUSH1 0x0 DUP3 SLOAD SWAP3 PUSH2 0x2111 DUP5 PUSH2 0x20C3 JUMP JUMPDEST SWAP1 DUP2 DUP5 MSTORE PUSH1 0x1 SWAP5 DUP6 DUP2 AND SWAP1 DUP2 PUSH1 0x0 EQ PUSH2 0x2180 JUMPI POP PUSH1 0x1 EQ PUSH2 0x213D JUMPI JUMPDEST POP POP PUSH2 0x213B SWAP3 POP SUB DUP4 PUSH2 0x2040 JUMP JUMPDEST JUMP JUMPDEST SWAP1 SWAP4 SWAP2 POP PUSH1 0x0 MSTORE PUSH1 0x20 SWAP1 DUP2 PUSH1 0x0 KECCAK256 SWAP4 PUSH1 0x0 SWAP2 JUMPDEST DUP2 DUP4 LT PUSH2 0x2168 JUMPI POP POP PUSH2 0x213B SWAP4 POP DUP3 ADD ADD CODESIZE DUP1 PUSH2 0x212D JUMP JUMPDEST DUP6 SLOAD DUP9 DUP5 ADD DUP6 ADD MSTORE SWAP5 DUP6 ADD SWAP5 DUP8 SWAP5 POP SWAP2 DUP4 ADD SWAP2 PUSH2 0x2150 JUMP JUMPDEST SWAP2 POP POP PUSH2 0x213B SWAP5 POP PUSH1 0x20 SWAP3 POP PUSH1 0xFF NOT AND DUP3 DUP5 ADD MSTORE ISZERO ISZERO PUSH1 0x5 SHL DUP3 ADD ADD CODESIZE DUP1 PUSH2 0x212D JUMP JUMPDEST SWAP2 SWAP1 DUP3 MLOAD SWAP3 DUP4 DUP3 MSTORE PUSH1 0x0 JUMPDEST DUP5 DUP2 LT PUSH2 0x21CF JUMPI POP POP DUP3 PUSH1 0x0 PUSH1 0x20 DUP1 SWAP5 SWAP6 DUP5 ADD ADD MSTORE PUSH1 0x1F DUP1 NOT SWAP2 ADD AND ADD ADD SWAP1 JUMP JUMPDEST PUSH1 0x20 DUP2 DUP4 ADD DUP2 ADD MLOAD DUP5 DUP4 ADD DUP3 ADD MSTORE ADD PUSH2 0x21AE JUMP JUMPDEST SWAP1 PUSH1 0x2 DUP3 LT ISZERO PUSH2 0x112E JUMPI MSTORE JUMP JUMPDEST PUSH1 0x1 PUSH1 0x1 PUSH1 0x40 SHL SUB DUP2 GT PUSH2 0x305 JUMPI PUSH1 0x5 SHL PUSH1 0x20 ADD SWAP1 JUMP JUMPDEST DUP2 PUSH1 0x1F DUP3 ADD SLT ISZERO PUSH2 0x350 JUMPI DUP1 CALLDATALOAD SWAP2 PUSH2 0x221E DUP4 PUSH2 0x21F0 JUMP JUMPDEST SWAP3 PUSH2 0x222C PUSH1 0x40 MLOAD SWAP5 DUP6 PUSH2 0x2040 JUMP JUMPDEST DUP1 DUP5 MSTORE PUSH1 0x20 SWAP3 DUP4 DUP1 DUP7 ADD SWAP3 PUSH1 0x5 SHL DUP3 ADD ADD SWAP3 DUP4 GT PUSH2 0x350 JUMPI DUP4 ADD SWAP1 JUMPDEST DUP3 DUP3 LT PUSH2 0x2256 JUMPI POP POP POP POP SWAP1 JUMP JUMPDEST DUP2 CALLDATALOAD DUP2 MSTORE SWAP1 DUP4 ADD SWAP1 DUP4 ADD PUSH2 0x2248 JUMP JUMPDEST CALLER PUSH1 0x0 SWAP1 DUP2 MSTORE PUSH32 0xB5816A4D525CE17C45785E5FBAE4518F6F00EF4E9D31D4D7BB129B76152ED32F PUSH1 0x20 MSTORE PUSH1 0x40 SWAP1 KECCAK256 SLOAD PUSH32 0x7A05A596CB0CE7FDEA8A1E1EC73BE300BDB35097C944CE1897202F7A13122EB2 SWAP1 PUSH1 0xFF AND ISZERO PUSH2 0x192D JUMPI POP JUMP JUMPDEST CALLER PUSH1 0x0 SWAP1 DUP2 MSTORE PUSH32 0xAD3228B676F7D3CD4284A5443F17F1962B36E491B30A40B2405849E597BA5FB5 PUSH1 0x20 MSTORE PUSH1 0x40 DUP2 KECCAK256 SLOAD PUSH1 0xFF AND ISZERO PUSH2 0x192D JUMPI POP JUMP JUMPDEST DUP1 PUSH1 0x0 MSTORE PUSH1 0x0 PUSH1 0x20 MSTORE PUSH1 0x40 PUSH1 0x0 KECCAK256 CALLER PUSH1 0x0 MSTORE PUSH1 0x20 MSTORE PUSH1 0xFF PUSH1 0x40 PUSH1 0x0 KECCAK256 SLOAD AND ISZERO PUSH2 0x192D JUMPI POP JUMP JUMPDEST SWAP1 PUSH1 0x0 SWAP2 DUP1 DUP4 MSTORE DUP3 PUSH1 0x20 MSTORE PUSH1 0x40 DUP4 KECCAK256 SWAP2 PUSH1 0x1 DUP1 PUSH1 0xA0 SHL SUB AND SWAP2 DUP3 DUP5 MSTORE PUSH1 0x20 MSTORE PUSH1 0xFF PUSH1 0x40 DUP5 KECCAK256 SLOAD AND ISZERO PUSH1 0x0 EQ PUSH2 0x239A JUMPI DUP1 DUP4 MSTORE DUP3 PUSH1 0x20 MSTORE PUSH1 0x40 DUP4 KECCAK256 DUP3 DUP5 MSTORE PUSH1 0x20 MSTORE PUSH1 0x40 DUP4 KECCAK256 PUSH1 0x1 PUSH1 0xFF NOT DUP3 SLOAD AND OR SWAP1 SSTORE PUSH32 0x2F8788117E7EFF1D82E926EC794901D17C78024A50270940304540A733656F0D CALLER SWAP4 DUP1 LOG4 PUSH1 0x1 SWAP1 JUMP JUMPDEST POP POP SWAP1 JUMP JUMPDEST SWAP1 PUSH1 0x0 SWAP2 DUP1 DUP4 MSTORE DUP3 PUSH1 0x20 MSTORE PUSH1 0x40 DUP4 KECCAK256 SWAP2 PUSH1 0x1 DUP1 PUSH1 0xA0 SHL SUB AND SWAP2 DUP3 DUP5 MSTORE PUSH1 0x20 MSTORE PUSH1 0xFF PUSH1 0x40 DUP5 KECCAK256 SLOAD AND PUSH1 0x0 EQ PUSH2 0x239A JUMPI DUP1 DUP4 MSTORE DUP3 PUSH1 0x20 MSTORE PUSH1 0x40 DUP4 KECCAK256 DUP3 DUP5 MSTORE PUSH1 0x20 MSTORE PUSH1 0x40 DUP4 KECCAK256 PUSH1 0xFF NOT DUP2 SLOAD AND SWAP1 SSTORE PUSH32 0xF6391F5C32D9C69D2A47EA670B442974B53935D1EDC7FD64EB21E047A839171B CALLER SWAP4 DUP1 LOG4 PUSH1 0x1 SWAP1 JUMP JUMPDEST PUSH1 0x0 NOT DUP2 EQ PUSH2 0x171A JUMPI PUSH1 0x1 ADD SWAP1 JUMP JUMPDEST PUSH1 0x2 DUP3 LT ISZERO PUSH2 0x112E JUMPI MSTORE JUMP JUMPDEST DUP2 DUP2 LT PUSH2 0x243A JUMPI POP POP JUMP JUMPDEST PUSH1 0x0 DUP2 SSTORE PUSH1 0x1 ADD PUSH2 0x242F JUMP JUMPDEST ISZERO PUSH2 0x244D JUMPI JUMP JUMPDEST PUSH1 0x40 MLOAD PUSH3 0x461BCD PUSH1 0xE5 SHL DUP2 MSTORE PUSH1 0x20 PUSH1 0x4 DUP3 ADD MSTORE PUSH1 0x11 PUSH1 0x24 DUP3 ADD MSTORE PUSH17 0x4D61726B6574206E6F7420616374697665 PUSH1 0x78 SHL PUSH1 0x44 DUP3 ADD MSTORE PUSH1 0x64 SWAP1 REVERT JUMPDEST ISZERO PUSH2 0x248D JUMPI JUMP JUMPDEST PUSH1 0x40 MLOAD PUSH3 0x461BCD PUSH1 0xE5 SHL DUP2 MSTORE PUSH1 0x20 PUSH1 0x4 DUP3 ADD MSTORE PUSH1 0xF PUSH1 0x24 DUP3 ADD MSTORE PUSH15 0x98CADCCEE8D040DAD2E6DAC2E8C6D PUSH1 0x8B SHL PUSH1 0x44 DUP3 ADD MSTORE PUSH1 0x64 SWAP1 REVERT JUMPDEST DUP1 MLOAD DUP3 LT ISZERO PUSH2 0x1FDB JUMPI PUSH1 0x20 SWAP2 PUSH1 0x5 SHL ADD ADD SWAP1 JUMP JUMPDEST ISZERO PUSH2 0x24DF JUMPI JUMP JUMPDEST PUSH1 0x40 MLOAD PUSH3 0x461BCD PUSH1 0xE5 SHL DUP2 MSTORE PUSH1 0x20 PUSH1 0x4 DUP3 ADD MSTORE PUSH1 0xF PUSH1 0x24 DUP3 ADD MSTORE PUSH15 0x496E76616C6964206F7574636F6D65 PUSH1 0x88 SHL PUSH1 0x44 DUP3 ADD MSTORE PUSH1 0x64 SWAP1 REVERT JUMPDEST SWAP2 SWAP1 DUP3 ADD DUP1 SWAP3 GT PUSH2 0x171A JUMPI JUMP JUMPDEST SWAP2 SWAP1 DUP3 SUB SWAP2 DUP3 GT PUSH2 0x171A JUMPI JUMP JUMPDEST RETURNDATASIZE ISZERO PUSH2 0x255B JUMPI RETURNDATASIZE SWAP1 PUSH2 0x2541 DUP3 PUSH2 0x2061 JUMP JUMPDEST SWAP2 PUSH2 0x254F PUSH1 0x40 MLOAD SWAP4 DUP5 PUSH2 0x2040 JUMP JUMPDEST DUP3 MSTORE RETURNDATASIZE PUSH1 0x0 PUSH1 0x20 DUP5 ADD RETURNDATACOPY JUMP JUMPDEST PUSH1 0x60 SWAP1 JUMP JUMPDEST PUSH1 0xFF PUSH1 0x2 SLOAD AND PUSH2 0x256C JUMPI JUMP JUMPDEST PUSH1 0x40 MLOAD PUSH4 0xD93C0665 PUSH1 0xE0 SHL DUP2 MSTORE PUSH1 0x4 SWAP1 REVERT JUMPDEST PUSH1 0x2 PUSH1 0x1 SLOAD EQ PUSH2 0x258F JUMPI PUSH1 0x2 PUSH1 0x1 SSTORE JUMP JUMPDEST PUSH1 0x40 MLOAD PUSH4 0x3EE5AEB5 PUSH1 0xE0 SHL DUP2 MSTORE PUSH1 0x4 SWAP1 REVERT JUMPDEST ISZERO PUSH2 0x25A8 JUMPI JUMP JUMPDEST PUSH1 0x40 MLOAD PUSH3 0x461BCD PUSH1 0xE5 SHL DUP2 MSTORE PUSH1 0x20 PUSH1 0x4 DUP3 ADD MSTORE PUSH1 0xE PUSH1 0x24 DUP3 ADD MSTORE PUSH14 0x496E76616C696420737461747573 PUSH1 0x90 SHL PUSH1 0x44 DUP3 ADD MSTORE PUSH1 0x64 SWAP1 REVERT JUMPDEST PUSH1 0x0 SWAP1 DUP2 MSTORE PUSH1 0x20 SWAP1 PUSH1 0x9 DUP3 MSTORE PUSH1 0x40 SWAP2 DUP3 DUP3 KECCAK256 DUP3 SWAP4 DUP4 PUSH1 0x2 SWAP2 DUP3 DUP5 ADD SWAP4 DUP5 SLOAD SWAP5 PUSH1 0x4 SWAP7 DUP8 DUP4 ADD SWAP2 JUMPDEST DUP8 DUP11 LT PUSH2 0x2619 JUMPI POP POP POP POP POP POP POP POP POP POP SWAP1 JUMP JUMPDEST SWAP1 SWAP2 SWAP3 SWAP4 SWAP5 SWAP6 SWAP7 SWAP8 SWAP9 SWAP10 PUSH2 0x262D DUP12 DUP4 PUSH2 0x1FF1 JUMP JUMPDEST SWAP1 SLOAD PUSH1 0x3 SWAP2 DUP3 SHL SHR DUP9 MSTORE PUSH1 0x7 DUP1 DUP6 MSTORE DUP8 DUP10 KECCAK256 ADD SLOAD PUSH2 0x264B DUP14 DUP8 PUSH2 0x1FF1 JUMP JUMPDEST SWAP1 SLOAD SWAP1 DUP4 SHL SHR DUP2 SUB PUSH2 0x26B0 JUMPI POP PUSH2 0x2664 DUP13 DUP3 DUP9 ADD PUSH2 0x1FF1 JUMP JUMPDEST SWAP1 SLOAD SWAP2 SHL SHR SWAP1 DUP2 PUSH1 0x1 SHL SWAP2 DUP1 DUP4 DIV DUP11 EQ SWAP1 ISZERO OR ISZERO PUSH2 0x269D JUMPI PUSH2 0x268F SWAP2 PUSH2 0x2689 SWAP2 PUSH2 0x2516 JUMP JUMPDEST SWAP11 PUSH2 0x2414 JUMP JUMPDEST SWAP9 SWAP8 SWAP7 SWAP6 SWAP5 SWAP4 SWAP3 SWAP2 SWAP1 PUSH2 0x2605 JUMP JUMPDEST PUSH4 0x4E487B71 PUSH1 0xE0 SHL DUP9 MSTORE PUSH1 0x11 DUP12 MSTORE PUSH1 0x24 DUP9 REVERT JUMPDEST SWAP2 SWAP12 SWAP2 DUP10 EQ PUSH2 0x26C4 JUMPI JUMPDEST POP PUSH2 0x268F SWAP1 PUSH2 0x2414 JUMP JUMPDEST DUP2 SWAP12 DUP2 PUSH2 0x26D9 PUSH2 0x268F SWAP5 PUSH2 0x26E4 SWAP5 DUP11 ADD PUSH2 0x1FF1 JUMP JUMPDEST SWAP1 SLOAD SWAP2 SHL SHR SWAP1 PUSH2 0x2516 JUMP JUMPDEST SWAP11 SWAP1 PUSH2 0x26BA JUMP JUMPDEST SWAP1 PUSH1 0x40 MLOAD SWAP2 DUP3 DUP2 SLOAD SWAP2 DUP3 DUP3 MSTORE PUSH1 0x20 SWAP3 DUP4 DUP4 ADD SWAP2 PUSH1 0x0 MSTORE DUP4 PUSH1 0x0 KECCAK256 SWAP4 PUSH1 0x0 SWAP1 JUMPDEST DUP3 DUP3 LT PUSH2 0x2720 JUMPI POP POP POP PUSH2 0x213B SWAP3 POP SUB DUP4 PUSH2 0x2040 JUMP JUMPDEST DUP6 SLOAD DUP5 MSTORE PUSH1 0x1 SWAP6 DUP7 ADD SWAP6 DUP9 SWAP6 POP SWAP4 DUP2 ADD SWAP4 SWAP1 SWAP2 ADD SWAP1 PUSH2 0x270A JUMP INVALID LOG2 PUSH5 0x6970667358 0x22 SLT KECCAK256 0x21 0xE2 SWAP5 0x29 0x4C 0x22 LOG4 JUMPDEST PUSH12 0xFEBED0EE82B2D55BADB6AD11 SELFDESTRUCT 0x5C PUSH5 0x6372816F72 DUP11 PUSH20 0xB64736F6C634300081400330000000000000000 "},"methodIdentifiers":{"DEFAULT_ADMIN_ROLE()":"a217fddf","ORACLE_ROLE()":"07e2cea5","ROUTER_ROLE()":"30d643b5","addExternalMarket(uint256,address,bytes32,uint256,uint256)":"f680ecb7","betSlipCount()":"a49a3615","betSlips(uint256)":"5023a0c9","calculatePayout(uint256)":"3bb91c77","claimWinnings(uint256)":"677bd9ff","createBetSlip(uint256[],uint256[],uint256[])":"bfb5e06a","createMarket(string,string,uint8,uint256)":"98b111a2","emergencyWithdraw()":"db2e21bc","externalMarkets(uint256,uint256)":"539f2e71","feeRecipient()":"46904840","getBetSlip(uint256)":"32d268a5","getExternalMarkets(uint256)":"de119a6f","getMarket(uint256)":"eb44fdd3","getRoleAdmin(bytes32)":"248a9ca3","getUserBetSlips(address)":"3b8f825c","grantRole(bytes32,address)":"2f2ff15d","hasClaimedWinnings(uint256,address)":"d7fb1f63","hasRole(bytes32,address)":"91d14854","marketCount()":"ec979082","markets(uint256)":"b1283e77","pause()":"8456cb59","paused()":"5c975abb","protocolFeeBps()":"35659fb8","recordBetPlaced(uint256,uint256)":"10f87615","renounceRole(bytes32,address)":"36568abe","resolveMarket(uint256,uint256)":"60557333","revokeRole(bytes32,address)":"d547741f","setFeeRecipient(address)":"e74b981b","setProtocolFee(uint256)":"787dce3d","settleBetSlip(uint256)":"6fa8a7d5","supportsInterface(bytes4)":"01ffc9a7","unpause()":"3f4ba83a","userBetSlips(address,uint256)":"634b63ee"}}}}}