{
  "_format": "hh-sol-artifact-1",
  "contractName": "AIOracleDispute",
  "sourceName": "src/AIOracleDispute.sol",
  "abi": [
    {
      "inputs": [],
      "stateMutability": "nonpayable",
      "type": "constructor"
    },
    {
      "inputs": [],
      "name": "AccessControlBadConfirmation",
      "type": "error"
    },
    {
      "inputs": [
        {
          "internalType": "address",
          "name": "account",
          "type": "address"
        },
        {
          "internalType": "bytes32",
          "name": "neededRole",
          "type": "bytes32"
        }
      ],
      "name": "AccessControlUnauthorizedAccount",
      "type": "error"
    },
    {
      "inputs": [],
      "name": "ReentrancyGuardReentrantCall",
      "type": "error"
    },
    {
      "anonymous": false,
      "inputs": [
        {
          "indexed": true,
          "internalType": "uint256",
          "name": "marketId",
          "type": "uint256"
        },
        {
          "indexed": false,
          "internalType": "bytes32",
          "name": "evidenceHash",
          "type": "bytes32"
        },
        {
          "indexed": false,
          "internalType": "uint256",
          "name": "confidence",
          "type": "uint256"
        }
      ],
      "name": "AISuggestion",
      "type": "event"
    },
    {
      "anonymous": false,
      "inputs": [
        {
          "indexed": true,
          "internalType": "uint256",
          "name": "disputeId",
          "type": "uint256"
        },
        {
          "indexed": false,
          "internalType": "bool",
          "name": "accepted",
          "type": "bool"
        },
        {
          "indexed": false,
          "internalType": "uint256",
          "name": "outcome",
          "type": "uint256"
        }
      ],
      "name": "DisputeResolved",
      "type": "event"
    },
    {
      "anonymous": false,
      "inputs": [
        {
          "indexed": true,
          "internalType": "uint256",
          "name": "disputeId",
          "type": "uint256"
        },
        {
          "indexed": true,
          "internalType": "uint256",
          "name": "marketId",
          "type": "uint256"
        },
        {
          "indexed": true,
          "internalType": "address",
          "name": "submitter",
          "type": "address"
        },
        {
          "indexed": false,
          "internalType": "bytes32",
          "name": "evidenceHash",
          "type": "bytes32"
        },
        {
          "indexed": false,
          "internalType": "uint256",
          "name": "proposedOutcome",
          "type": "uint256"
        }
      ],
      "name": "DisputeSubmitted",
      "type": "event"
    },
    {
      "anonymous": false,
      "inputs": [
        {
          "indexed": true,
          "internalType": "uint256",
          "name": "disputeId",
          "type": "uint256"
        },
        {
          "indexed": true,
          "internalType": "address",
          "name": "voter",
          "type": "address"
        },
        {
          "indexed": false,
          "internalType": "bool",
          "name": "support",
          "type": "bool"
        },
        {
          "indexed": false,
          "internalType": "uint256",
          "name": "weight",
          "type": "uint256"
        }
      ],
      "name": "DisputeVoted",
      "type": "event"
    },
    {
      "anonymous": false,
      "inputs": [
        {
          "indexed": true,
          "internalType": "uint256",
          "name": "disputeId",
          "type": "uint256"
        },
        {
          "indexed": true,
          "internalType": "address",
          "name": "claimer",
          "type": "address"
        },
        {
          "indexed": false,
          "internalType": "uint256",
          "name": "amount",
          "type": "uint256"
        }
      ],
      "name": "RewardClaimed",
      "type": "event"
    },
    {
      "anonymous": false,
      "inputs": [
        {
          "indexed": true,
          "internalType": "bytes32",
          "name": "role",
          "type": "bytes32"
        },
        {
          "indexed": true,
          "internalType": "bytes32",
          "name": "previousAdminRole",
          "type": "bytes32"
        },
        {
          "indexed": true,
          "internalType": "bytes32",
          "name": "newAdminRole",
          "type": "bytes32"
        }
      ],
      "name": "RoleAdminChanged",
      "type": "event"
    },
    {
      "anonymous": false,
      "inputs": [
        {
          "indexed": true,
          "internalType": "bytes32",
          "name": "role",
          "type": "bytes32"
        },
        {
          "indexed": true,
          "internalType": "address",
          "name": "account",
          "type": "address"
        },
        {
          "indexed": true,
          "internalType": "address",
          "name": "sender",
          "type": "address"
        }
      ],
      "name": "RoleGranted",
      "type": "event"
    },
    {
      "anonymous": false,
      "inputs": [
        {
          "indexed": true,
          "internalType": "bytes32",
          "name": "role",
          "type": "bytes32"
        },
        {
          "indexed": true,
          "internalType": "address",
          "name": "account",
          "type": "address"
        },
        {
          "indexed": true,
          "internalType": "address",
          "name": "sender",
          "type": "address"
        }
      ],
      "name": "RoleRevoked",
      "type": "event"
    },
    {
      "inputs": [],
      "name": "AI_ORACLE_ROLE",
      "outputs": [
        {
          "internalType": "bytes32",
          "name": "",
          "type": "bytes32"
        }
      ],
      "stateMutability": "view",
      "type": "function"
    },
    {
      "inputs": [],
      "name": "DEFAULT_ADMIN_ROLE",
      "outputs": [
        {
          "internalType": "bytes32",
          "name": "",
          "type": "bytes32"
        }
      ],
      "stateMutability": "view",
      "type": "function"
    },
    {
      "inputs": [],
      "name": "MIN_STAKE",
      "outputs": [
        {
          "internalType": "uint256",
          "name": "",
          "type": "uint256"
        }
      ],
      "stateMutability": "view",
      "type": "function"
    },
    {
      "inputs": [],
      "name": "QUORUM",
      "outputs": [
        {
          "internalType": "uint256",
          "name": "",
          "type": "uint256"
        }
      ],
      "stateMutability": "view",
      "type": "function"
    },
    {
      "inputs": [],
      "name": "RESOLVER_ROLE",
      "outputs": [
        {
          "internalType": "bytes32",
          "name": "",
          "type": "bytes32"
        }
      ],
      "stateMutability": "view",
      "type": "function"
    },
    {
      "inputs": [],
      "name": "VOTING_PERIOD",
      "outputs": [
        {
          "internalType": "uint256",
          "name": "",
          "type": "uint256"
        }
      ],
      "stateMutability": "view",
      "type": "function"
    },
    {
      "inputs": [
        {
          "internalType": "uint256",
          "name": "disputeId",
          "type": "uint256"
        }
      ],
      "name": "claimReward",
      "outputs": [],
      "stateMutability": "nonpayable",
      "type": "function"
    },
    {
      "inputs": [],
      "name": "disputeCount",
      "outputs": [
        {
          "internalType": "uint256",
          "name": "",
          "type": "uint256"
        }
      ],
      "stateMutability": "view",
      "type": "function"
    },
    {
      "inputs": [
        {
          "internalType": "uint256",
          "name": "",
          "type": "uint256"
        },
        {
          "internalType": "uint256",
          "name": "",
          "type": "uint256"
        }
      ],
      "name": "disputeVotes",
      "outputs": [
        {
          "internalType": "address",
          "name": "voter",
          "type": "address"
        },
        {
          "internalType": "bool",
          "name": "support",
          "type": "bool"
        },
        {
          "internalType": "uint256",
          "name": "weight",
          "type": "uint256"
        },
        {
          "internalType": "uint256",
          "name": "timestamp",
          "type": "uint256"
        }
      ],
      "stateMutability": "view",
      "type": "function"
    },
    {
      "inputs": [
        {
          "internalType": "uint256",
          "name": "",
          "type": "uint256"
        }
      ],
      "name": "disputes",
      "outputs": [
        {
          "internalType": "uint256",
          "name": "id",
          "type": "uint256"
        },
        {
          "internalType": "uint256",
          "name": "marketId",
          "type": "uint256"
        },
        {
          "internalType": "address",
          "name": "submitter",
          "type": "address"
        },
        {
          "internalType": "bytes32",
          "name": "evidenceHash",
          "type": "bytes32"
        },
        {
          "internalType": "uint256",
          "name": "stake",
          "type": "uint256"
        },
        {
          "internalType": "uint256",
          "name": "submittedAt",
          "type": "uint256"
        },
        {
          "internalType": "enum AIOracleDispute.DisputeStatus",
          "name": "status",
          "type": "uint8"
        },
        {
          "internalType": "uint256",
          "name": "votesFor",
          "type": "uint256"
        },
        {
          "internalType": "uint256",
          "name": "votesAgainst",
          "type": "uint256"
        },
        {
          "internalType": "uint256",
          "name": "proposedOutcome",
          "type": "uint256"
        },
        {
          "internalType": "uint256",
          "name": "aiConfidence",
          "type": "uint256"
        }
      ],
      "stateMutability": "view",
      "type": "function"
    },
    {
      "inputs": [
        {
          "internalType": "uint256",
          "name": "disputeId",
          "type": "uint256"
        }
      ],
      "name": "getDispute",
      "outputs": [
        {
          "components": [
            {
              "internalType": "uint256",
              "name": "id",
              "type": "uint256"
            },
            {
              "internalType": "uint256",
              "name": "marketId",
              "type": "uint256"
            },
            {
              "internalType": "address",
              "name": "submitter",
              "type": "address"
            },
            {
              "internalType": "bytes32",
              "name": "evidenceHash",
              "type": "bytes32"
            },
            {
              "internalType": "uint256",
              "name": "stake",
              "type": "uint256"
            },
            {
              "internalType": "uint256",
              "name": "submittedAt",
              "type": "uint256"
            },
            {
              "internalType": "enum AIOracleDispute.DisputeStatus",
              "name": "status",
              "type": "uint8"
            },
            {
              "internalType": "uint256",
              "name": "votesFor",
              "type": "uint256"
            },
            {
              "internalType": "uint256",
              "name": "votesAgainst",
              "type": "uint256"
            },
            {
              "internalType": "uint256",
              "name": "proposedOutcome",
              "type": "uint256"
            },
            {
              "internalType": "uint256",
              "name": "aiConfidence",
              "type": "uint256"
            }
          ],
          "internalType": "struct AIOracleDispute.Dispute",
          "name": "",
          "type": "tuple"
        }
      ],
      "stateMutability": "view",
      "type": "function"
    },
    {
      "inputs": [
        {
          "internalType": "uint256",
          "name": "disputeId",
          "type": "uint256"
        }
      ],
      "name": "getDisputeVotes",
      "outputs": [
        {
          "components": [
            {
              "internalType": "address",
              "name": "voter",
              "type": "address"
            },
            {
              "internalType": "bool",
              "name": "support",
              "type": "bool"
            },
            {
              "internalType": "uint256",
              "name": "weight",
              "type": "uint256"
            },
            {
              "internalType": "uint256",
              "name": "timestamp",
              "type": "uint256"
            }
          ],
          "internalType": "struct AIOracleDispute.Vote[]",
          "name": "",
          "type": "tuple[]"
        }
      ],
      "stateMutability": "view",
      "type": "function"
    },
    {
      "inputs": [
        {
          "internalType": "address",
          "name": "user",
          "type": "address"
        }
      ],
      "name": "getReputationScore",
      "outputs": [
        {
          "internalType": "uint256",
          "name": "",
          "type": "uint256"
        }
      ],
      "stateMutability": "view",
      "type": "function"
    },
    {
      "inputs": [
        {
          "internalType": "bytes32",
          "name": "role",
          "type": "bytes32"
        }
      ],
      "name": "getRoleAdmin",
      "outputs": [
        {
          "internalType": "bytes32",
          "name": "",
          "type": "bytes32"
        }
      ],
      "stateMutability": "view",
      "type": "function"
    },
    {
      "inputs": [
        {
          "internalType": "bytes32",
          "name": "role",
          "type": "bytes32"
        },
        {
          "internalType": "address",
          "name": "account",
          "type": "address"
        }
      ],
      "name": "grantRole",
      "outputs": [],
      "stateMutability": "nonpayable",
      "type": "function"
    },
    {
      "inputs": [
        {
          "internalType": "bytes32",
          "name": "role",
          "type": "bytes32"
        },
        {
          "internalType": "address",
          "name": "account",
          "type": "address"
        }
      ],
      "name": "hasRole",
      "outputs": [
        {
          "internalType": "bool",
          "name": "",
          "type": "bool"
        }
      ],
      "stateMutability": "view",
      "type": "function"
    },
    {
      "inputs": [
        {
          "internalType": "uint256",
          "name": "",
          "type": "uint256"
        },
        {
          "internalType": "address",
          "name": "",
          "type": "address"
        }
      ],
      "name": "hasVoted",
      "outputs": [
        {
          "internalType": "bool",
          "name": "",
          "type": "bool"
        }
      ],
      "stateMutability": "view",
      "type": "function"
    },
    {
      "inputs": [
        {
          "internalType": "bytes32",
          "name": "role",
          "type": "bytes32"
        },
        {
          "internalType": "address",
          "name": "callerConfirmation",
          "type": "address"
        }
      ],
      "name": "renounceRole",
      "outputs": [],
      "stateMutability": "nonpayable",
      "type": "function"
    },
    {
      "inputs": [
        {
          "internalType": "address",
          "name": "",
          "type": "address"
        }
      ],
      "name": "reputationScore",
      "outputs": [
        {
          "internalType": "uint256",
          "name": "",
          "type": "uint256"
        }
      ],
      "stateMutability": "view",
      "type": "function"
    },
    {
      "inputs": [
        {
          "internalType": "uint256",
          "name": "disputeId",
          "type": "uint256"
        }
      ],
      "name": "resolveDispute",
      "outputs": [],
      "stateMutability": "nonpayable",
      "type": "function"
    },
    {
      "inputs": [
        {
          "internalType": "bytes32",
          "name": "role",
          "type": "bytes32"
        },
        {
          "internalType": "address",
          "name": "account",
          "type": "address"
        }
      ],
      "name": "revokeRole",
      "outputs": [],
      "stateMutability": "nonpayable",
      "type": "function"
    },
    {
      "inputs": [
        {
          "internalType": "uint256",
          "name": "marketId",
          "type": "uint256"
        },
        {
          "internalType": "bytes32",
          "name": "evidenceHash",
          "type": "bytes32"
        },
        {
          "internalType": "uint256",
          "name": "proposedOutcome",
          "type": "uint256"
        }
      ],
      "name": "submitDispute",
      "outputs": [
        {
          "internalType": "uint256",
          "name": "",
          "type": "uint256"
        }
      ],
      "stateMutability": "payable",
      "type": "function"
    },
    {
      "inputs": [
        {
          "internalType": "uint256",
          "name": "marketId",
          "type": "uint256"
        },
        {
          "internalType": "bytes32",
          "name": "evidenceHash",
          "type": "bytes32"
        },
        {
          "internalType": "uint256",
          "name": "confidence",
          "type": "uint256"
        }
      ],
      "name": "suggestDispute",
      "outputs": [],
      "stateMutability": "nonpayable",
      "type": "function"
    },
    {
      "inputs": [
        {
          "internalType": "bytes4",
          "name": "interfaceId",
          "type": "bytes4"
        }
      ],
      "name": "supportsInterface",
      "outputs": [
        {
          "internalType": "bool",
          "name": "",
          "type": "bool"
        }
      ],
      "stateMutability": "view",
      "type": "function"
    },
    {
      "inputs": [
        {
          "internalType": "uint256",
          "name": "disputeId",
          "type": "uint256"
        },
        {
          "internalType": "uint256",
          "name": "confidence",
          "type": "uint256"
        }
      ],
      "name": "updateAIConfidence",
      "outputs": [],
      "stateMutability": "nonpayable",
      "type": "function"
    },
    {
      "inputs": [
        {
          "internalType": "uint256",
          "name": "disputeId",
          "type": "uint256"
        },
        {
          "internalType": "bool",
          "name": "support",
          "type": "bool"
        }
      ],
      "name": "voteOnDispute",
      "outputs": [],
      "stateMutability": "nonpayable",
      "type": "function"
    },
    {
      "inputs": [],
      "name": "withdrawRewardsPool",
      "outputs": [],
      "stateMutability": "nonpayable",
      "type": "function"
    },
    {
      "stateMutability": "payable",
      "type": "receive"
    }
  ],
  "bytecode": "0x60806040523461002657600180556100163361002b565b5060405161183c90816100bc8239f35b600080fd5b6001600160a01b031660008181527fad3228b676f7d3cd4284a5443f17f1962b36e491b30a40b2405849e597ba5fb5602052604081205490919060ff166100b757818052816020526040822081835260205260408220600160ff1982541617905533917f2f8788117e7eff1d82e926ec794901d17c78024a50270940304540a733656f0d8180a4600190565b509056fe60808060405260049081361015610020575b5050361561001e57600080fd5b005b600090813560e01c90816301ffc9a7146110de5750806301ffdb011461107757806302b16c1814610fda578063248a9ca314610fae5780632e80d9b614610f8a5780632f2ff15d14610f4d57806336568abe14610f075780634385963214610ebd57806350d061cb14610dd6578063564a565d14610e0f57806375a67d5c14610dd657806378fab26014610d9b57806387ff3ec214610d6457806391d1485414610d1b57806394984ed314610cc35780639fb0cd5f14610ae0578063a217fddf14610ac4578063a28889e114610aa6578063a4f5df1214610817578063ae169a50146104f1578063b1610d7e146104d3578063c2b7b868146104a7578063c473609214610381578063c601f7af14610346578063cb1c2b5c14610323578063d547741f146102de5763e3a96cbd0361001157346102db5760203660031901126102db578061014061016f6113a0565b8281528260208201528260408201528260608201528260808201528260a08201528260c08201528260e082015282610100820152826101208201520152813581526003602052604081206101c16113a0565b91815483526001820154602084015260018060a01b03600283015416604084015260038201546060840152838201546080840152600582015460a084015260ff60068301541690848210156102c85761016084600a858560c0840152600781015460e084015260088101546101008401526009810154610120840152015461014082015261014060405191805183526020810151602084015260018060a01b036040820151166040840152606081015160608401526080810151608084015260a081015160a084015261029c60c082015160c08501906111ab565b60e081015160e08401526101008101516101008401526101208101516101208401520151610140820152f35b634e487b7160e01b815260218552602490fd5b80fd5b50903461031f57604036600319011261031f5761031b90356102fe61117f565b90808452836020526103166001604086200154611262565b611306565b5080f35b5080fd5b50346102db57806003193601126102db57602060405167016345785d8a00008152f35b50346102db57806003193601126102db5760206040517f482648e7878e9fa54c0a2f67ffd22d00ebc37cf7a03e060e428d2ab0cd6735cc8152f35b50346102db576020918260031936011261031f5780358252808352604082209283549167ffffffffffffffff831161049457509192906103c5838260051b016113f7565b908082528382018093865284862086915b83831061044357505050506040519280840191818552518092526040840192945b8281106104045784840385f35b855180516001600160a01b03168552808301511515858401526040808201519086015260609081015190850152948101946080909301926001016103f7565b6003876001926104569a9997989a6113d7565b60ff8654868060a01b038116835260a01c161515838201528486015460408201526002860154606082015281520192019201919096949395966103d6565b634e487b7160e01b845260419052602483fd5b50903461031f57602036600319011261031f576104cc906104c661141d565b356114ca565b6001805580f35b50346102db57806003193601126102db5760206040516203f4808152f35b50903461031f576020908160031936011261081357803561051061141d565b80845260038352604084209260ff80600686015416948486101595866106875760019687821491828015610806575b156107cb57868a526005865260408a20338b5286528460408b2054161561079857868a5287865260408a20948a918b968c928154935b8481106106d2575b50505050501561069a57610687571561067b57846007820154915b0154861c828102908082048414901517156106685781156106555704938680808088335af16105c561148e565b50156106185750907f24b5efa61dd1cfc659205a97fb8ed868f3cb8c81922bab2b96423e5de1de2cb79133875260068252610608600a6040892092048254611481565b90556040519384523393a3805580f35b60405162461bcd60e51b8152908101839052601660248201527514995dd85c99081d1c985b9cd9995c8819985a5b195960521b6044820152606490fd5b634e487b7160e01b885260128652602488fd5b634e487b7160e01b885260118652602488fd5b84600882015491610598565b634e487b7160e01b885260218652602488fd5b60405162461bcd60e51b81528088018690526011602482015270566f74656420696e636f72726563746c7960781b6044820152606490fd5b6106dc818461114d565b50546001600160a01b031633146106fb576106f69061137b565b610575565b9091929493508598508c61070f828561114d565b5001549861078557868061076e575b15610734575050505050875b388080808061057d565b8d9550929360021492909183610754575b5050501561072a57508761072a565b61075f92935061114d565b505460a01c1615388080610745565b508161077a828561114d565b505460a01c1661071e565b634e487b7160e01b8e5260218c5260248efd5b60405162461bcd60e51b8152808901879052600c60248201526b446964206e6f7420766f746560a01b6044820152606490fd5b60405162461bcd60e51b81528089018790526014602482015273111a5cdc1d5d19481b9bdd081c995cdbdb1d995960621b6044820152606490fd5b508991506002811461053f565b8280fd5b50903461031f57604036600319011261031f578035602480359283151590818503610aa25761084461141d565b83865260209060038252604087209260ff60068501541682811015610a905761086d9015611440565b8588526005835260408820338952835260ff604089205416610a5e5760058401546203f4808101809111610a4c57421015610a1b57670de0b6b3a76400009433895260068452604089205480610a13575b5086895282845260408920916108d26113d7565b3381528581019182526040810192888452606082019442865280549068010000000000000000821015610a01579061090f9160018201815561114d565b9690966109f157505051845491516001600160a81b03199092166001600160a01b03919091161790151560a01b60ff60a01b16178355516001808401919091559051600290920191909155848752600582526040808820338952909252908620805460ff191690911790557f5753e24191300af98a7ca433046c4a8bc06046ea882686b2918e3d6bdd156d81916109d29185156109dc576007016109b4828254611481565b90555b60408051951515865260208601919091523394918291820190565b0390a36001805580f35b6008016109ea828254611481565b90556109b7565b634e487b7160e01b8d528c90528bfd5b634e487b7160e01b8e5260418852828efd5b9550386108be565b50600c846064936040519362461bcd60e51b85528401528201526b159bdd1a5b99c8195b99195960a21b6044820152fd5b634e487b7160e01b8952601183528589fd5b50600d846064936040519362461bcd60e51b85528401528201526c105b1c9958591e481d9bdd1959609a1b6044820152fd5b634e487b7160e01b8952602183528589fd5b8580fd5b50346102db57806003193601126102db576020600254604051908152f35b50346102db57806003193601126102db57602090604051908152f35b50610aea366111ce565b610af592919261141d565b67016345785d8a00003410610c8a5760028111610c5457610b1760025461137b565b938460025584610b256113a0565b91818352602083019085825260408401903382526060850190888252608086019034825260a0870142815260c088019282845260e08901948386526101008a01968488526101208b01988c8a526101408c019a868c5286526003602052604086209b518c555160018c015560028b019060018060a01b039051166bffffffffffffffffffffffff60a01b8254161790555160038a0155518d890155516005880155600687019151908c821015610c41575060209b5090600a959493929160ff801983541691161790555160078601555160088501555160098401555191015560405192835284830152827f42ae8d08b9f07e7cb7020ca4efbdef0f351554acc44886c84ad24feb7775f4f960403394a460018055604051908152f35b634e487b7160e01b815260218d52602490fd5b60405162461bcd60e51b8152602081870152600f60248201526e496e76616c6964206f7574636f6d6560881b6044820152606490fd5b60405162461bcd60e51b81526020818701526012602482015271496e73756666696369656e74207374616b6560701b6044820152606490fd5b50346102db5760407f04382f7c4582b8a59980b11002bcca4af8783f48686b3b71731d79ad40503376610cf5366111ce565b610d009492946111e8565b610d0d60648211156117a5565b82519182526020820152a280f35b50903461031f57604036600319011261031f57604060209260ff92610d3e61117f565b903582528185528282206001600160a01b03909116825284522054604051911615158152f35b50346102db57610d7336611132565b90610d7c6111e8565b610d8960648311156117a5565b82526003602052600a60408320015580f35b50346102db57806003193601126102db5760206040517f92a19c77d2ea87c7f81d50c74403cb2f401780f3ad919571121efe2bdb427eb18152f35b50346102db5760203660031901126102db576020906040906001600160a01b03610dfe611195565b168152600683522054604051908152f35b50903461031f57602036600319011261031f57604061016092823581526003602052209081549160018101549160018060a01b0360028301541690610ea4600384015491840154600585015460ff60068701541691600787015494600888015496600a60098a0154990154996040519b8c5260208c015260408b015260608a0152608089015260a088015260c08701906111ab565b60e0850152610100840152610120830152610140820152f35b50903461031f57604036600319011261031f57604060209260ff92610ee061117f565b90358252600585528282206001600160a01b03909116825284522054604051911615158152f35b50346102db5760403660031901126102db57610f2161117f565b336001600160a01b03821603610f3c5761031b919235611306565b60405163334bd91960e11b81528390fd5b50903461031f57604036600319011261031f5761031b9035610f6d61117f565b9080845283602052610f856001604086200154611262565b611288565b50346102db57806003193601126102db57602060405168056bc75e2d631000008152f35b50903461031f57602036600319011261031f576040602092600192358152808452200154604051908152f35b50903461031f578160031936011261031f57818052816020526040822033835260205260ff6040832054161561105a578180808047335af161101a61148e565b5015611024575080f35b60649060206040519162461bcd60e51b8352820152600f60248201526e15da5d1a191c985dc819985a5b1959608a1b6044820152fd5b6044916040519163e2517d3f60e01b835233908301526024820152fd5b50346102db5761108636611132565b92908252602052604081209081548310156102db5760806110a7848461114d565b50805490600260018201549101549060ff6040519360018060a01b038116855260a01c161515602084015260408301526060820152f35b90508234610813576020366003190112610813573563ffffffff60e01b81168091036108135760209250637965db0b60e01b8114908115611121575b5015158152f35b6301ffc9a760e01b1490508361111a565b6040906003190112611148576004359060243590565b600080fd5b8054821015611169576000526003602060002091020190600090565b634e487b7160e01b600052603260045260246000fd5b602435906001600160a01b038216820361114857565b600435906001600160a01b038216820361114857565b9060048210156111b85752565b634e487b7160e01b600052602160045260246000fd5b606090600319011261114857600435906024359060443590565b3360009081527fc1c604b5add75b59252bca1e4e4ec4ab21f3921b1ddcf7a43abe69724bce555d60205260409020547f482648e7878e9fa54c0a2f67ffd22d00ebc37cf7a03e060e428d2ab0cd6735cc9060ff16156112445750565b6044906040519063e2517d3f60e01b82523360048301526024820152fd5b80600052600060205260406000203360005260205260ff60406000205416156112445750565b9060009180835282602052604083209160018060a01b03169182845260205260ff6040842054161560001461130157808352826020526040832082845260205260408320600160ff198254161790557f2f8788117e7eff1d82e926ec794901d17c78024a50270940304540a733656f0d339380a4600190565b505090565b9060009180835282602052604083209160018060a01b03169182845260205260ff6040842054166000146113015780835282602052604083208284526020526040832060ff1981541690557ff6391f5c32d9c69d2a47ea670b442974b53935d1edc7fd64eb21e047a839171b339380a4600190565b600019811461138a5760010190565b634e487b7160e01b600052601160045260246000fd5b60405190610160820182811067ffffffffffffffff8211176113c157604052565b634e487b7160e01b600052604160045260246000fd5b604051906080820182811067ffffffffffffffff8211176113c157604052565b6040519190601f01601f1916820167ffffffffffffffff8111838210176113c157604052565b60026001541461142e576002600155565b604051633ee5aeb560e01b8152600490fd5b1561144757565b60405162461bcd60e51b815260206004820152601260248201527144697370757465206e6f742061637469766560701b6044820152606490fd5b9190820180921161138a57565b3d156114c5573d9067ffffffffffffffff82116113c1576114b8601f8301601f19166020016113f7565b9182523d6000602084013e565b606090565b9060009180835260209260038452604090818120600681019182549660ff88169760049889811015611792576115009015611440565b60058401546203f480810180911161177f57421061174b576007840180549168056bc75e2d631000006115396008880194855490611481565b106116b957505490541093841561162e57600160ff19825416179055611566888401548060011c90611481565b600284018380808060018060a01b0395868654165af161158461148e565b50156115fb5754168252600690528381208054670de0b6b3a76400008101929083106115e857506000805160206117e783398151915295969750916009916115e393555b01549251911515825260208201929092529081906040820190565b0390a2565b634e487b7160e01b815260118952602490fd5b865162461bcd60e51b8152808b01849052600d60248201526c14995dd85c990819985a5b1959609a1b6044820152606490fd5b805460ff191660029081179091558301546001600160a01b0316825260069052838120805491670de0b6b3a7640000831015611686575b5050506000805160206117e78339815191529394955060096115e3916115c8565b670de0b6b3a763ffff1983019283116115e8575055939450849360096115e36000805160206117e7833981519152611665565b60ff19166003179095555060028301549288015496979596949590949193509183918291829182916001600160a01b03165af16116f461148e565b501561171857508251818152918201526000805160206117e78339815191529190a2565b835162461bcd60e51b8152908101839052600d60248201526c1499599d5b990819985a5b1959609a1b6044820152606490fd5b855162461bcd60e51b8152808a01839052600e60248201526d566f74696e67206f6e676f696e6760901b6044820152606490fd5b634e487b7160e01b845260118a52602484fd5b634e487b7160e01b845260218a52602484fd5b156117ac57565b60405162461bcd60e51b8152602060048201526012602482015271496e76616c696420636f6e666964656e636560701b6044820152606490fdfe5add0b1fc2a3dfd95be33d1d5feb6709087e50213b7a73c3c3b2c387001221e7a2646970667358221220a7cba8e25897a0e0bda4c28dcd9ddeaa9a86e5d1b11210f83f1c8788f1f453ae64736f6c63430008140033",
  "linkReferences": {},
  "deployedLinkReferences": {}
}